:04000000A1EF0DF06F
:08000800046ED8CF05F0E0CF33
:1000100006F00001E9CF0CF0EACF07F0E1CF08F0DD
:10002000E2CF09F0D9CF0AF0DACF0BF0F3CF12F01C
:10003000F4CF13F0FACF14F000C00EF001C00FF0AF
:1000400002C010F003C011F09DA02AEF00F09EB096
:10005000C2EF00F00EC000F00FC001F010C002F0BF
:1000600011C003F00CC0E9FF07C0EAFF078E08C00B
:10007000E1FF09C0E2FF0AC0D9FF0BC0DAFF12C0DE
:10008000F3FF13C0F4FF14C0FAFF045006C0E0FFF2
:1000900005C0D8FF1000F2CF0DF0F29EF76AB00F46
:1000A000F66E000EF7220900F5500DBEF28E12001A
:1000B000280C0106202156616C6F7220416C6D6125
:1000C00063656E61646F20200000202020202020C6
:1000D0002020202020202020202020202020000060
:1000E00020202020436F7272656374616D656E74A9
:1000F00065212020000020202020202020202020FA
:1001000020202020202020202020000043616C2E71
:1001100020756E2050756E746F20202020202000E6
:1001200043616C2E20646F732050756E746F732062
:10013000202020004D65646961204D6F76696C2038
:1001400020202020202020005469656D706F2052EF
:10015000656E6F76616369F36E202000436172679C
:100160006120496E696369616C2020202020200095
:100170004D616E74656E696D69656E746F202020C7
:1001800020202000150ECF6EA00ECE6E392AD8B4D6
:100190003A2A928480B404D0452AD8B4462A02D0A0
:1001A000466A456A928680B604D0472AD8B4482A5F
:1001B00002D0486A476A928880B804D0492AD8B4E5
:1001C0004A2A02D04A6A496A928A80BA04D04B2AE3
:1001D000D8B44C2A02D04C6A4B6A3A5203E13950E7
:1001E000C70827E23A6A396A178C292A2A2A18820C
:1001F00018A003D03B2AD8B43C2A18AC03D03D2A1F
:10020000D8B43E2A18A403D0412AD8B4422A18A64A
:1002100003D0432AD8B4442A17A20BD0212A215054
:100220003C0802E1216A222A22503C0802E1226AAB
:10023000232A9E902AEF00F02020202020534352B2
:10024000554242455220202020202020000020201E
:100250002020202048554D45444F2020202020209C
:1002600020200000202020204A5020494E474C4F9B
:1002700042414C2020202020000020205245463AB8
:100280004F505343523132302D3031202020000066
:100290002D2D2D4D454E55205052494E434950412C
:1002A0004C2D2D2D000043616C6962726163696F92
:1002B0006E20756E2050756E746F000020496E6759
:1002C000726573652076616C6F7220207048202003
:1002D0000000202020202025322E3166207048206A
:1002E000200020202043616C6962726163696F6E37
:1002F000202020002020202020457869746F736121
:1003000020202020200043616C6962726163696F64
:100310006E20646F732050756E740000496E6772B2
:100320006573652076616C6F72202070482025759A
:100330000000202020202025322E31662070482009
:10034000200020202043616C6962726163696F6ED6
:10035000202020002020202020457869746F7361C0
:10036000202020202000202020204D65646961206D
:1003700020204D6F76696C20202000002020202056
:10038000496E67726573652076616C6F72202020FC
:100390000000202020202020202025303275202021
:1003A000200052656E6F766163696F6E2020204C6D
:1003B00069717569646F000020202020496E6772A2
:1003C0006573652076616C6F72202020000020200C
:1003D000205469656D706F3A2530337520686F72EF
:1003E0006173200020436172676120496E6963690F
:1003F000616C2042617365200000496E677265730D
:10040000652076616C6F7220656E206D6C20000037
:10041000202020426173653A2530344C75206D6C84
:10042000202000004D544F2E202070483A25322EB7
:1004300031662000623A25322E326620583D253240
:100440002E30662058313D25322E3066000059305E
:100450003D25322E31662059313D25322E31662020
:10046000253032750000542E2050756C736F3D2579
:10047000303275204144433A25322E306620000048
:1004800054696D653A253033753A25303275000070
:10049000424F4D42413A4F4E2000424F4D42413A69
:1004A0004F464600424153453A4F4E2000004241DC
:1004B00053453A4F46460000414755413A4F4E207A
:1004C0000000414755413A4F4646000044455341DC
:1004D0003A4F4E200000444553413A4F46460000F3
:1004E000214E4956454C2044452041475541204224
:1004F000414A4F2100004A50205343525542424541
:10050000522054523A25303375206800EA6AF00EC2
:10051000E96EEF500EE00F0E016E006A002EFED75E
:10052000012EFBD78F0E006E002EFED70000EF2E9F
:10053000F2D7000C8C9295928C9495948B94949411
:100540008C9895988C96959679EF03F0F139F00B8D
:10055000006E0F0E81140010816E080E006E002ECA
:10056000FED78186DB0E006E002EFED700D081966E
:10057000000C8192010EF06FC9DFEEA18192EEB105
:100580008182080E006E002EFED78194080E006E48
:10059000002EFED78196EF39F06F0F0EF017F0C0E6
:1005A000F1F0D4DFEF510F0BF06FF16FCFDF000CE4
:1005B000000E936E8192819481960F0EF06FA6DFEC
:1005C000010ED96FD951030808E3030EF16FBEDFA6
:1005D000050EF06F9BDFD92BF5D7020EF16FB6DF5A
:1005E000D96BD95103080EE3036AD951F2CFDAF07F
:1005F000F29E51DDDABFF28EDA6FEE6BEF6FB9DF8C
:10060000D92BEFD7000C010EEC5DFC0F0FE2040FAD
:100610001EEF03F0800EED6F09D0C00EED6F06D017
:10062000940EED6F03D0D40EED6F00D0010EEB5D94
:10063000ED27EE6BEDC0EFF09CDF000CF2CF0DF07C
:10064000F29EE824F76AF736610FF66E060EF7227F
:100650000A00F550FA6E0800F5500DBEF28EF96EE4
:1006600014061A0620062606EA51F10802E1EE0EEB
:10067000EA6FEA51D10802E1FF0EEA6FEA510C0A73
:1006800005E0060A0DE0020A12E016D0EE6B010E3C
:10069000EF6F6FDF010E166E020EF06F37DF12D0B4
:1006A000162A010EEB6F16C0ECF0ADDF0BD0EE6B2F
:1006B000100EEF6F5EDF06D0010EEE6FEAC0EFF0B6
:1006C00058DF00D0000C040ED96FFA0EF06F1EDF59
:1006D000D92FFBD7850ECD6E9D80C150C00B0D0963
:1006E000C16EC090C082C094C09EC280C00EF21283
:1006F00021D75EDF0C0EEA6FB7DF8CEF0EF08E0EA7
:10070000006EE4C001F0E3C002F0036A015209E1A7
:1007100002C001F0026A080E005E015202E1006AA6
:1007200008D0D89001BE04D0023601360006F9D7B1
:10073000019E000CF2CFD9F0F29E050EA96EA69C88
:10074000A69EA680A850D9BFF28E266E140EF06F1A
:10075000DDDEF2CFD9F0F29E060EA96EA69CA69E13
:10076000A680A850D9BFF28E2C6E140EF06FCEDE8C
:10077000140EF06FCBDEF2CFD9F0F29E080EA96E08
:10078000A69CA69EA680A850D9BFF28E2E6E140EEF
:10079000F06FBCDEF2CFD9F0F29E090EA96EA69CD6
:1007A000A69EA680A850D9BFF28E2D6E140EF06FB3
:1007B000ADDE2DC040F02EC03FF0F2CFD9F0F29E5A
:1007C000140EA96EA69CA69EA680A850D9BFF28E34
:1007D0002F6E140EF06F9ADEF2CFD9F0F29E150E46
:1007E000A96EA69CA69EA680A850D9BFF28E306E98
:1007F000140EF06F8BDEF2CFD9F0F29E1E0EA96EB2
:10080000A69CA69EA680A850D9BFF28EE46BE36F8B
:1008100076DF03C0A8F002C0A7F001C0A6F000C0B8
:10082000A5F0140EF06F72DEF2CFD9F0F29E1F0E1B
:10083000A96EA69CA69EA680A850D9BFF28EE46B96
:10084000E36F5DDF03C0B0F002C0AFF001C0AEF0F7
:1008500000C0ADF0140EF06F59DEF2CFD9F0F29E69
:10086000200EA96EA69CA69EA680A850D9BFF28E87
:10087000316E140EF06F4ADEF2CFD9F0F29E210EE7
:10088000A96EA69CA69EA680A850D9BFF28E326EF5
:10089000140EF06F3BDEF2CFD9F0F29E220EA96E5D
:1008A000A69CA69EA680A850D9BFF28E336E140EC9
:1008B000F06F2CDEF2CFD9F0F29E230EA96EA69C2B
:1008C000A69EA680A850D9BFF28E346E140EF06F8B
:1008D0001DDEF2CFD9F0F29E320EA96EA69CA69E26
:1008E000A680A850D9BFF28E216E140EF06F0EDED6
:1008F000F2CFD9F0F29E330EA96EA69CA69EA680DA
:10090000A850D9BFF28E226E140EF06FFFDDF2CF29
:10091000D9F0F29E340EA96EA69CA69EA680A85081
:10092000D9BFF28E236E140EF06FF0DDF2CFD9F046
:10093000F29E3C0EA96EA69CA69EA680A850D9BF8A
:10094000F28E286E140EF06FE1DDF2CFD9F0F29E38
:10095000460EA96EA69CA69EA680A850D9BFF28E70
:100960002B6E140EF06FD2DD8EEF0EF0E251D8B484
:10097000A5D0EE6FE651D8B4A1D0EE5F05E37F0EAF
:10098000EE27D8B09BD006D0810EEE5FD8A096D0CF
:10099000D8B494D0EEC000F0016A026A036AED6B2D
:1009A000E3C0ECF0EC8FE4C0EBF0E5C0EAF0190E28
:1009B000EE6FE951EA5F0DE2010EEB5F0AE2EC5FD8
:1009C00008E2ED5F06E2ED2BEC2BEB2BE951EA2779
:1009D00028D0E851EB5F12E2010EEC5F0FE2ED5F11
:1009E0000DE2ED2BEC2BE851EB27E951EA2719E357
:1009F000EB2B17E1EC2B15E1ED2B13D0E751800920
:100A0000EC5F0EE2010EED5F0BE2ED2BE75180098A
:100A1000EC27E851EB27E9E3EC2BE7E1ED2BE5D7F9
:100A20000380EE2F01D00BD0D890EA37EB37EC37AC
:100A3000ED37D890033602360136EF37BAD7EFA13B
:100A400006D0D890013202320332EF3302D00006D2
:100A500035E0EFBF1ED0D890EA37EB37EC37ED37F3
:100A6000E951EA5F07E2010EEB5F04E2EC5F02E2AC
:100A7000ED5F1AE3E851EB5F05E2010EEC5F02E285
:100A8000ED5F12E3E7518009EC5F03E2010EED5FD9
:100A90000BE3032A09E1022A07E1012A05E1002A02
:100AA0000DE0013202320332E3C0EEF0E751EE1BFB
:100AB000EEAF02D0018E06D0019E04D0006A016A1A
:100AC000026A036A000C800ED8B2E71BEC6BED6B78
:100AD000E3C0EBF0E751EB1BE251D8B4DCD0EA6F96
:100AE000006EE651D8B4E0D0EA5FD8B481D03DE3DF
:100AF000E7C0F0F0F08FE8C0EFF0E9C0EEF0ED6B8A
:100B0000D890F033EF33EE33ED33EA2FF8D7EBAF75
:100B100003D0EC81DDD0EC91EA91EC89EA6AE50E34
:100B2000E96EE9D0EC99EBBF0AD0EAA113D0F0331B
:100B3000EF33EE33ED33002AD8B4C5D00BD0F0BF7D
:100B40000CD0D890ED37EE37EF37F0370006D8B439
:100B5000BAD0F5D7EC8D6BD0EC9DE3C0EBF0E3AFF2
:100B600002D0F08FA9D0F09FA7D0E6C0EAF0E6C08F
:100B700000F0E251EA5FE3C0F0F0F08FE4C0EFF084
:100B8000E5C0EEF0ED6BD890F033EF33EE33ED339C
:100B9000EA2FF8D7EBAF03D0EC839AD0EC93EA912D
:100BA000EC8BEA6AE90EE96EA6D0EC9BEBBF0AD0AB
:100BB000EAA113D0F033EF33EE33ED33002AD8B48B
:100BC00082D00BD0F0BF0CD0D890ED37EE37EF3796
:100BD000F0370006D8B477D0F5D7EC8F28D0EC9F4B
:100BE000E7C0EBF0E7AF02D0F08F66D0F09F64D0A3
:100BF000E7C0F0F0F08FE8C0EFF0E9C0EEF0EBAF47
:100C000004D0F09FEC8564D0EC95ED6BEA91EA6A34
:100C1000E50EE96E70D0EBBF1CD0E3C0EBF0EAA1AB
:100C200006D0F033EF33EE33ED33002A4CE0EDAF76
:100C30000BD0EE2B09E1EF2B07E1F02B05E1F033B0
:100C4000EF33EE33002A3FE0ECBD86D7ECBFC7D7C9
:100C50001CD0800EF01BF0AF04D03AD0E7C0EBF010
:100C60000AD0E3C0EBF0F05306E1EF5304E1EE539A
:100C700002E1006A21D0F0BF08D0D890ED37EE37FE
:100C8000EF37F037002EF7D71ED0EBAF02D0F08F42
:100C900013D0F09F11D0E6C000F0E7C0F0F0E8C03C
:100CA000EFF0E9C0EEF008D0E2C000F0E3C0F0F0F1
:100CB000E4C0EFF0E5C0EEF0F0C001F0EFC002F0EC
:100CC000EEC003F034D0006A016A026A036A2FD0D2
:100CD000ED6BEE1FEF1FF01FED1FED2B05E1EE2B6F
:100CE00003E1EF2B01E1F02BECB115D7ECB356D7B4
:100CF000ECB58AD7B3D7EF50EE2705E3EF2B03E12E
:100D0000F02BD8B4EA81ED52EF50EF2703E3F02B3C
:100D1000D8B4EA81ED52EF50EFBE01D0800AF0273F
:100D2000D8B0EA81ECB9FED6ECBB3FD774D7000C43
:100D3000E3C0EAF0E751EA1BEAAF05D0D894D890B7
:100D4000E3BFD8802FD0E3C0EAF0E6C0EBF0E25179
:100D5000EB5F06E0EAAF26D0D850010AD86E22D069
:100D6000E7C0EBF0E351EB5F06E0EAAF1BD0D850F1
:100D7000010AD86E17D0E8C0EBF0E451EB5F06E053
:100D8000EAAF10D0D850010AD86E0CD0E9C0EBF011
:100D9000E551EB5F06E0EAAF05D0D850010AD86E06
:100DA00001D0D890000CE46B32C0E3F0A8DC03C0A3
:100DB000E5F002C0E4F001C0E3F000C0E2F0E96B4E
:100DC000E86B200EE76F820EE66FD0DD03C0D0F037
:100DD00002C0CFF001C0CEF000C0CDF0E46B31C056
:100DE000E3F08DDCD89203C0E5F002C0E4F001C06E
:100DF000E3F000C0E2F0D0C0E9F0CFC0E8F0CEC030
:100E0000E7F0CDC0E6F05FDE03C0ACF002C0ABF0AF
:100E100001C0AAF000C0A9F0E46B34C0E3F06FDCBD
:100E200003C0E5F002C0E4F001C0E3F000C0E2F06E
:100E3000E96BE86B200EE76F820EE66F97DD03C06B
:100E4000D0F002C0CFF001C0CEF000C0CDF0E46B16
:100E500033C0E3F054DCD89203C0E5F002C0E4F004
:100E600001C0E3F000C0E2F0D0C0E9F0CFC0E8F08C
:100E7000CEC0E7F0CDC0E6F026DE03C0B4F002C07D
:100E8000B3F001C0B2F000C0B1F0E46B30C0E3F0E9
:100E900036DC03C0E5F002C0E4F001C0E3F000C0BE
:100EA000E2F0E96BE86B480EE76F850EE66F5EDDFA
:100EB00003C0D0F002C0CFF001C0CEF000C0CDF032
:100EC000E46B2FC0E3F01BDCD89203C0E5F002C056
:100ED000E4F001C0E3F000C0E2F0D0C0E9F0CFC020
:100EE000E8F0CEC0E7F0CDC0E6F0EDDD03C0C8F01D
:100EF00002C0C7F001C0C6F000C0C5F026500A0805
:100F00001CE20A0E266E050EA96E0A0EA86EA69C9D
:100F1000A69EA684F250006EF29E0F01550EA76E9B
:100F2000AA0EA76EA682A6B2FED7A6940050F21211
:100F30001E0E0001F06F86EC02F02C5064081CE2DB
:100F4000640E2C6E060EA96E640EA86EA69CA69E5C
:100F5000A684F250006EF29E0F01550EA76EAA0EE7
:100F6000A76EA682A6B2FED7A6940050F2121E0E5D
:100F70000001F06F86EC02F0405012083DE2FF0ADB
:100F800003E13F50880838E2010E406EF40E3F6ED8
:100F9000080EA96EF40EA86EA69CA69EA684F2501A
:100FA000006EF29E0F01550EA76EAA0EA76EA682C6
:100FB000A6B2FED7A6940050F2121E0E0001F06FEA
:100FC00086EC02F0090EA96E010EA86EA69CA69EE4
:100FD000A684F250006EF29E0F01550EA76EAA0E67
:100FE000A76EA682A6B2FED7A6940050F2121E0EDD
:100FF0000001F06F86EC02F02350960801E2236AAC
:1010000022503B0801E2226A21503B0801E2216A9A
:10101000E56BE46B200EE36F820EE26FC8C0E9F06F
:10102000C7C0E8F0C6C0E7F0C5C0E6F081DE08E35F
:101030000A0EC86FD70EC76F230EC66F7D0EC56F21
:10104000E56BE46B7A0EE36F860EE26FA8C0E9F001
:10105000A7C0E8F0A6C0E7F0A5C0E6F069DE06E3A9
:10106000A86BA76B700EA66F840EA56FE56BE46B83
:101070007A0EE36F860EE26FB0C0E9F0AFC0E8F021
:10108000AEC0E7F0ADC0E6F053DE06E3B06BAF6B89
:101090004E0EAE6F850EAD6FE56BE46B200EE36F09
:1010A000820EE26FACC0E9F0ABC0E8F0AAC0E7F096
:1010B000A9C0E6F03DDE05E3AC6BAB6BAA6B810E1D
:1010C000A96FE56BE46B600EE36F820EE26FB4C054
:1010D000E9F0B3C0E8F0B2C0E7F0B1C0E6F028DE56
:1010E00006E3B46BB36B600EB26F810EB16F285024
:1010F000140802E2140E286E90EF0EF00900F5526B
:101100000DE0F6CFDCF0F7CFDDF0F5CFEAF034EC10
:1011100003F0DCC0F6FFDDC0F7FFF0D7000CDA2DDE
:101120000BD0020EEB6FDBC0ECF003EC03F00C0E07
:10113000F66E010EF76EE2DFDA5102080BE1020EE5
:10114000EB6FDBC0ECF003EC03F0200EF66E010E4B
:10115000F76ED4DFDA5103080BE1020EEB6FDBC050
:10116000ECF003EC03F0340EF66E010EF76EC6DF02
:10117000DA5104080BE1020EEB6FDBC0ECF003EC7C
:1011800003F0480EF66E010EF76EB8DFDA5105086F
:101190000BE1020EEB6FDBC0ECF003EC03F05C0E36
:1011A000F66E010EF76EAADFDA5106080BE1020EA9
:1011B000EB6FDBC0ECF003EC03F0700EF66E010E8B
:1011C000F76E9CDF000C0900F6CFDEF0F7CFDFF002
:1011D000F5CFEAF034EC03F0DEC0F6FFDFC0F7FF36
:1011E000DD2FF1D7000CEA51D8B471D0006EEE516A
:1011F000D8B46DD0002604E3810E002668E204D046
:101200007F0E005E64E363E0EBC0F2F0EF51F21B8F
:10121000EB8FEF8FED51F103F4CFF4F0EC51F003CD
:10122000F4CF03F0F3CFF3F0F103F350F427F450CD
:10123000F323000E0322ED51F003F350F427F45092
:10124000F323000E026A03220222EB51F103F35052
:10125000F327F4500322000E0222EB51F003F35067
:101260000326F4500222000E016A0122ED51EF0321
:10127000F350F327F4500322000E02220122EC5116
:10128000EF03F3500326F4500222000E0122EB512B
:10129000EF03F3500226F4500122002A01BE05D0CC
:1012A000F3370336023601360006000EF3AF0AD0DC
:1012B000032A02220122015005E1025003E10350FA
:1012C00001E1002AF2BF018EF2AF019E04D0006A54
:1012D000016A026A036A000CEA51B608EA6F036AFF
:1012E000EBC0EEF0EB8FD890EB33EC33ED33033201
:1012F000023201320032EA2FF6D7EEAF0BD0001ED9
:10130000011E021E031E002AD8B4012AD8B4022AE4
:10131000D8B4032AF0EF09F0006A016A026A036A8E
:10132000F26BF36BF46BF56BF151F011EF11EE1101
:101330002CE0200EF66FD890EA37EB37EC37ED371C
:10134000F237F337F437F537F151F55D08E1F05135
:10135000F45D05E1EF51F35D02E1EE51F25D0FE363
:10136000EE51F25FEF51D8A0EF3DF35FF051D8A0FE
:10137000F03DF45FF151D8A0F13DF55FD880003623
:10138000013602360336F62FD6D7EA6AF20EE96E38
:10139000000CE950E26FE151E46F19E0E0C0EDF0BC
:1013A000DFC0ECF0DEC0EBF0DDC0EAF0F16BF06B1B
:1013B000200EEF6F820EEE6F16DF03C0E0F002C06A
:1013C000DFF001C0DEF000C0DDF0E42FE7D7E0C0C1
:1013D000EDF0DFC0ECF0DEC0EBF0DDC0EAF07CD772
:1013E00003C0E0F002C0DFF001C0DEF000C0DDF0BD
:1013F000E0AF0DD0E207E28BDD1FDE1FDF1FE01F35
:10140000DD2BD8B4DE2BD8B4DF2BD8B4E02B3B0EC9
:10141000E96F9A0EE86FCA0EE76FE66B0A0EE46F8B
:10142000E151D8B4E22BE0C0EDF0DFC0ECF0DEC05B
:10143000EBF0DDC0EAF0E9C0F1F0E8C0F0F0E7C0A1
:10144000EFF0E6C0EEF068DF0150EFCFDDF0ECCF5B
:10145000DEF0ECCFDFF0ECCFE0F000520FE1E1295D
:10146000E45D0CE0E2510CE00F0BE45D01E03BE2D7
:10147000E2BF39D0E2BD04D0200E30D0200EE217FA
:10148000E2AB0DD0E29BE151D8A4E2070050E26F3D
:101490002D0EEA6F34EC03F0E251006EE26BE15185
:1014A000E45D0BE10050E26F2E0EEA6F34EC03F0C6
:1014B000E251006E200EE217000E300EE2AB0ED0AD
:1014C000E29BE151D8A4E2070050E26F2D0EEA6FD3
:1014D00034EC03F0E251006EE26B300E002600C0E7
:1014E000EAF034EC03F0E9C0EDF0E8C0ECF0E7C05E
:1014F000EBF0E6C0EAF0F16BF06BEF6B0A0EEE6F0B
:101500000BDF03C0E9F002C0E8F001C0E7F000C063
:10151000E6F0E42F88D7000C8E0E006ED951005EE5
:10152000DAC002F0DBC001F0028E005209E0D89070
:10153000025202E1015204E002320132002EF7D7DA
:10154000DAAF05D0011E021E012AD8B4022A000C0F
:10155000E051016ADF5D03E2DFC000F00CD0006AF9
:10156000080EE16FDF370036E051005CD8B0006E46
:101570000136E12FF7D7000C0150DDC0DFF0640E1B
:10158000E06FE6DF00C0DDF00150300E07E1DEA3C2
:101590000DD0DEB70BD0DEB9200E03D0DE97DE997A
:1015A000DE81012601C0EAF034EC03F0DDC0DFF09B
:1015B0000A0EE06FCDDF00C0DDF00150300E06E115
:1015C000DEB709D0DEA107D0DEB9200E012601C0AA
:1015D000EAF034EC03F0300EDD27DDC0EAF034EC45
:1015E00003F0000CDE35006E0036FC0E001600C065
:1015F00001F0C250C30B0010C26E0A0EF06F86ECF1
:1016000002F0C282C2B2FED7C450E46BE36F7FEC3B
:1016100003F003C0E2F002C0E1F001C0E0F000C05E
:10162000DFF0DFC000F0E0C001F0E1C002F0E2C096
:1016300003F0000C0C0EEA6F34EC03F0010EEB6FBC
:10164000020EEC6F03EC03F0B40EF66E000EF76EB4
:1016500055DD010EEB6F040EEC6F03EC03F0CA0EC8
:10166000F66E000EF76E4ADD010EEB6F030EEC6FA7
:1016700003EC03F0E00EF66E000EF76E3FDD010E98
:10168000EB6FEC6F03EC03F0F60EF66E000EF76EE8
:1016900035DD080ED96FFA0EF06F86EC02F0D92F07
:1016A000FAD70C0EEA6F34EC03F0000CEACFE1F04D
:1016B000E9CFE0F0DA39F009DC6FDC27E20FDD6F0B
:1016C000320FDF6FDA510F0BDD27DD27DF27E90F40
:1016D000DE6FDE27DE27D9390F0BDE27DF27DE3767
:1016E000DF37DF1FDF37D9510F0BDF27DC37070E5E
:1016F000DB6F0A0EDE07DF27FDE3DD07DE27FDE3F4
:10170000DC07DD27FDE3DB07DC27FDE3EA6ADB0E10
:10171000E96E070EE015E09DE926DF0EE95CD8B41E
:10172000E08DEF50006E08E1E0BD06D0E0B914D0C6
:10173000E0B702D0200E03D0E087E099300E0026FB
:10174000EACFDAF0E9CFD9F000C0EAF034EC03F0E8
:10175000DAC0EAFFD9C0E9FFEE50E0ADDED7EDEF29
:1017600017F083B20AD0640EF06F86EC02F0D8EC6A
:1017700002F0640EF06F86EC02F08C829592178274
:10178000179E000C83A20AD0640EF06F86EC02F064
:10179000D8EC02F0640EF06F86EC02F08C92959219
:1017A000179217BE4FD0320EA96E21C0A8FFA69C7B
:1017B000A69EA684F250006EF29E0F01550EA76EF3
:1017C000AA0EA76EA682A6B2FED7A6940050F21269
:1017D000140E0001F06F86EC02F0330EA96E22C0E9
:1017E000A8FFA69CA69EA684F250006EF29E0F0152
:1017F000550EA76EAA0EA76EA682A6B2FED7A69415
:101800000050F212140E0001F06F86EC02F0340E5C
:10181000A96E23C0A8FFA69CA69EA684F250006EC7
:10182000F29E0F01550EA76EAA0EA76EA682A6B253
:10183000FED7A6940050F212140E0001F06F86EC51
:1018400002F0178E000CDD6BDC6BDB6BDA6BDE6B92
:10185000C9DE03C0A0F002C09FF001C09EF000C02E
:101860009DF0D882B0C0E5F0AFC0E4F0AEC0E3F0C8
:10187000ADC0E2F0A8C0E9F0A7C0E8F0A6C0E7F06C
:10188000A5C0E6F063EC05F000C0DEF001C0DFF0BB
:1018900002C0E0F003C0E1F0E56BE46BE36BE26BE8
:1018A00003C0E9F002C0E8F001C0E7F000C0E6F0D4
:1018B00098EC06F048E3D882B4C0E5F0B3C0E4F099
:1018C000B2C0E3F0B1C0E2F0ACC0E9F0ABC0E8F008
:1018D000AAC0E7F0A9C0E6F063EC05F000C0DEF0B6
:1018E00001C0DFF002C0E0F003C0E1F0D882B0C078
:1018F000E5F0AFC0E4F0AEC0E3F0ADC0E2F0A8C0E8
:10190000E9F0A7C0E8F0A6C0E7F0A5C0E6F063ECF8
:1019100005F0E1C0E5F0E0C0E4F0DFC0E3F0DEC0D8
:10192000E2F003C0E9F002C0E8F001C0E7F000C057
:10193000E6F0B6EC04F003C0C4F002C0C3F001C08E
:10194000C2F000C0C1F028500A0834E1C4C0EDF074
:10195000C3C0ECF0C2C0EBF0C1C0EAF0A0C0F1F02F
:101960009FC0F0F09EC0EFF09DC0EEF03CDC00C0E8
:10197000DEF001C0DFF002C0E0F003C0E1F0D89279
:1019800003C0E5F002C0E4F001C0E3F000C0E2F003
:10199000C8C0E9F0C7C0E8F0C6C0E7F0C5C0E6F0CF
:1019A00063EC05F003C0A4F002C0A3F001C0A2F0F4
:1019B00000C0A1F02850140834E1C4C0EDF0C3C049
:1019C000ECF0C2C0EBF0C1C0EAF0A0C0F1F09FC0E3
:1019D000F0F09EC0EFF09DC0EEF005DC00C0DEF040
:1019E00001C0DFF002C0E0F003C0E1F0D88203C024
:1019F000E5F002C0E4F001C0E3F000C0E2F0C8C0CE
:101A0000E9F0C7C0E8F0C6C0E7F0C5C0E6F063EC97
:101A100005F003C0A4F002C0A3F001C0A2F000C012
:101A2000A1F0A4C0E5F0A3C0E4F0A2C0E3F0A1C01F
:101A3000E2F0E96BE86BE76BE66B98EC06F004E329
:101A4000A46BA36BA26BA16B010ED95D245C02E0B9
:101A500001E3246A2450040DF350036A4D0FE96E2C
:101A6000000E0320EA6EA1C0EFFFA2C0ECFFA3C0EE
:101A7000ECFFA4C0ECFF242A256A010ED95D255C89
:101A800001E036E22550040DF350036A4D0FE96E74
:101A9000000E0320EA6EEFCF00F0ECCF01F0ECCFA8
:101AA00002F0ECCF03F0EACFDFF0E9CFDEF0D8921E
:101AB000DDC0E5F0DCC0E4F0DBC0E3F0DAC0E2F06A
:101AC00003C0E9F002C0E8F001C0E7F000C0E6F0B2
:101AD00063EC05F0DFC0EAFFDEC0E9FF03C0DDF024
:101AE00002C0DCF001C0DBF000C0DAF0252AC5D767
:101AF000E46BD9C0E3F07FEC03F0DDC0E5F0DCC0BF
:101B0000E4F0DBC0E3F0DAC0E2F003C0E9F002C0C9
:101B1000E8F001C0E7F000C0E6F0B6EC04F003C066
:101B2000DDF002C0DCF001C0DBF000C0DAF0DAC0AA
:101B300000F0DBC001F0DCC002F0DDC003F0FFEF1D
:101B40001BF0F86AD09E078EEA6AE96A179017922E
:101B5000179417961798179A179C179E1890189213
:101B6000189418961898189A189C196A070E1A6EE5
:101B7000020E1B6E1C6E030E1D6E020E1E6E1F6E7D
:101B8000040E206E216A226A236A246A256A060EE0
:101B9000266E010E276E0A0E286E296A2A6A030E27
:101BA0002B6E0A0E2C6E2D6A2E6A2F6A306A316AED
:101BB000326A336A346A356A3C6A3B6A3E6A3D6A15
:101BC000406A640E3F6E426A416A446A436A466AEA
:101BD000456A486A476A4A6A496A4C6A4B6AA06B16
:101BE0009F6B9E6B9D6BA46BA36BA26BA16BA86B91
:101BF000A76BA66BA56BAC6BAB6BAA6BA96BB06B41
:101C0000AF6BAE6BAD6BB46BB36BB26BB16BB86BF0
:101C1000B76BB66B810EB56FBC6BBB6BBA6BB96B38
:101C2000C06BBF6B600EBE6F810EBD6FC46BC36BAC
:101C3000C26BC16BC86BC76BC66BC56BCC6BCB6B18
:101C4000CA6BC96BD06BCF6BCE6BCD6BD46BD36BC8
:101C5000D26BD16BD86BD76BD66BD56BC150C00B29
:101C60000F09C16E070EB46E3E0E366E200E376E33
:101C70005E0E386E4D6A4E6A4F6A506A516A526AF9
:101C8000536A546A556A566A576A586A596A5A6A50
:101C90005B6A5C6A5D6A5E6A5F6A606B616B626BFD
:101CA000636B646B656B666B676B686B696B6A6BA8
:101CB0006B6B6C6B6D6B6E6B6F6B706B716B726B58
:101CC000736B746B756B766B776B786B796B7A6B08
:101CD0007B6B7C6B7D6B7E6B7F6B806B816B826BB8
:101CE000836B846B856B866B876B886B896B8A6B68
:101CF0008B6B8C6B8D6B8E6B8F6B906B916B926B18
:101D0000936B946B956B966B976B986B996B9A6BC7
:101D10009B6B9C6B63EF03F09AEF03F0D3EF06F03D
:101D2000010EEB6FEC6F03EC03F0380EF66E020E53
:101D3000F76E7EEC08F0010EEB6F020EEC6F03EC19
:101D400003F04E0EF66E020EF76E7EEC08F0010EFA
:101D5000EB6F030EEC6F03EC03F0640EF66E020EF5
:101D6000F76E7EEC08F0010EEB6F040EEC6F03ECE7
:101D700003F07A0EF66E020EF76E7EEC08F0060E99
:101D8000D96FFA0EF06F86EC02F0D92FFAD70C0E4D
:101D9000EA6F34EC03F0928480B457D0040ED96F0C
:101DA000FA0EF06F86EC02F0D92FFAD7928480B445
:101DB0004CD0320EA96EA86AA69CA69EA684F250AC
:101DC000006EF29E0F01550EA76EAA0EA76EA68298
:101DD000A6B2FED7A6940050F2120A0E0001F06FD0
:101DE00086EC02F0330EA96EA86AA69CA69EA68475
:101DF000F250006EF29E0F01550EA76EAA0EA76E4E
:101E0000A682A6B2FED7A6940050F2120A0E0001D6
:101E1000F06F86EC02F0340EA96EA86AA69CA69E0E
:101E2000A684F250006EF29E0F01550EA76EAA0E08
:101E3000A76EA682A6B2FED7A6940050F2120A0E92
:101E40000001F06F86EC02F0FF00640E196E192C91
:101E5000F9D0010EEB6FEC6F03EC03F0900EF66E11
:101E6000020EF76E7EEC08F035BE01D001D0356A67
:101E7000465203E145501E080DE217B60AD01E0671
:101E80001C06010E1C241D6E17861E0EF06F86ECBC
:101E900002F001D01796485203E147501E080DE2A8
:101EA00017BA0AD01E2A1C2A010E1C5C1D6E178A46
:101EB0001E0EF06F86EC02F001D0179A1E50205CC7
:101EC00008E2352A1EC020F0020E205C1F6E040EB0
:101ED0001C6E1F501E5C08E235061EC01FF0020E6D
:101EE0001F24206E020E1C6E1E501A5C09E21BC0DD
:101EF0001EF0020E1C6E356A1EC01FF01F24206EDD
:101F00001B501E5C0BE21AC01EF0040E1C6E1A5C05
:101F1000356E1EC020F0020E205C1F6E010E3524AF
:101F2000D96FDA6F020EDB6F8FEC08F0020E3524EA
:101F3000D96FDA6F030EDB6F8FEC08F0030E3524D8
:101F4000D96FDA6F040EDB6F8FEC08F0010EEB6FC8
:101F50001CC0ECF003EC03F036C0EAF034EC03F004
:101F60001C50020814E1010EEB6F040EEC6F03EC41
:101F700003F037C0EAF034EC03F0010EEB6F030E10
:101F8000EC6F03EC03F037C0EAF034EC03F01C50C4
:101F9000040814E1010EEB6F020EEC6F03EC03F08A
:101FA00037C0EAF034EC03F0010EEB6F030EEC6F78
:101FB00003EC03F037C0EAF034EC03F01C500308E4
:101FC00014E1010EEB6F040EEC6F03EC03F037C06D
:101FD000EAF034EC03F0010EEB6F020EEC6F03EC51
:101FE00003F037C0EAF034EC03F04A5203E1495001
:101FF0001E0814E217B811D017881EC019F0030E7E
:102000001C6E020ED96F960EF06F86EC02F0D92F7F
:10201000FAD70C0EEA6F34EC03F001D017984C524B
:1020200003E14B501E080EE2640E196E0C0EEA6FAF
:1020300034EC03F0020ED96FFA0EF06F86EC02F06A
:10204000D92FFAD719500208D8A40DD2010EEB6F80
:10205000EC6F03EC03F0A60EF66E020EF76E7EEC4C
:1020600008F0010EEB6F020EEC6F03EC03F0BC0EF8
:10207000F66E020EF76E7EEC08F0010EEB6F030EAB
:10208000EC6F03EC03F0D20EF66E020EF76E050E47
:10209000DD6FE3EC08F0010EE96EB8C0E0F0B7C008
:1020A000DFF0B6C0DEF0B5C0DDF0E16FC9EC09F0DD
:1020B000DC0EF66E020EF76E050EDD6FE3EC08F037
:1020C000B8C0E5F0B7C0E4F0B6C0E3F0B5C0E2F0E8
:1020D000E96BE86BE76B7E0EE66F98EC06F005E3C4
:1020E000B86BB76BB66B7E0EB56FE56BE46B600ECD
:1020F000E36F820EE26FB8C0E9F0B7C0E8F0B6C097
:10210000E7F0B5C0E6F098EC06F006E3B86BB76B05
:10211000600EB66F820EB56F465203E145501E0841
:1021200030E2B8C0E5F0B7C0E4F0B6C0E3F0B5C047
:10213000E2F0E96BE86B600EE76F820EE66F98ECF9
:1021400006F01FE3D892B8C0E5F0B7C0E4F0B6C01F
:10215000E3F0B5C0E2F0CD0EE96FCC0EE86F4C0EA7
:10216000E76F7B0EE66F63EC05F003C0B8F002C0CA
:10217000B7F001C0B6F000C0B5F0320EF06F86ECDB
:1021800002F0485203E147501E082FE2E56BE46B72
:10219000E36B7E0EE26FB8C0E9F0B7C0E8F0B6C0FE
:1021A000E7F0B5C0E6F098EC06F01FE3D882B8C0BF
:1021B000E5F0B7C0E4F0B6C0E3F0B5C0E2F0CD0E94
:1021C000E96FCC0EE86F4C0EE76F7B0EE66F63ECA9
:1021D00005F003C0B8F002C0B7F001C0B6F000C00F
:1021E000B5F0320EF06F86EC02F04A5204E149502D
:1021F0001E08D8B021D1D882B8C0E5F0B7C0E4F04D
:10220000B6C0E3F0B5C0E2F0BCC0E9F0BBC0E8F096
:10221000BAC0E7F0B9C0E6F063EC05F003C0C8F05F
:1022200002C0C7F001C0C6F000C0C5F0E56BE46BAA
:10223000E36BE26BC8C0E9F0C7C0E8F0C6C0E7F0E6
:10224000C5C0E6F098EC06F001E218E10A0E286E2F
:102250003C0EA96E28C0A8FFA69CA69EA684F2509C
:10226000006EF29E0F01550EA76EAA0EA76EA682F3
:10227000A6B2FED7A6940050F2120001C8C0E5F045
:10228000C7C0E4F0C6C0E3F0C5C0E2F0E96BE86B9C
:10229000E76BE66B98EC06F018E3140E286E3C0E24
:1022A000A96E28C0A8FFA69CA69EA684F250006E28
:1022B000F29E0F01550EA76EAA0EA76EA682A6B2B9
:1022C000FED7A6940050F2120001C5C000F0C6C0AF
:1022D00001F0C7C002F0C8C003F0019EC8C0C8F03A
:1022E000C7C0C7F001C0C6F0C5C0C5F0C8C0DCF0AB
:1022F000C7C0DBF0C6C0DAF0C5C0D9F08CEC0AF07C
:1023000001C02FF0E46B2FC0E3F07FEC03F0D88224
:10231000C8C0E5F0C7C0E4F0C6C0E3F0C5C0E2F055
:1023200003C0E9F002C0E8F001C0E7F000C0E6F049
:1023300063EC05F003C0D0F002C0CFF001C0CEF0D6
:1023400000C0CDF0D0C0EDF0CFC0ECF0CEC0EBF0CF
:10235000CDC0EAF0F16BF06B480EEF6F850EEE6FBB
:10236000F3EC08F003C0DCF002C0DBF001C0DAF0EF
:1023700000C0D9F08CEC0AF001C030F0140EA96E48
:102380002FC0A8FFA69CA69EA684F250006EF29EC7
:102390000F01550EA76EAA0EA76EA682A6B2FED793
:1023A000A6940050F212140E0001F06F86EC02F0B9
:1023B000150EA96E30C0A8FFA69CA69EA684F2505A
:1023C000006EF29E0F01550EA76EAA0EA76EA68292
:1023D000A6B2FED7A6940050F212C80E0001F06F0C
:1023E00086EC02F00C0EEA6F34EC03F0010EEB6F9A
:1023F000020EEC6F03EC03F0E20EF66E020EF76EC7
:102400007EEC08F0010EEB6F030EEC6F03EC03F0B3
:10241000F40EF66E020EF76E7EEC08F0020ED96F27
:10242000FA0EF06F86EC02F0D92FFAD70C0EEA6F95
:1024300034EC03F0640E196E4C5203E14B501E084D
:1024400012E2010E196E356A040ED96FFA0EF06FA2
:1024500086EC02F0D92FFAD7020E1C6E1E6E0C0EFF
:10246000EA6F34EC03F019500308D8A49BEF16F080
:10247000010EEB6FEC6F03EC03F0060EF66E030E2D
:10248000F76E7EEC08F0010EEB6F020EEC6F03ECC2
:1024900003F01C0EF66E030EF76E120EDD6FE3EC0A
:1024A00008F027C0DDF01B0EDE6FBCEC0AF0010E59
:1024B000EB6F030EEC6F03EC03F0320EF66E030EBF
:1024C000F76E050EDD6FE3EC08F0010EE96EB8C0A3
:1024D000E0F0B7C0DFF0B6C0DEF0B5C0DDF0E16F10
:1024E000C9EC09F03C0EF66E030EF76E050EDD6FBB
:1024F000E3EC08F0B8C0E5F0B7C0E4F0B6C0E3F034
:10250000B5C0E2F0E96BE86BE76B7E0EE66F98EC26
:1025100006F005E3B86BB76BB66B7E0EB56FE56B77
:10252000E46B600EE36F820EE26FB8C0E9F0B7C0F3
:10253000E8F0B6C0E7F0B5C0E6F098EC06F006E3C8
:10254000B86BB76B600EB66F820EB56F465203E183
:1025500045501E0830E2B8C0E5F0B7C0E4F0B6C0A0
:10256000E3F0B5C0E2F0E96BE86B600EE76F820E56
:10257000E66F98EC06F01FE3D892B8C0E5F0B7C05C
:10258000E4F0B6C0E3F0B5C0E2F0CD0EE96FCC0EDA
:10259000E86F4C0EE76F7B0EE66F63EC05F003C04F
:1025A000B8F002C0B7F001C0B6F000C0B5F0320E0E
:1025B000F06F86EC02F0485203E147501E082FE20C
:1025C000E56BE46BE36B7E0EE26FB8C0E9F0B7C079
:1025D000E8F0B6C0E7F0B5C0E6F098EC06F01FE30F
:1025E000D882B8C0E5F0B7C0E4F0B6C0E3F0B5C03B
:1025F000E2F0CD0EE96FCC0EE86F4C0EE76F7B0E6C
:10260000E66F63EC05F003C0B8F002C0B7F001C09C
:10261000B6F000C0B5F0320EF06F86EC02F04A5210
:1026200004E149501E08D8B005D3272C27D0DE6B13
:10263000F2EC0AF003C0A8F002C0A7F001C0A6F0B7
:1026400000C0A5F0B8C0ACF0B7C0ABF0B6C0AAF0FF
:10265000B5C0A9F0272A8C869596040ED96FFA0E7C
:10266000F06F86EC02F0D92FFAD78C969596B86B5E
:10267000B76B600EB66F810EB56FDCD227500208C3
:10268000D8A4D8D2DE6BF2EC0AF003C0B0F002C0DE
:10269000AFF001C0AEF000C0ADF0B8C0B4F0B7C04C
:1026A000B3F0B6C0B2F0B5C0B1F0ACC0DCF0ABC0B6
:1026B000DBF0AAC0DAF0A9C0D9F08CEC0AF001C0B6
:1026C00031F0E46B31C0E3F07FEC03F0D882ACC0B2
:1026D000E5F0ABC0E4F0AAC0E3F0A9C0E2F003C0AB
:1026E000E9F002C0E8F001C0E7F000C0E6F063ECFA
:1026F00005F003C0D0F002C0CFF001C0CEF000C0A2
:10270000CDF0D0C0EDF0CFC0ECF0CEC0EBF0CDC03E
:10271000EAF0F16BF06B200EEF6F820EEE6FF3ECD0
:1027200008F003C0DCF002C0DBF001C0DAF000C04A
:10273000D9F08CEC0AF001C032F0B4C0DCF0B3C0C8
:10274000DBF0B2C0DAF0B1C0D9F08CEC0AF001C015
:1027500033F0E46B33C0E3F07FEC03F0D882B4C015
:10276000E5F0B3C0E4F0B2C0E3F0B1C0E2F003C002
:10277000E9F002C0E8F001C0E7F000C0E6F063EC69
:1027800005F003C0D0F002C0CFF001C0CEF000C011
:10279000CDF0D0C0EDF0CFC0ECF0CEC0EBF0CDC0AE
:1027A000EAF0F16BF06B200EEF6F820EEE6FF3EC40
:1027B00008F003C0DCF002C0DBF001C0DAF000C0BA
:1027C000D9F08CEC0AF001C034F0A8C0DCF0A7C04E
:1027D000DBF0A6C0DAF0A5C0D9F08CEC0AF001C09D
:1027E000D9F01E0EA96ED9C0A8FFA69CA69EA684ED
:1027F000F250006EF29E0F01550EA76EAA0EA76E44
:10280000A682A6B2FED7A6940050F212140E0001C2
:10281000F06F86EC02F0B0C0DCF0AFC0DBF0AEC011
:10282000DAF0ADC0D9F08CEC0AF001C0D9F01F0E7F
:10283000A96ED9C0A8FFA69CA69EA684F250006EE1
:10284000F29E0F01550EA76EAA0EA76EA682A6B223
:10285000FED7A6940050F212140E0001F06F86EC21
:1028600002F0200EA96E31C0A8FFA69CA69EA684E9
:10287000F250006EF29E0F01550EA76EAA0EA76EC3
:10288000A682A6B2FED7A6940050F212140E000142
:10289000F06F86EC02F0210EA96E32C0A8FFA69C54
:1028A000A69EA684F250006EF29E0F01550EA76EF2
:1028B000AA0EA76EA682A6B2FED7A6940050F21268
:1028C000140E0001F06F86EC02F0220EA96E33C0E8
:1028D000A8FFA69CA69EA684F250006EF29E0F0151
:1028E000550EA76EAA0EA76EA682A6B2FED7A69414
:1028F0000050F212140E0001F06F86EC02F0230E6D
:10290000A96E34C0A8FFA69CA69EA684F250006EB5
:10291000F29E0F01550EA76EAA0EA76EA682A6B252
:10292000FED7A6940050F212140E0001F06F86EC50
:1029300002F0D882B4C0E5F0B3C0E4F0B2C0E3F076
:10294000B1C0E2F0ACC0E9F0ABC0E8F0AAC0E7F07B
:10295000A9C0E6F063EC05F0B0C0EDF0AFC0ECF05C
:10296000AEC0EBF0ADC0EAF003C0F1F002C0F0F091
:1029700001C0EFF000C0EEF0F3EC08F000C0D9F0B9
:1029800001C0DAF002C0DBF003C0DCF0D882B0C0D6
:10299000E5F0AFC0E4F0AEC0E3F0ADC0E2F0A8C037
:1029A000E9F0A7C0E8F0A6C0E7F0A5C0E6F063EC48
:1029B00005F0DCC0E5F0DBC0E4F0DAC0E3F0D9C03C
:1029C000E2F003C0E9F002C0E8F001C0E7F000C0A7
:1029D000E6F0B6EC04F0D882B4C0E5F0B3C0E4F0A1
:1029E000B2C0E3F0B1C0E2F003C0E9F002C0E8F029
:1029F00001C0E7F000C0E6F063EC05F003C0C8F0EA
:102A000002C0C7F001C0C6F000C0C5F0E56BE46BC2
:102A1000E36BE26BC8C0E9F0C7C0E8F0C6C0E7F0FE
:102A2000C5C0E6F098EC06F001E21CE10A0E286E43
:102A30003C0EA96E28C0A8FFA69CA69EA684F250B4
:102A4000006EF29E0F01550EA76EAA0EA76EA6820B
:102A5000A6B2FED7A6940050F212140E0001F06F39
:102A600086EC02F0C8C0E5F0C7C0E4F0C6C0E3F0F1
:102A7000C5C0E2F0E96BE86BE76BE66B98EC06F03B
:102A80001CE3140E286E3C0EA96E28C0A8FFA69C5D
:102A9000A69EA684F250006EF29E0F01550EA76E00
:102AA000AA0EA76EA682A6B2FED7A6940050F21276
:102AB000140E0001F06F86EC02F0C5C000F0C6C035
:102AC00001F0C7C002F0C8C003F0019EC8C0C8F042
:102AD000C7C0C7F001C0C6F0C5C0C5F0C8C0DCF0B3
:102AE000C7C0DBF0C6C0DAF0C5C0D9F08CEC0AF084
:102AF00001C02FF0E46B2FC0E3F07FEC03F0D8822D
:102B0000C8C0E5F0C7C0E4F0C6C0E3F0C5C0E2F05D
:102B100003C0E9F002C0E8F001C0E7F000C0E6F051
:102B200063EC05F003C0D0F002C0CFF001C0CEF0DE
:102B300000C0CDF0D0C0EDF0CFC0ECF0CEC0EBF0D7
:102B4000CDC0EAF0F16BF06B480EEF6F850EEE6FC3
:102B5000F3EC08F003C0DCF002C0DBF001C0DAF0F7
:102B600000C0D9F08CEC0AF001C030F08C8695964C
:102B7000140EA96E2FC0A8FFA69CA69EA684F25094
:102B8000006EF29E0F01550EA76EAA0EA76EA682CA
:102B9000A6B2FED7A6940050F212140E0001F06FF8
:102BA00086EC02F0150EA96E30C0A8FFA69CA69E6A
:102BB000A684F250006EF29E0F01550EA76EAA0E6B
:102BC000A76EA682A6B2FED7A6940050F212C80E37
:102BD0000001F06F86EC02F00C0EEA6F34EC03F0AB
:102BE000010EEB6F020EEC6F03EC03F0420EF66E7B
:102BF000030EF76E7EEC08F0010EEB6F030EEC6F28
:102C000003EC03F0540EF66E030EF76E7EEC08F044
:102C1000020ED96FFA0EF06F86EC02F0D92FFAD7B8
:102C20000C0EEA6F34EC03F0010E276E640E196E81
:102C30008C9695964C5203E14B501E087CE2010E97
:102C4000196E356AC80EF06F86EC02F0020E1C6E2B
:102C50001E6E0C0EEA6F34EC03F0010E276EF2CFFD
:102C6000D9F0F29E1E0EA96EA69CA69EA680A85024
:102C7000D9BFF28EE46BE36F7FEC03F003C0A8F0E2
:102C800002C0A7F001C0A6F000C0A5F0F2CFD9F0B5
:102C9000F29E200EA96EA69CA69EA680A850D9BF23
:102CA000F28E316EF2CFD9F0F29E210EA96EA69C63
:102CB000A69EA680A850D9BFF28E326EE46B32C0B9
:102CC000E3F07FEC03F003C0E5F002C0E4F001C0E4
:102CD000E3F000C0E2F0E96BE86B200EE76F820ED4
:102CE000E66FB6EC04F003C0D0F002C0CFF001C034
:102CF000CEF000C0CDF0E46B31C0E3F07FEC03F028
:102D0000D89203C0E5F002C0E4F001C0E3F000C0D7
:102D1000E2F0D0C0E9F0CFC0E8F0CEC0E7F0CDC01F
:102D2000E6F063EC05F003C0ACF002C0ABF001C00C
:102D3000AAF000C0A9F019500408D8A48DD0010E43
:102D4000EB6FEC6F03EC03F0660EF66E030EF76E9E
:102D50007EEC08F0010EEB6F020EEC6F03EC03F05B
:102D60007C0EF66E030EF76E7EEC08F0010EEB6F34
:102D7000030EEC6F03EC03F0920EF66E030EF76E8B
:102D8000080EDD6FE3EC08F026C0DDF0010EDE6F0B
:102D9000BCEC0AF0200EEA6F34EC03F0200EEA6F70
:102DA00034EC03F0200EEA6F34EC03F026501008E8
:102DB00002E2100E266E465203E145501E0808E25C
:102DC00026500F0805E3262A320EF06F86EC02F03B
:102DD000485203E147501E0807E2265205E0260646
:102DE000320EF06F86EC02F04A5203E149501E08A1
:102DF00033E24C5203E14B501E082EE2050EA96E41
:102E000026C0A8FFA69CA69EA684F250006EF29E45
:102E10000F01550EA76EAA0EA76EA682A6B2FED708
:102E2000A6940050F212640E0001F06F86EC02F0DE
:102E30001AEC0BF0010E196E356A020ED96FFA0EFC
:102E4000F06F86EC02F0D92FFAD7020E1C6E1E6EC0
:102E50000C0EEA6F34EC03F019500508D8A48CD09E
:102E6000010EEB6FEC6F03EC03F0A20EF66E030E97
:102E7000F76E7EEC08F0010EEB6F020EEC6F03ECC8
:102E800003F0B80EF66E030EF76E7EEC08F0010E3E
:102E9000EB6F030EEC6F03EC03F0CE0EF66E030E39
:102EA000F76E0A0EDD6FE3EC08F02CC0DDF0030EC8
:102EB000DE6FBCEC0AF0DC0EF66E030EF76E070E4A
:102EC000DD6FE3EC08F02C50640802E2640E2C6E17
:102ED0002C5202E1010E2C6E465203E145501E08B1
:102EE00005E22C2A320EF06F86EC02F0485203E124
:102EF00047501E0805E22C06320EF06F86EC02F0F9
:102F00004A5203E149501E0837E24C5203E14B504C
:102F10001E0832E2060EA96E2CC0A8FFA69CA69E33
:102F2000A684F250006EF29E0F01550EA76EAA0EF7
:102F3000A76EA682A6B2FED7A6940050F212020E89
:102F40000001D96FFA0EF06F86EC02F0D92FFAD794
:102F5000010E196E356A020ED96FFA0EF06F86EC0B
:102F600002F0D92FFAD7020E1C6E1E6E0C0EEA6FFD
:102F700034EC03F01AEC0BF019500608D8A4BDD0BD
:102F8000010EEB6FEC6F03EC03F0E40EF66E030E34
:102F9000F76E7EEC08F0010EEB6F020EEC6F03ECA7
:102FA00003F0FA0EF66E030EF76E7EEC08F0010EDB
:102FB000EB6F030EEC6F03EC03F0100EF66E040ED5
:102FC000F76E080EDD6FE3EC08F0090EE96E40C005
:102FD000DAF03FC0D9F056EF0BF01D0EF66E040E7E
:102FE000F76E050EDD6FE3EC08F04050120809E2C1
:102FF000FF0A03E13F50880804E2130E406E880E7A
:103000003F6E405206E13F50630803E3406A640E9E
:103010003F6E465203E145501E0808E20A0E3F2665
:10302000000E4022320EF06F86EC02F0485203E1AF
:1030300047501E0808E20A0E3F5E000E405A320E4C
:10304000F06F86EC02F04A5203E149501E0855E247
:103050004C5203E14B501E0850E23FC0D9F0080E1D
:10306000A96ED9C0A8FFA69CA69EA684F250006EA9
:10307000F29E0F01550EA76EAA0EA76EA682A6B2EB
:10308000FED7A6940050F212640E0001F06F86EC99
:1030900002F040C0D9F0090EA96ED9C0A8FFA69CC5
:1030A000A69EA684F250006EF29E0F01550EA76EEA
:1030B000AA0EA76EA682A6B2FED7A6940050F21260
:1030C000020E0001D96FFA0EF06F86EC02F0D92FD4
:1030D000FAD7010E196E356A020ED96FFA0EF06F2B
:1030E00086EC02F0D92FFAD7020E1C6E1E6E0C0E63
:1030F000EA6F34EC03F01AEC0BF019500708D8A46F
:1031000008D1010EEB6FEC6F03EC03F0240EF66EAA
:10311000040EF76E090EDD6FE3EC08F0010EE96EA8
:10312000BCC0E0F0BBC0DFF0BAC0DEF0B9C0DDF07B
:10313000E16FC9EC09F0200EEA6F34EC03F0010EE8
:10314000EB6F020EEC6F03EC03F0620EEA6F34ECEF
:1031500003F03A0EEA6F34EC03F0890EE96EC8C052
:10316000E0F0C7C0DFF0C6C0DEF0C5C0DDF0020E83
:10317000E16FC9EC09F0200EEA6F34EC03F0580E51
:10318000EA6F34EC03F03D0EEA6F34EC03F0010E0D
:10319000E96EA8C0E0F0A7C0DFF0A6C0DEF0A5C0D1
:1031A000DDF0E16BC9EC09F0430EF66E040EF76E2C
:1031B000040EDD6FE3EC08F0010EE96EB0C0E0F044
:1031C000AFC0DFF0AEC0DEF0ADC0DDF0E16BC9EC4A
:1031D00009F0010EEB6F030EEC6F03EC03F0590ED8
:1031E000EA6F34EC03F0300EEA6F34EC03F03D0E7E
:1031F000EA6F34EC03F0010EE96EACC0E0F0ABC056
:10320000DFF0AAC0DEF0A9C0DDF0E16FC9EC09F083
:10321000560EF66E040EF76E040EDD6FE3EC08F04A
:10322000010EE96EB4C0E0F0B3C0DFF0B2C0DEF072
:10323000B1C0DDF0E16FC9EC09F0200EEA6F34ECAB
:1032400003F028C0DDF0010EDE6FBCEC0AF0010EC9
:10325000EB6F040EEC6F03EC03F0DE6BF2EC0AF0A4
:1032600000C0D9F001C0DAF002C0DBF003C0DCF02E
:10327000660EF66E040EF76E090EDD6FE3EC08F0D5
:103280002BC0DDF0010EDE6FBCEC0AF0730EF66EA3
:10329000040EF76E050EDD6FE3EC08F0010EE96E2B
:1032A000DCC0E0F0DBC0DFF0DAC0DEF0D9C0DDF07A
:1032B000E16BC9EC09F0200EEA6F34EC03F04A52DE
:1032C00003E149501E080EE2020ED96FFA0EF06FAC
:1032D00086EC02F0D92FFAD70C0EEA6F34EC03F02B
:1032E000640E196E4C5203E14B501E0812E2010E9F
:1032F000196E356A020ED96FFA0EF06F86EC02F085
:10330000D92FFAD7020E1C6E1E6E0C0EEA6F34EC2B
:1033100003F019506408D8A455D218A2BAD0010EEF
:10332000EB6F020EEC6F03EC03F0700EEA6F34ECFF
:1033300003F0480EEA6F34EC03F03A0EEA6F34EC17
:1033400003F0010EE96EBCC0E0F0BBC0DFF0BAC014
:10335000DEF0B9C0DDF0E16FC9EC09F0010EEB6FF2
:10336000030EEC6F03EC03F0800EF66E040EF76EA6
:10337000050EDD6FE3EC08F023C0DDF0030EDE6F19
:10338000BCEC0AF03A0EEA6F34EC03F022C0DDF038
:10339000010EDE6FBCEC0AF017A20FD0010EEB6F2E
:1033A000040EEC6F03EC03F0900EF66E040EF76E55
:1033B0007EEC08F0B1EC0BF00ED0010EEB6F040EBA
:1033C000EC6F03EC03F09A0EF66E040EF76E7EECD3
:1033D00008F0C2EC0BF017A00FD00D0EEB6F040E2F
:1033E000EC6F03EC03F0A40EF66E040EF76E7EECA9
:1033F00008F08B8494940ED00D0EEB6F040EEC6FDE
:1034000003EC03F0AE0EF66E040EF76E7EEC08F0E1
:103410008B94949417A40FD00D0EEB6F020EEC6FEB
:1034200003EC03F0B80EF66E040EF76E7EEC08F0B7
:103430008C8495940ED00D0EEB6F020EEC6F03ECA6
:1034400003F0C20EF66E040EF76E7EEC08F08C945C
:10345000959418A80FD00D0EEB6F030EEC6F03ECD4
:1034600003F0CC0EF66E040EF76E7EEC08F08C883E
:1034700095980ED00D0EEB6F030EEC6F03EC03F07E
:10348000D60EF66E040EF76E7EEC08F08C989598CA
:103490001892968484B4F5D018AA05D0189A179279
:1034A0001790189817942C50235CD8A0C0D018847B
:1034B000425007080DE303E14150070809E318886B
:1034C0008C889598C2EC0BF08C9495941794AED0A0
:1034D0008C989598189840C0E4F03FC0E3F07FECDA
:1034E00003F09A0EED6F990EEC6F190EEB6F7E0ED6
:1034F000EA6F03C0F1F002C0F0F001C0EFF000C0CD
:10350000EEF0F3EC08F000C0D9F001C0DAF002C030
:10351000DBF003C0DCF044C0E4F043C0E3F07FEC38
:1035200003F0DCC0E5F0DBC0E4F0DAC0E3F0D9C0C2
:10353000E2F003C0E9F002C0E8F001C0E7F000C02B
:10354000E6F098EC06F001E205E117908B94949474
:10355000189604D017808B8494941886968084B033
:1035600007D01792C2EC0BF08C84959417845ED030
:10357000968284A25BD017948C94959418B656D0FA
:103580001894426A416A446A436A236A226A216A39
:10359000320EA96E21C0A8FFA69CA69EA684F2505A
:1035A000006EF29E0F01550EA76EAA0EA76EA682A0
:1035B000A6B2FED7A6940050F212140E0001F06FCE
:1035C00086EC02F0330EA96E22C0A8FFA69CA69E30
:1035D000A684F250006EF29E0F01550EA76EAA0E41
:1035E000A76EA682A6B2FED7A6940050F212140EC1
:1035F0000001F06F86EC02F0340EA96E23C0A8FF24
:10360000A69CA69EA684F250006EF29E0F01550E57
:10361000A76EAA0EA76EA682A6B2FED7A6940050E9
:10362000F212140E0001F06F86EC02F029D04A521B
:1036300003E149501E0805E217B602D01774178639
:1036400001D01796485203E147501E0809E217B807
:1036500006D0177217881E0EF06F86EC02F001D0AC
:1036600017984C5203E14B501E0809E217BA06D0D6
:103670001770178A1E0EF06F86EC02F001D0179AB1
:1036800012D0189418964250070806E303E14150FF
:10369000070802E3426A416A189817908C98959837
:1036A0008B949494188A968084B018D01792C2ECA8
:1036B0000BF0010EEB6FEC6F03EC03F0E00EF66E17
:1036C000040EF76E7EEC08F0968484A403D08C84FC
:1036D0009594178418903C6A3B6A3DD0010EEB6FBD
:1036E000EC6F03EC03F0F60EF66E040EF76E0F0EA1
:1036F000DD6FE3EC08F02CC0DDF0030EDE6FBCECF8
:103700000AF0200EEA6F34EC03F0680EEA6F34EC36
:1037100003F08C9695963C5203E13B5003081AE265
:103720001890968484A403D0B1EC0BF01782968293
:1037300084A20CD03E5203E13D50030805E2189CE0
:1037400017948C94959401D0188C03D0189C3E6AE1
:103750003D6A01D01880928480B434D0640EF06F3A
:1037600086EC02F0928480B42DD0080ED96FFA0E48
:10377000F06F86EC02F0D92FFAD7928480B41AD079
:103780000C0EEA6F34EC03F01E0EF06F86EC02F0C4
:10379000010E196E356A020E1C6E1E6E1786640EBF
:1037A000F06F86EC02F0D8EC02F0640EF06F86EC5D
:1037B00002F008D0968484B405D01878640EF06FB7
:1037C00086EC02F029501D080BE2640EF06F86ECC7
:1037D00002F0D8EC02F0640EF06F86EC02F0296A79
:1037E0002A500A0801E22A6A17AC12D0968084B0E7
:1037F00002D095968C7626C0D9F023EF0CF003C04A
:10380000BCF002C0BBF001C0BAF000C0B9F0179C18
:0638100027EF0FF003009A
:020000040030CA
:0E00000020C2181E000781000FC00FE00F4045
:00000001FF
;PIC18F4550
;CRC=AEC0  CREATED="01-mar.-21 14:19"
