:0400000048EF0BF0CA
:08000800046ED8CF05F0E0CF33
:1000100006F00001E9CF0CF0EACF07F0E1CF08F0DD
:10002000E2CF09F0D9CF0AF0DACF0BF0F3CF12F01C
:10003000F4CF13F0FACF14F000C00EF001C00FF0AF
:1000400002C010F003C011F09DA02AEF00F09EB096
:100050005AEF00F00EC000F00FC001F010C002F027
:1000600011C003F00CC0E9FF07C0EAFF078E08C00B
:10007000E1FF09C0E2FF0AC0D9FF0BC0DAFF12C0DE
:10008000F3FF13C0F4FF14C0FAFF045006C0E0FFF2
:1000900005C0D8FF1000F2CF0DF0F29EF76AB00F46
:1000A000F66E000EF7220900F5500DBEF28E12001A
:1000B000280C0106150ECF6EA00ECE6E442AD8B4C1
:1000C000452A455203E14450C70818E2456A446A8C
:1000D000178E2B2A2C2A188418A203D0462AD8B4AB
:1000E000472A17A20BD0222A22503C0802E1226A9A
:1000F000232A23503C0802E1236A242A9E902AEFF7
:1001000000F043616C2E20756E2050756E746F2068
:1001100020202020200043616C2E20646F7320502B
:10012000756E746F73202020200043616D62696FCB
:1001300020436F6E7472617365F1612020004D651C
:10014000646961204D6F76696C202020202020207A
:10015000200042616E6461204D75657274612020DB
:10016000202020202000536574706F696E74202059
:10017000202020202020202020004D616E74656EFC
:10018000696D69656E746F2020202020200020207A
:100190002020205343525542424552202020202007
:1001A000202000002020202020202020202020208F
:1001B00020202020202020200000202020204A5025
:1001C00020494E474C4F42414C2020202020000027
:1001D00020205245463A4A504F5053434242303213
:1001E000202020002020202020496E677265736542
:1001F0002020202020202020000020202020436FCD
:100200006E7472617365F16120202020202000004F
:1002100020202020434C4156453D2569256925690C
:1002200025692020000020202020202020202020C0
:1002300020202020202020202000202020202043BB
:100240006F6E7472617365F16120202020002020A0
:1002500020202020436F727265637461202020206B
:1002600020002020202020202020202020202020AE
:100270002020202020002020202020436F6E747238
:10028000617365F16120202020002020202020497A
:100290006E636F72726563746120202020002020DD
:1002A000202020202020202020202020202020204E
:1002B00020002D2D2D4D454E55205052494E43497D
:1002C00050414C2D2D2D000043616C6962726163B9
:1002D000696F6E20756E2050756E746F0000204936
:1002E0006E67726573652076616C6F72202070484E
:1002F00020200000202020202025322E3166207072
:100300004820200020202043616C6962726163698B
:100310006F6E202020002020202020457869746FF7
:10032000736120202020200043616C696272616348
:10033000696F6E20646F732050756E740000496E93
:1003400067726573652076616C6F7220207048203B
:1003500025750000202020202025322E31662070B7
:1003600048202000202020416A757374616E646FFC
:100370002020202020002020202050756E746F2027
:10038000312020202020200020202043616C696241
:10039000726163696F6E202020002020202020459C
:1003A0007869746F73612020202020002020202095
:1003B0002020496E67726573652020202020202050
:1003C000000020436F6E7472617365F161204163B8
:1003D0007475616C2020000020202020434C415681
:1003E000453D2569256925692569202000002020D3
:1003F00020202020202020202020202020202020FD
:10040000202000002020202020436F6E7472617332
:1004100065F16120202020200000202020202020C5
:10042000436F7272656374612020202020200000D9
:1004300020202020202020202020202020202020BC
:1004400020202020000020202020202020202020EC
:1004500020202020202020202020000020202020DC
:1004600020436F6E7472617365F16120202020203B
:1004700000002020202020496E636F727265637433
:10048000612020202020000020202020202020206B
:10049000202020202020202020202020000020209C
:1004A000202020496E67726573652020202020205F
:1004B000202000002020436F6E7472617365F1612B
:1004C000204E756576612020000020202020434CBE
:1004D0004156453D2569256925692569202000008B
:1004E000202020202020202020202020202020200C
:1004F0002020202000002020202020436F6E7472D6
:10050000617365F161202020202000002020202040
:1005100020416C6D6163656E616461202020202044
:10052000000020202020202020202020202020200B
:100530002020202020200000202020204D656469FC
:10054000612020204D6F76696C2020202000202023
:100550002020496E67726573652076616C6F72202A
:10056000202020002020202020202020253032752F
:10057000202020002020202042616E6461204D75E3
:100580006572746120202020200020202020496EE8
:1005900067726573652076616C6F72202020200081
:1005A0002020202020202B2F2D25322E31662020A8
:1005B000200020202020536574506F696E74202025
:1005C000704820202020200020202020496E6772C3
:1005D0006573652076616C6F7220202020002020DA
:1005E0002020202025322E31662020704820000057
:1005F0004D544F2E202070483A25322E316620006F
:10060000623A25322E326620583D25322E30662041
:1006100058313D25322E3066000059303D25322EAE
:1006200031662059313D25322E3166202530327514
:100630000000542E2050756C736F3D2530327520AC
:100640004144433A25322E306620000054696D65DE
:100650003A20253033753A253032752028483A4DF6
:100660002900424F4D42413A4F4E2000424F4D42E9
:10067000413A4F464600424153453A4F4E20000012
:10068000424153453A4F46460000414755413A4F93
:100690004E200000414755413A4F46460000214E4A
:1006A0004956454C20444520414755412042414A46
:1006B0004F2100004A502053435255424245522098
:1006C00020202020202020200000EA6AEB0EE96E86
:1006D000EF500EE00F0E016E006A002EFED7012EC5
:1006E000FBD78F0E006E002EFED70000EF2EF2D744
:1006F000000CEC39F00B006E0F0E81140010816EAF
:10070000080E006E002EFED78186DB0E006E002ED6
:10071000FED700D08196000C8192010EEB6FD5DFE1
:10072000E9A18192E9B18182080E006E002EFED708
:100730008194080E006E002EFED78196EA39EB6F89
:100740000F0EEB17EBC0ECF0D4DFEA510F0BEB6FA1
:10075000EC6FCFDF000C000E936E81928194819636
:100760000F0EEB6FB2DF010ED46FD451030808E314
:10077000030EEC6FBEDF050EEB6FA7DFD42BF5D7B2
:10078000020EEC6FB6DFD46BD45103080EE3036A9C
:10079000D451F2CFD5F0F29E7EDCD5BFF28ED56F6C
:1007A000E96BEA6FB9DFD42BEFD7000C8E0E006E29
:1007B000DFC001F0DEC002F0036A015209E102C0AD
:1007C00001F0026A080E005E015202E1006A08D0E0
:1007D000D89001BE04D0023601360006F9D7019E3A
:1007E000000CD935006E0036FC0E001600C001F07A
:1007F000C250C30B0010C26E0A0EEB6F66DFC282DE
:10080000C2B2FED7C450DF6BDE6FD0DF03C0DDF0B5
:1008100002C0DCF001C0DBF000C0DAF0DAC000F0AA
:10082000DBC001F0DCC002F0DDC003F0000C010E03
:10083000E75DFC0F0FE2040F32EF04F0800EE86F6B
:1008400009D0C00EE86F06D0940EE86F03D0D40E26
:10085000E86F00D0010EE65DE827E96BE8C0EAF03A
:100860005BDF000CF2CF0DF0F29EE824F76AF7365A
:10087000890FF66E080EF7220A00F550FA6E08008E
:10088000F5500DBEF28EF96E3C08420848084E083D
:10089000E551F10802E1EE0EE56FE551D10802E104
:1008A000FF0EE56FE5510C0A05E0060A0DE0020AAD
:1008B00012E016D0E96B010EEA6F2EDF010E166E04
:1008C000020EEB6F02DF12D0162A010EE66F16C081
:1008D000E7F0ADDF0BD0E96B100EEA6F1DDF06D03D
:1008E000010EE96FE5C0EAF017DF00D0000C090047
:1008F000F5520CE0F6CFD7F0F7CFD8F0F5CFE5F012
:10090000C7DFD7C0F6FFD8C0F7FFF1D7000CDD5125
:10091000D8B4A5D0E96FE151D8B4A1D0E95F05E31F
:100920007F0EE927D8B09BD006D0810EE95FD8A012
:1009300096D0D8B494D0E9C000F0016A026A036A84
:10094000E86BDEC0E7F0E78FDFC0E6F0E0C0E5F07F
:10095000190EE96FE451E55F0DE2010EE65F0AE270
:10096000E75F08E2E85F06E2E82BE72BE62BE451BD
:10097000E52728D0E351E65F12E2010EE75F0FE2C0
:10098000E85F0DE2E82BE72BE351E627E451E5278A
:1009900019E3E62B17E1E72B15E1E82B13D0E25121
:1009A0008009E75F0EE2010EE85F0BE2E82BE251FF
:1009B0008009E727E351E627E9E3E72BE7E1E82BA6
:1009C000E5D70380E92F01D00BD0D890E537E63783
:1009D000E737E837D890033602360136EA37BAD718
:1009E000EAA106D0D890013202320332EA3302D0B3
:1009F000000635E0EABF1ED0D890E537E637E73786
:100A0000E837E451E55F07E2010EE65F04E2E75FE5
:100A100002E2E85F1AE3E351E65F05E2010EE75FF9
:100A200002E2E85F12E3E2518009E75F03E2010EB0
:100A3000E85F0BE3032A09E1022A07E1012A05E145
:100A4000002A0DE0013202320332DEC0E9F0E25149
:100A5000E91BE9AF02D0018E06D0019E04D0006AE6
:100A6000016A026A036A000C800ED8B2E21BE76BCF
:100A7000E86BDEC0E6F0E251E61BDD51D8B4DCD015
:100A8000E56F006EE151D8B4E0D0E55FD8B481D015
:100A90003DE3E2C0EBF0EB8FE3C0EAF0E4C0E9F045
:100AA000E86BD890EB33EA33E933E833E52FF8D736
:100AB000E6AF03D0E781DDD0E791E591E789EA6A07
:100AC000E00EE96EE9D0E799E6BF0AD0E5A113D0C0
:100AD000EB33EA33E933E833002AD8B4C5D00BD07E
:100AE000EBBF0CD0D890E837E937EA37EB37000690
:100AF000D8B4BAD0F5D7E78D6BD0E79DDEC0E6F06D
:100B0000DEAF02D0EB8FA9D0EB9FA7D0E1C0E5F01C
:100B1000E1C000F0DD51E55FDEC0EBF0EB8FDFC040
:100B2000EAF0E0C0E9F0E86BD890EB33EA33E93360
:100B3000E833E52FF8D7E6AF03D0E7839AD0E79301
:100B4000E591E78BEA6AE40EE96EA6D0E79BE6BF83
:100B50000AD0E5A113D0EB33EA33E933E833002AB6
:100B6000D8B482D00BD0EBBF0CD0D890E837E9379F
:100B7000EA37EB370006D8B477D0F5D7E78F28D01F
:100B8000E79FE2C0E6F0E2AF02D0EB8F66D0EB9FCA
:100B900064D0E2C0EBF0EB8FE3C0EAF0E4C0E9F030
:100BA000E6AF04D0EB9FE78564D0E795E86BE5916D
:100BB000EA6AE00EE96E70D0E6BF1CD0DEC0E6F057
:100BC000E5A106D0EB33EA33E933E833002A4CE001
:100BD000E8AF0BD0E92B09E1EA2B07E1EB2B05E1AC
:100BE000EB33EA33E933002A3FE0E7BD86D7E7BFBE
:100BF000C7D71CD0800EEB1BEBAF04D03AD0E2C0BD
:100C0000E6F00AD0DEC0E6F0EB5306E1EA5304E179
:100C1000E95302E1006A21D0EBBF08D0D890E83751
:100C2000E937EA37EB37002EF7D71ED0E6AF02D010
:100C3000EB8F13D0EB9F11D0E1C000F0E2C0EBF0DE
:100C4000E3C0EAF0E4C0E9F008D0DDC000F0DEC0A7
:100C5000EBF0DFC0EAF0E0C0E9F0EBC001F0EAC081
:100C600002F0E9C003F034D0006A016A026A036A44
:100C70002FD0E86BE91FEA1FEB1FE81FE82B05E107
:100C8000E92B03E1EA2B01E1EB2BE7B115D7E7B341
:100C900056D7E7B58AD7B3D7EF50E92705E3EA2B54
:100CA00003E1EB2BD8B4E581ED52EF50EA2703E3E3
:100CB000EB2BD8B4E581ED52EF50EFBE01D0800AA6
:100CC000EB27D8B0E581E7B9FED6E7BB3FD774D7AD
:100CD000000CDAC0E1F0DE51E11BE1AF05D0D894A1
:100CE000D890DABFD8802FD0DAC0E1F0DDC0E2F0D2
:100CF000D951E25F06E0E1AF26D0D850010AD86EA4
:100D000022D0DEC0E2F0DA51E25F06E0E1AF1BD0B4
:100D1000D850010AD86E17D0DFC0E2F0DB51E25F95
:100D200006E0E1AF10D0D850010AD86E0CD0E0C078
:100D3000E2F0DC51E25F06E0E1AF05D0D850010AF5
:100D4000D86E01D0D890000C0900F6CFD9F0F7CFBB
:100D5000DAF0F5CFE5F09CDDD9C0F6FFDAC0F7FF99
:100D6000D82FF2D7000CDB51016ADA5D03E2DAC05A
:100D700000F00CD0006A080EDC6FDA370036DB5169
:100D8000005CD8B0006E0136DC2FF7D7000C200EC7
:100D9000D5A9300ED66FD4C000F0D4AF07D0001E56
:100DA000002A00C0D4F02D0ED66FD58F0150D4C0CC
:100DB000DAF0640EDB6FD7DF00C0D4F0300E012410
:100DC000D76FD4C0DAF00A0EDB6FCDDF300E00240F
:100DD000D96F300E0124D86FD6C000F0D5A702D04D
:100DE000D5AFD595D5B90BD0D5AF22D0D5B520D0BC
:100DF00000C0D7F0D5B31CD000C0D8F019D0300E49
:100E0000D75D16E100C0D7F0200ED66FD5A704D06D
:100E1000D595D583D5AFD593300ED85D09E100C007
:100E2000D8F0200ED76FD5A7F7D7D593D5AFD591EA
:100E3000D5A503D0D6C0E5F02BDDD5A303D0D7C010
:100E4000E5F026DDD5A103D0D8C0E5F021DDD9C07D
:100E5000E5F01EDD000CD52D0AD0020EE66FD6C0DF
:100E6000E7F0E5DC020EF66E010EF76E40DDD551BF
:100E700002080AE1020EE66FD6C0E7F0D8DC160ED3
:100E8000F66E010EF76E33DDD55103080AE1020E4E
:100E9000E66FD6C0E7F0CBDC2A0EF66E010EF76ED9
:100EA00026DDD55104080AE1020EE66FD6C0E7F050
:100EB000BEDC3E0EF66E010EF76E19DDD55105084B
:100EC0000AE1020EE66FD6C0E7F0B1DC520EF66E14
:100ED000010EF76E0CDDD55106080AE1020EE66F31
:100EE000D6C0E7F0A4DC660EF66E010EF76EFFDCEE
:100EF000D55107080AE1020EE66FD6C0E7F097DC8D
:100F00007A0EF66E010EF76EF2DC000CE551D8B4E5
:100F100071D0006EE951D8B46DD0002604E3810E83
:100F2000002668E204D07F0E005E64E363E0E6C062
:100F3000EDF0EA51ED1BE68FEA8FE851EC03F4CFB8
:100F4000EFF0E751EB03F4CF03F0F3CFEEF0EC0357
:100F5000F350EF27F450EE23000E0322E851EB0389
:100F6000F350EF27F450EE23000E026A0322022210
:100F7000E651EC03F350EE27F4500322000E022258
:100F8000E651EB03F3500326F4500222000E016AEF
:100F90000122E851EA03F350EE27F4500322000E39
:100FA00002220122E751EA03F3500326F450022201
:100FB000000E0122E651EA03F3500226F45001220A
:100FC000002A01BE05D0EE37033602360136000690
:100FD000000EEEAF0AD0032A02220122015005E1E1
:100FE000025003E1035001E1002AEDBF018EEDAF95
:100FF000019E04D0006A016A026A036A000CE5518E
:10100000B608E56F036AE6C0E9F0E68FD890E633EC
:10101000E733E8330332023201320032E52FF6D7EC
:10102000E9AF0BD0001E011E021E031E002AD8B419
:10103000012AD8B4022AD8B4032A83EF08F0006A40
:10104000016A026A036AED6BEE6BEF6BF06BEC51B9
:10105000EB11EA11E9112CE0200EF16FD890E53781
:10106000E637E737E837ED37EE37EF37F037EC5153
:10107000F05D08E1EB51EF5D05E1EA51EE5D02E163
:10108000E951ED5D0FE3E951ED5FEA51D8A0EA3D8A
:10109000EE5FEB51D8A0EB3DEF5FEC51D8A0EC3DFB
:1010A000F05FD8800036013602360336F12FD6D7EE
:1010B000EA6AED0EE96E000CE950DD6FDC51DF6F7E
:1010C00019E0DBC0E8F0DAC0E7F0D9C0E6F0D8C03C
:1010D000E5F0EC6BEB6B200EEA6F820EE96F16DF2A
:1010E00003C0DBF002C0DAF001C0D9F000C0D8F0D4
:1010F000DF2FE7D7DBC0E8F0DAC0E7F0D9C0E6F0D1
:10110000D8C0E5F07CD703C0DBF002C0DAF001C044
:10111000D9F000C0D8F0DBAF0DD0DD07DD8BD81FD4
:10112000D91FDA1FDB1FD82BD8B4D92BD8B4DA2BB0
:10113000D8B4DB2B3B0EE46F9A0EE36FCA0EE26F5E
:10114000E16B0A0EDF6FDC51D8B4DD2BDBC0E8F0B9
:10115000DAC0E7F0D9C0E6F0D8C0E5F0E4C0ECF0C2
:10116000E3C0EBF0E2C0EAF0E1C0E9F068DF015073
:10117000EFCFD8F0ECCFD9F0ECCFDAF0ECCFDBF05A
:1011800000520FE1DC29DF5D0CE0DD510CE00F0BBC
:10119000DF5D01E03BE2DDBF39D0DDBD04D0200ED4
:1011A00030D0200EDD17DDAB0DD0DD9BDC51D8A497
:1011B000DD070050DD6F2D0EE56F48EC04F0DD51CA
:1011C000006EDD6BDC51DF5D0BE10050DD6F2E0E3C
:1011D000E56F48EC04F0DD51006E200EDD17000EC7
:1011E000300EDDAB0ED0DD9BDC51D8A4DD07005006
:1011F000DD6F2D0EE56F48EC04F0DD51006EDD6B08
:10120000300E002600C0E5F048EC04F0E4C0E8F041
:10121000E3C0E7F0E2C0E6F0E1C0E5F0EC6BEB6BB9
:10122000EA6B0A0EE96F0BDF03C0E4F002C0E3F0E3
:1012300001C0E2F000C0E1F0DF2F88D7000C8E0E75
:10124000006ED451005ED5C002F0D6C001F0028E0F
:10125000005209E0D890025202E1015204E0023249
:101260000132002EF7D7D5AF05D0011E021E012A8C
:10127000D8B4022A000C0150D8C0DAF0640EDB6F3B
:1012800072DD00C0D8F00150300E07E1D9A30DD0B7
:10129000D9B70BD0D9B9200E03D0D997D999D98114
:1012A000012601C0E5F048EC04F0D8C0DAF00A0EDF
:1012B000DB6F59DD00C0D8F00150300E06E1D9B720
:1012C00009D0D9A107D0D9B9200E012601C0E5F077
:1012D00048EC04F0300ED827D8C0E5F048EC04F014
:1012E000000CD86BD76BD66BD56BD96BF1EC03F0D8
:1012F00003C09BF002C09AF001C099F000C098F0C2
:10130000D882AFC0E0F0AEC0DFF0ADC0DEF0ACC060
:10131000DDF0A7C0E4F0A6C0E3F0A5C0E2F0A4C0F1
:10132000E1F034EC05F000C0D9F001C0DAF002C001
:10133000DBF003C0DCF0D882ABC0E0F0AAC0DFF085
:10134000A9C0DEF0A8C0DDF0A3C0E4F0A2C0E3F0C5
:10135000A1C0E2F0A0C0E1F034EC05F0DCC0E0F0A8
:10136000DBC0DFF0DAC0DEF0D9C0DDF003C0E4F0AE
:1013700002C0E3F001C0E2F000C0E1F087EC04F04D
:1013800003C0BFF002C0BEF001C0BDF000C0BCF0A1
:101390002A500A0834E1BFC0E8F0BEC0E7F0BDC083
:1013A000E6F0BCC0E5F09BC0ECF09AC0EBF099C051
:1013B000EAF098C0E9F0AADD00C0D9F001C0DAF087
:1013C00002C0DBF003C0DCF0D89203C0E0F002C042
:1013D000DFF001C0DEF000C0DDF0C3C0E4F0C2C049
:1013E000E3F0C1C0E2F0C0C0E1F034EC05F003C0AE
:1013F0009FF002C09EF001C09DF000C09CF02A50FA
:10140000140834E1BFC0E8F0BEC0E7F0BDC0E6F0AC
:10141000BCC0E5F09BC0ECF09AC0EBF099C0EAF0DC
:1014200098C0E9F073DD00C0D9F001C0DAF002C065
:10143000DBF003C0DCF0D88203C0E0F002C0DFF0D4
:1014400001C0DEF000C0DDF0C3C0E4F0C2C0E3F0D4
:10145000C1C0E2F0C0C0E1F034EC05F003C09FF081
:1014600002C09EF001C09DF000C09CF09FC0DCF067
:101470009EC0DBF09DC0DAF09CC0D9F0E06BDF6B62
:10148000DE6BDD6B26DC04E39F6B9E6B9D6B9C6BC0
:10149000010ED45D255C02E001E3256A2550040DB0
:1014A000F350036A480FE96E000E0320EA6E9CC0F9
:1014B000EFFF9DC0ECFF9EC0ECFF9FC0ECFF252A14
:1014C000266A010ED45D265C01E036E22650040D4A
:1014D000F350036A480FE96E000E0320EA6EEFCF67
:1014E00000F0ECCF01F0ECCF02F0ECCF03F0EACF4C
:1014F000DAF0E9CFD9F0D892D8C0E0F0D7C0DFF069
:10150000D6C0DEF0D5C0DDF003C0E4F002C0E3F0E9
:1015100001C0E2F000C0E1F034EC05F0DAC0EAFF0F
:10152000D9C0E9FF03C0D8F002C0D7F001C0D6F09F
:1015300000C0D5F0262AC5D7DF6BD4C0DEF0D6ECCC
:1015400003F0D8C0E0F0D7C0DFF0D6C0DEF0D5C0E1
:10155000DDF003C0E4F002C0E3F001C0E2F000C03F
:10156000E1F087EC04F003C0D8F002C0D7F001C06E
:10157000D6F000C0D5F0D5C000F0D6C001F0D7C07D
:1015800002F0D8C003F04AEF23F0D892BBC0E0F0DD
:10159000BAC0DFF0B9C0DEF0B8C0DDF0C7C0E4F01B
:1015A000C6C0E3F0C5C0E2F0C4C0E1F034EC05F021
:1015B00003C0CFF002C0CEF001C0CDF000C0CCF02F
:1015C000D882BBC0E0F0BAC0DFF0B9C0DEF0B8C06E
:1015D000DDF0C7C0E4F0C6C0E3F0C5C0E2F0C4C0AF
:1015E000E1F034EC05F003C0D3F002C0D2F001C04A
:1015F000D1F000C0D0F0D3C0DCF0D2C0DBF0D1C05D
:10160000DAF0D0C0D9F0B7C0E0F0B6C0DFF0B5C0B6
:10161000DEF0B4C0DDF069EC06F017E3B7C0DCF033
:10162000B6C0DBF0B5C0DAF0B4C0D9F0CFC0E0F09E
:10163000CEC0DFF0CDC0DEF0CCC0DDF069EC06F04E
:1016400004E38B949494179021D0B7C0DCF0B6C01B
:10165000DBF0B5C0DAF0B4C0D9F0D3C0E0F0D2C04E
:10166000DFF0D1C0DEF0D0C0DDF069EC06F00BE3B6
:101670002D502C5C04E28B849494178003D08B94BF
:101680009494179003D08B949494179056EF23F072
:10169000F86AD09E078EEA6AE96A17901792179443
:1016A00017961798179A179C179E189018921894C7
:1016B000196A080E1A6E020E1B6E0B0E1C6E020EBD
:1016C0001D6E030E1E6E020E1F6E206E040E216E26
:1016D000226A236A246A256A266A276A060E286E09
:1016E000010E296E0A0E2A6E2B6A2C6A030E2D6ECD
:1016F0002E6A2F6A306A316A326A336A346A356A0E
:10170000366A376A386A476A466A9B6B9A6B996B86
:10171000986B9F6B9E6B9D6B9C6BA36BA26BA16B7D
:10172000A06BA76BA66BA56BA46BAB6BAA6BA96B2D
:10173000A86BAF6BAE6BAD6BAC6BB36BB26BB16BDD
:10174000810EB06FB76BB66BB56BB46BBB6BBA6B1E
:10175000600EB96F810EB86FBF6BBE6BBD6BBC6B9B
:10176000C36BC26BC16BC06BC76BC66BC56BC46B05
:10177000CB6BCA6BC96BC86BCF6BCE6BCD6BCC6BB5
:10178000D36BD26BD16BD06BC150C00B0F09C16E44
:10179000070EB46E3E0E396E200E3A6E5E0E3B6E34
:1017A0003C6A3D6A3E6A3F6A406A416A426A436AED
:1017B000486A496A4A6A4B6A4C6A4D6A4E6A4F6A7D
:1017C000506A516A526A536A546A556A566A576A2D
:1017D000586A596A5A6A5B6A5C6A5D6A5E6A5F6ADD
:1017E000606B616B626B636B646B656B666B676B85
:1017F000686B696B6A6B6B6B6C6B6D6B6E6B6F6B35
:10180000706B716B726B736B746B756B766B776BE4
:10181000786B796B7A6B7B6B7C6B7D6B7E6B7F6B94
:10182000806B816B826B836B846B856B866B876B44
:10183000886B896B8A6B8B6B8C6B8D6B8E6B8F6BF4
:10184000906B916B926B936B946B956B966B976BA4
:10185000ABEC03F0850ECD6E9D80C150C00B0D0921
:10186000C16EC090C082C094C09EC280C00EF212F1
:10187000D96BF1EC03F0010EE66FE76F17EC04F0A3
:101880008E0EF66E010EF76E77EC04F0010EE66F29
:10189000020EE76F17EC04F0A40EF66E010EF76E61
:1018A00077EC04F0010EE66F030EE76F17EC04F01F
:1018B000BA0EF66E010EF76E77EC04F0010EE66FCD
:1018C000040EE76F17EC04F0D00EF66E010EF76E03
:1018D00077EC04F0060ED46FFA0EEB6F65EC03F0B4
:1018E000D42FFAD70C0EE56F48EC04F0928480B444
:1018F00057D0040ED46FFA0EEB6F65EC03F0D42FC3
:10190000FAD7928480B44CD0320EA96EA86AA69CF5
:10191000A69EA684F250006EF29E0F01550EA76E91
:10192000AA0EA76EA682A6B2FED7A6940050F21207
:101930000A0E0001EB6F65EC03F0330EA96EA86A86
:10194000A69CA69EA684F250006EF29E0F01550E34
:10195000A76EAA0EA76EA682A6B2FED7A6940050C6
:10196000F2120A0E0001EB6F65EC03F0340EA96E63
:10197000A86AA69CA69EA684F250006EF29E0F0155
:10198000550EA76EAA0EA76EA682A6B2FED7A69483
:101990000050F2120A0E0001EB6F65EC03F0FF003D
:1019A000F2CFD4F0F29EA96AA69CA69EA680A8506B
:1019B000D4BFF28E406E0A0EEB6F65EC03F0405020
:1019C000090819E2406AA96AA86AA69CA69EA6848C
:1019D000F250006EF29E0F01550EA76EAA0EA76E72
:1019E000A682A6B2FED7A6940050F2120A0E0001FB
:1019F000EB6F65EC03F0F2CFD4F0F29E010EA96E0E
:101A0000A69CA69EA680A850D4BFF28E416E140E4E
:101A1000EB6F65EC03F0415009081AE2416A010ED0
:101A2000A96EA86AA69CA69EA684F250006EF29E9D
:101A30000F01550EA76EAA0EA76EA682A6B2FED7FC
:101A4000A6940050F2120A0E0001EB6F65EC03F051
:101A5000F2CFD4F0F29E020EA96EA69CA69EA6809E
:101A6000A850D4BFF28E426E140EEB6F65EC03F0FB
:101A7000425009081AE2426A020EA96EA86AA69CA0
:101A8000A69EA684F250006EF29E0F01550EA76E20
:101A9000AA0EA76EA682A6B2FED7A6940050F21296
:101AA0000A0E0001EB6F65EC03F0F2CFD4F0F29E6A
:101AB000030EA96EA69CA69EA680A850D4BFF28E47
:101AC000436E140EEB6F65EC03F0435009081AE205
:101AD000436A030EA96EA86AA69CA69EA684F2502D
:101AE000006EF29E0F01550EA76EAA0EA76EA6827B
:101AF000A6B2FED7A6940050F2120A0E0001EB6FB8
:101B000065EC03F0F2CFD4F0F29E050EA96EA69C10
:101B1000A69EA680A850D4BFF28E286E140EEB6F3E
:101B200065EC03F0285010081CE2100E286E050E1C
:101B3000A96E100EA86EA69CA69EA684F250006EFA
:101B4000F29E0F01550EA76EAA0EA76EA682A6B230
:101B5000FED7A6940050F2120A0E0001EB6F65EC5E
:101B600003F0F2CFD4F0F29E060EA96EA69CA69EBC
:101B7000A680A850D4BFF28E2E6E140EEB6F65ECCB
:101B800003F02E500A081CE20A0E2E6E060EA96EF5
:101B90000A0EA86EA69CA69EA684F250006EF29E27
:101BA0000F01550EA76EAA0EA76EA682A6B2FED78B
:101BB000A6940050F2120A0E0001EB6F65EC03F0E0
:101BC000F2CFD4F0F29E070EA96EA69CA69EA68028
:101BD000A850D4BFF28E2F6E140EEB6F65EC03F09D
:101BE0002F5009081AE22F6A070EA96EA86AA69C50
:101BF000A69EA684F250006EF29E0F01550EA76EAF
:101C0000AA0EA76EA682A6B2FED7A6940050F21224
:101C10000A0E0001EB6F65EC03F0F2CFD4F0F29EF8
:101C2000080EA96EA69CA69EA680A850D4BFF28ED0
:101C3000306E140EEB6F65EC03F030500E081CE2B2
:101C4000070E306E080EA96E070EA86EA69CA69E03
:101C5000A684F250006EF29E0F01550EA76EAA0EDA
:101C6000A76EA682A6B2FED7A6940050F2120A0E64
:101C70000001EB6F65EC03F0F2CFD4F0F29E090E99
:101C8000A96EA69CA69EA680A850D4BFF28E316EE7
:101C9000140EEB6F65EC03F0315009081AE2316A5B
:101CA000090EA96EA86AA69CA69EA684F250006E94
:101CB000F29E0F01550EA76EAA0EA76EA682A6B2BF
:101CC000FED7A6940050F2120A0E0001EB6F65ECED
:101CD00003F0F2CFD4F0F29E140EA96EA69CA69E3D
:101CE000A680A850D4BFF28E326E140EEB6F65EC56
:101CF00003F0F2CFD4F0F29E150EA96EA69CA69E1C
:101D0000A680A850D4BFF28E336E140EEB6F65EC34
:101D100003F0F2CFD4F0F29E1E0EA96EA69CA69EF2
:101D2000A680A850D4BFF28EDF6BDE6FD6EC03F036
:101D300003C0A3F002C0A2F001C0A1F000C0A0F057
:101D4000140EEB6F65EC03F0F2CFD4F0F29E1F0E91
:101D5000A96EA69CA69EA680A850D4BFF28EDF6B6B
:101D6000DE6FD6EC03F003C0ABF002C0AAF001C0F6
:101D7000A9F000C0A8F0140EEB6F65EC03F0F2CFF1
:101D8000D4F0F29E200EA96EA69CA69EA680A85016
:101D9000D4BFF28E346E140EEB6F65EC03F0F2CF0D
:101DA000D4F0F29E210EA96EA69CA69EA680A850F5
:101DB000D4BFF28E356E140EEB6F65EC03F0F2CFEC
:101DC000D4F0F29E220EA96EA69CA69EA680A850D4
:101DD000D4BFF28E366E140EEB6F65EC03F0F2CFCB
:101DE000D4F0F29E230EA96EA69CA69EA680A850B3
:101DF000D4BFF28E376E140EEB6F65EC03F0F2CFAA
:101E0000D4F0F29E320EA96EA69CA69EA680A85083
:101E1000D4BFF28E226E140EEB6F65EC03F0F2CF9E
:101E2000D4F0F29E330EA96EA69CA69EA680A85062
:101E3000D4BFF28E236E140EEB6F65EC03F0F2CF7D
:101E4000D4F0F29E340EA96EA69CA69EA680A85041
:101E5000D4BFF28E246E140EEB6F65EC03F0F2CF5C
:101E6000D4F0F29E3C0EA96EA69CA69EA680A85019
:101E7000D4BFF28E2A6E140EEB6F65EC03F0F2CF36
:101E8000D4F0F29E460EA96EA69CA69EA680A850EF
:101E9000D4BFF28E2D6E140EEB6F65EC03F0DF6B8A
:101EA00035C0DEF0D6EC03F003C0E0F002C0DFF096
:101EB00001C0DEF000C0DDF0E46BE36B200EE26FEA
:101EC000820EE16F87EC04F003C0CBF002C0CAF0D1
:101ED00001C0C9F000C0C8F0DF6B34C0DEF0D6EC42
:101EE00003F0D89203C0E0F002C0DFF001C0DEF0E2
:101EF00000C0DDF0CBC0E4F0CAC0E3F0C9C0E2F03E
:101F0000C8C0E1F034EC05F003C0A7F002C0A6F0B1
:101F100001C0A5F000C0A4F0DF6B37C0DEF0D6EC46
:101F200003F003C0E0F002C0DFF001C0DEF000C04B
:101F3000DDF0E46BE36B200EE26F820EE16F87EC65
:101F400004F003C0CBF002C0CAF001C0C9F000C069
:101F5000C8F0DF6B36C0DEF0D6EC03F0D89203C0D9
:101F6000E0F002C0DFF001C0DEF000C0DDF0CBC069
:101F7000E4F0CAC0E3F0C9C0E2F0C8C0E1F034EC5C
:101F800005F003C0AFF002C0AEF001C0ADF000C07C
:101F9000ACF0DF6B33C0DEF0D6EC03F003C0E0F052
:101FA00002C0DFF001C0DEF000C0DDF0E46BE36BE7
:101FB000480EE26F850EE16F87EC04F003C0CBF0B2
:101FC00002C0CAF001C0C9F000C0C8F0DF6B32C067
:101FD000DEF0D6EC03F0D89203C0E0F002C0DFF0F0
:101FE00001C0DEF000C0DDF0CBC0E4F0CAC0E3F019
:101FF000C9C0E2F0C8C0E1F034EC05F003C0C3F0A2
:1020000002C0C2F001C0C1F000C0C0F0DF6B31C03F
:10201000DEF0D6EC03F003C0E0F002C0DFF001C058
:10202000DEF000C0DDF0E46BE36B200EE26F820EA9
:10203000E16F87EC04F003C0CBF002C0CAF001C02E
:10204000C9F000C0C8F0DF6B30C0DEF0D6EC03F0A2
:10205000D89203C0E0F002C0DFF001C0DEF000C0A3
:10206000DDF0CBC0E4F0CAC0E3F0C9C0E2F0C8C004
:10207000E1F034EC05F003C0BBF002C0BAF001C0DF
:10208000B9F000C0B8F0DF6B2FC0DEF0D6EC03F083
:1020900003C0E0F002C0DFF001C0DEF000C0DDF000
:1020A000E46BE36B200EE26F820EE16F87EC04F0CD
:1020B00003C0CBF002C0CAF001C0C9F000C0C8F034
:1020C000DF6B2EC0DEF0D6EC03F0D89203C0E0F058
:1020D00002C0DFF001C0DEF000C0DDF0CBC0E4F0F4
:1020E000CAC0E3F0C9C0E2F0C8C0E1F034EC05F0CA
:1020F00003C0C7F002C0C6F001C0C5F000C0C4F004
:10210000DC6BDB6B7F0EDA6F860ED96FC3C0E0F03D
:10211000C2C0DFF0C1C0DEF0C0C0DDF069EC06F087
:1021200008E30A0EC36FD70EC26F230EC16F7D0E78
:10213000C06FDC6BDB6B7A0EDA6F860ED96FA3C0D3
:10214000E0F0A2C0DFF0A1C0DEF0A0C0DDF069ECDD
:1021500006F006E3A36BA26B700EA16F840EA06F56
:10216000DC6BDB6B7A0EDA6F860ED96FABC0E0F0FA
:10217000AAC0DFF0A9C0DEF0A8C0DDF069EC06F06F
:1021800006E3AB6BAA6B4E0EA96F850EA86FDC6BD6
:10219000DB6B7A0EDA6F860ED96FA7C0E0F0A6C0AF
:1021A000DFF0A5C0DEF0A4C0DDF069EC06F005E3C9
:1021B000A76BA66BA56B810EA46FDC6BDB6B7A0E35
:1021C000DA6F860ED96FAFC0E0F0AEC0DFF0ADC001
:1021D000DEF0ACC0DDF069EC06F006E3AF6BAE6B91
:1021E000600EAD6F810EAC6F2A50140802E2140E1F
:1021F0002A6E640E196E1952D8A4D4D1010EE66F5E
:10220000E76F17EC04F0E40EF66E010EF76E77EC54
:1022100004F0010EE66F020EE76F17EC04F0FA0E01
:10222000F66E010EF76E77EC04F0010EE66F030E0A
:10223000E76F17EC04F0100EF66E020EF76E0A0E42
:10224000D86FA4EC06F03CC0D4F01F0ED56FC7ECDD
:1022500006F03DC0D4F01F0ED56FC7EC06F03EC0AF
:10226000D4F01F0ED56FC7EC06F03FC0D4F01F0EA0
:10227000D56FC7EC06F0200EE56F48EC04F0200E99
:10228000E56F48EC04F0928480B411D017B60ED0FC
:102290000B0E1C5C036A3C0FE96E000E0320EA6E15
:1022A000EF2A17861E0EEB6F65EC03F001D0179630
:1022B000928680B611D017BA0ED00B0E1C5C036A42
:1022C0003C0FE96E000E0320EA6EEF06178A1E0E21
:1022D000EB6F65EC03F001D0179A928880B80DD0AF
:1022E00017B80AD017881C2A1E0EEB6F65EC03F096
:1022F0000C0EE56F48EC04F001D01798928A80BA72
:102300000DD017BC0AD0178C1C061E0EEB6F65ECA7
:1023100003F00C0EE56F48EC04F001D0179C0B0E97
:102320001C5C036A3C0FE96E000E0320EA6EEFBEF0
:1023300001D00AD00B0E1C5C036A3C0FE96E000E44
:102340000320EA6E090EEF6E0B0E1C5C036A3C0F55
:10235000E96E000E0320EA6EEFBE0CD0EF500908C4
:1023600009E20B0E1C5C036A3C0FE96E000E0320B1
:10237000EA6EEF6A1C500A0802E30B0E1C6E1CC0CA
:10238000E6F0040EE76F17EC04F03BC0E5F048EC14
:1023900004F01C500E08D8B0F3D03C5003086DE197
:1023A0003D5008086AE13E50090867E13F500208C5
:1023B00064E1A96AA86AA69CA69EA684F250006E53
:1023C000F29E0F01550EA76EAA0EA76EA682A6B2A8
:1023D000FED7A6940050F212140E0001EB6F65ECCC
:1023E00003F0010EA96EA86AA69CA69EA684F250D0
:1023F000006EF29E0F01550EA76EAA0EA76EA68262
:10240000A6B2FED7A6940050F212140E0001EB6F94
:1024100065EC03F0020EA96EA86AA69CA69EA6848F
:10242000F250006EF29E0F01550EA76EAA0EA76E17
:10243000A682A6B2FED7A6940050F212140E000196
:10244000EB6F65EC03F0030EA96EA86AA69CA69E2E
:10245000A684F250006EF29E0F01550EA76EAA0ED2
:10246000A76EA682A6B2FED7A6940050F212140E52
:102470000001EB6F65EC03F0FF0040503C5C49E16C
:1024800041503D5C46E142503E5C43E143503F5C7D
:1024900040E1010EE66FE76F17EC04F0260EF66ED2
:1024A000020EF76E77EC04F0010EE66F020EE76F96
:1024B00017EC04F03A0EF66E020EF76E77EC04F0AD
:1024C000010EE66F030EE76F17EC04F04E0EF66E8A
:1024D000020EF76E77EC04F0010EE66F040EE76F64
:1024E00017EC04F0620EF66E020EF76E77EC04F055
:1024F000040ED46FFA0EEB6F65EC03F0D42FFAD70D
:10250000640E196E0B0E1C6E0C0EE56F48EC04F099
:1025100037D0010EE66FE76F17EC04F0010EE66F9F
:10252000020EE76F17EC04F0760EF66E020EF76EF1
:1025300077EC04F0010EE66F030EE76F17EC04F082
:102540008A0EF66E020EF76E77EC04F0010EE66F5F
:10255000040EE76F17EC04F09E0EF66E020EF76E97
:1025600077EC04F0040ED46FFA0EEB6F65EC03F019
:10257000D42FFAD70B0E1C6E0C0EE56F48EC04F04E
:102580001C500B080FE21C500D080CE3010E1C5CE4
:10259000D46FE66F040EE76F17EC04F03AC0E5F075
:1025A00048EC04F0192CF8D0010EE66FE76F17EC39
:1025B00004F0B20EF66E020EF76E77EC04F038BE41
:1025C00001D001D0386A928480B40DD017B60AD0F9
:1025D0001F061D06010E1D241E6E17861E0EEB6FB4
:1025E00065EC03F001D01796928680B60DD017BA2D
:1025F0000AD01F2A1D2A010E1D5C1E6E178A1E0E90
:10260000EB6F65EC03F001D0179A1F50215C08E2D4
:10261000382A1FC021F0020E215C206E040E1D6EB0
:1026200020501F5C08E238061FC020F0020E202454
:10263000216E020E1D6E1F501A5C09E21BC01FF0B6
:10264000020E1D6E386A1FC020F02024216E1B5020
:102650001F5C0BE21AC01FF0040E1D6E1A5C386E70
:102660001FC021F0020E215C206E010E3824D46FB1
:10267000D56F020ED66F2BEC07F0020E3824D46F04
:10268000D56F030ED66F2BEC07F0030E3824D46FF2
:10269000D56F040ED66F2BEC07F0010EE66F1DC050
:1026A000E7F017EC04F039C0E5F048EC04F01D50F9
:1026B000020814E1010EE66F040EE76F17EC04F058
:1026C0003AC0E5F048EC04F0010EE66F030EE76F48
:1026D00017EC04F03AC0E5F048EC04F01D50040893
:1026E00014E1010EE66F020EE76F17EC04F03AC03A
:1026F000E5F048EC04F0010EE66F030EE76F17EC0F
:1027000004F03AC0E5F048EC04F01D50030814E171
:10271000010EE66F040EE76F17EC04F03AC0E5F027
:1027200048EC04F0010EE66F020EE76F17EC04F0C0
:102730003AC0E5F048EC04F0928880B81BD017B896
:1027400018D017881FC019F0030E1D6E020ED46F2B
:10275000960EEB6F65EC03F0D42FFAD70C0EE56FF5
:1027600048EC04F01950060804E13C6A3D6A3E6AF0
:102770003F6A01D01798928A80BA0ED0640E196E03
:102780000C0EE56F48EC04F0020ED46FFA0EEB6FFE
:1027900065EC03F0D42FFAD719500208D8A404D25C
:1027A000010EE66FE76F17EC04F0C80EF66E020E2E
:1027B000F76E77EC04F0010EE66F020EE76F17EC90
:1027C00004F0DE0EF66E020EF76E77EC04F0010EEA
:1027D000E66F030EE76F17EC04F0F40EF66E020ED0
:1027E000F76E050ED86FA4EC06F0010EE96EB3C0CB
:1027F000DBF0B2C0DAF0B1C0D9F0B0C0D8F0DC6F15
:102800005CEC08F0FE0EF66E020EF76E050ED86F49
:10281000A4EC06F0B3C0DCF0B2C0DBF0B1C0DAF07B
:10282000B0C0D9F0E06BDF6BDE6B7E0EDD6F69EC64
:1028300006F005E3B36BB26BB16B7E0EB06FDC6B71
:10284000DB6B600EDA6F820ED96FB3C0E0F0B2C0FE
:10285000DFF0B1C0DEF0B0C0DDF069EC06F006E3F9
:10286000B36BB26B600EB16F820EB06F928480B4A6
:1028700030D0B3C0DCF0B2C0DBF0B1C0DAF0B0C031
:10288000D9F0E06BDF6B600EDE6F820EDD6F69ECFE
:1028900006F01FE3D892B3C0E0F0B2C0DFF0B1C0E1
:1028A000DEF0B0C0DDF0CD0EE46FCC0EE36F4C0E69
:1028B000E26F7B0EE16F34EC05F003C0B3F002C0B1
:1028C000B2F001C0B1F000C0B0F0320EEB6F65ECB9
:1028D00003F0928680B62FD0DC6BDB6BDA6B7E0E5A
:1028E000D96FB3C0E0F0B2C0DFF0B1C0DEF0B0C06D
:1028F000DDF069EC06F01FE3D882B3C0E0F0B2C0AF
:10290000DFF0B1C0DEF0B0C0DDF0CD0EE46FCC0E74
:10291000E36F4C0EE26F7B0EE16F34EC05F003C009
:10292000B3F002C0B2F001C0B1F000C0B0F0320E9E
:10293000EB6F65EC03F0928880B821D1D882B3C0E8
:10294000E0F0B2C0DFF0B1C0DEF0B0C0DDF0B7C083
:10295000E4F0B6C0E3F0B5C0E2F0B4C0E1F034ECAE
:1029600005F003C0C3F002C0C2F001C0C1F000C056
:10297000C0F0DC6BDB6BDA6BD96BC3C0E0F0C2C0BC
:10298000DFF0C1C0DEF0C0C0DDF069EC06F001E2AE
:1029900018E10A0E2A6E3C0EA96E2AC0A8FFA69C5A
:1029A000A69EA684F250006EF29E0F01550EA76EF1
:1029B000AA0EA76EA682A6B2FED7A6940050F21267
:1029C0000001C3C0DCF0C2C0DBF0C1C0DAF0C0C09F
:1029D000D9F0E06BDF6BDE6BDD6B69EC06F018E3C2
:1029E000140E2A6E3C0EA96E2AC0A8FFA69CA69EB5
:1029F000A684F250006EF29E0F01550EA76EAA0E2D
:102A0000A76EA682A6B2FED7A6940050F2120001CD
:102A1000C0C000F0C1C001F0C2C002F0C3C003F0EA
:102A2000019EC3C0C3F0C2C0C2F001C0C1F0C0C0AB
:102A3000C0F0C3C0D7F0C2C0D6F0C1C0D5F0C0C08E
:102A4000D4F01FEC09F001C032F0DF6B32C0DEF0D1
:102A5000D6EC03F0D882C3C0E0F0C2C0DFF0C1C042
:102A6000DEF0C0C0DDF003C0E4F002C0E3F001C05E
:102A7000E2F000C0E1F034EC05F003C0CBF002C09E
:102A8000CAF001C0C9F000C0C8F0CBC0E8F0CAC0AD
:102A9000E7F0C9C0E6F0C8C0E5F0EC6BEB6B480EA0
:102AA000EA6F850EE96F86EC07F003C0D7F002C02D
:102AB000D6F001C0D5F000C0D4F01FEC09F001C081
:102AC00033F0140EA96E32C0A8FFA69CA69EA68461
:102AD000F250006EF29E0F01550EA76EAA0EA76E61
:102AE000A682A6B2FED7A6940050F212140E0001E0
:102AF000EB6F65EC03F0150EA96E33C0A8FFA69C22
:102B0000A69EA684F250006EF29E0F01550EA76E8F
:102B1000AA0EA76EA682A6B2FED7A6940050F21205
:102B2000C80E0001EB6F65EC03F00C0EE56F48EC8E
:102B300004F0010EE66F020EE76F17EC04F0040ECE
:102B4000F66E030EF76E77EC04F0010EE66F030EDF
:102B5000E76F17EC04F0160EF66E030EF76E77ECC7
:102B600004F0020ED46FFA0EEB6F65EC03F0D42F75
:102B7000FAD70C0EE56F48EC04F0640E196E928AD9
:102B800080BA12D0010E196E386A040ED46FFA0E94
:102B9000EB6F65EC03F0D42FFAD7020E1D6E1F6E9B
:102BA0000C0EE56F48EC04F019500308D8A453EF5D
:102BB0001AF0010EE66FE76F17EC04F0280EF66EC0
:102BC000030EF76E77EC04F0010EE66F020EE76F6E
:102BD00017EC04F03E0EF66E030EF76E120ED86F71
:102BE000A4EC06F029C0D8F01B0ED96F3BEC09F01D
:102BF000010EE66F030EE76F17EC04F0540EF66E4D
:102C0000030EF76E050ED86FA4EC06F0010EE96E08
:102C1000B3C0DBF0B2C0DAF0B1C0D9F0B0C0D8F0C8
:102C2000DC6F5CEC08F05E0EF66E030EF76E050EC0
:102C3000D86FA4EC06F0B3C0DCF0B2C0DBF0B1C0DA
:102C4000DAF0B0C0D9F0E06BDF6BDE6B7E0EDD6FCB
:102C500069EC06F005E3B36BB26BB16B7E0EB06F3F
:102C6000DC6BDB6B600EDA6F820ED96FB3C0E0F005
:102C7000B2C0DFF0B1C0DEF0B0C0DDF069EC06F04C
:102C800006E3B36BB26B600EB16F820EB06F9284CD
:102C900080B430D0B3C0DCF0B2C0DBF0B1C0DAF049
:102CA000B0C0D9F0E06BDF6B600EDE6F820EDD6FBF
:102CB00069EC06F01FE3D892B3C0E0F0B2C0DFF0D9
:102CC000B1C0DEF0B0C0DDF0CD0EE46FCC0EE36F2E
:102CD0004C0EE26F7B0EE16F34EC05F003C0B3F0F5
:102CE00002C0B2F001C0B1F000C0B0F0320EEB6F24
:102CF00065EC03F0928680B62FD0DC6BDB6BDA6B71
:102D00007E0ED96FB3C0E0F0B2C0DFF0B1C0DEF02C
:102D1000B0C0DDF069EC06F01FE3D882B3C0E0F08C
:102D2000B2C0DFF0B1C0DEF0B0C0DDF0CD0EE46FB8
:102D3000CC0EE36F4C0EE26F7B0EE16F34EC05F0CE
:102D400003C0B3F002C0B2F001C0B1F000C0B0F0F7
:102D5000320EEB6F65EC03F0928880B825D3292CF6
:102D60004BD0D96BF1EC03F003C0A3F002C0A2F08A
:102D700001C0A1F000C0A0F0B3C0A7F0B2C0A6F09F
:102D8000B1C0A5F0B0C0A4F0292A0C0EE56F48EC44
:102D900004F0010EE66F020EE76F17EC04F0640E0C
:102DA000F66E030EF76E77EC04F0010EE66F030E7D
:102DB000E76F17EC04F0760EF66E030EF76E77EC05
:102DC00004F0020ED46FFA0EEB6F65EC03F0D42F13
:102DD000FAD7040ED46FFA0EEB6F65EC03F0D42F24
:102DE000FAD70C0EE56F48EC04F0B36BB26B600ED3
:102DF000B16F810EB06FD8D229500208D8A4D4D2B6
:102E0000D96BF1EC03F003C0ABF002C0AAF001C033
:102E1000A9F000C0A8F0B3C0AFF0B2C0AEF0B1C02E
:102E2000ADF0B0C0ACF0A7C0D7F0A6C0D6F0A5C03A
:102E3000D5F0A4C0D4F01FEC09F001C034F0DF6B72
:102E400034C0DEF0D6EC03F0D882A7C0E0F0A6C014
:102E5000DFF0A5C0DEF0A4C0DDF003C0E4F002C0E6
:102E6000E3F001C0E2F000C0E1F034EC05F003C093
:102E7000CBF002C0CAF001C0C9F000C0C8F0CBC09E
:102E8000E8F0CAC0E7F0C9C0E6F0C8C0E5F0EC6BF6
:102E9000EB6B200EEA6F820EE96F86EC07F003C041
:102EA000D7F002C0D6F001C0D5F000C0D4F01FECBE
:102EB00009F001C035F0AFC0D7F0AEC0D6F0ADC05C
:102EC000D5F0ACC0D4F01FEC09F001C036F0DF6BD8
:102ED00036C0DEF0D6EC03F0D882AFC0E0F0AEC072
:102EE000DFF0ADC0DEF0ACC0DDF003C0E4F002C046
:102EF000E3F001C0E2F000C0E1F034EC05F003C003
:102F0000CBF002C0CAF001C0C9F000C0C8F0CBC00D
:102F1000E8F0CAC0E7F0C9C0E6F0C8C0E5F0EC6B65
:102F2000EB6B200EEA6F820EE96F86EC07F003C0B0
:102F3000D7F002C0D6F001C0D5F000C0D4F01FEC2D
:102F400009F001C037F0A3C0D7F0A2C0D6F0A1C0ED
:102F5000D5F0A0C0D4F01FEC09F001C0D4F01E0ED3
:102F6000A96ED4C0A8FFA69CA69EA684F250006EAF
:102F7000F29E0F01550EA76EAA0EA76EA682A6B2EC
:102F8000FED7A6940050F212140E0001EB6F65EC10
:102F900003F0ABC0D7F0AAC0D6F0A9C0D5F0A8C046
:102FA000D4F01FEC09F001C0D4F01F0EA96ED4C0FC
:102FB000A8FFA69CA69EA684F250006EF29E0F016A
:102FC000550EA76EAA0EA76EA682A6B2FED7A6942D
:102FD0000050F212140E0001EB6F65EC03F0200EAE
:102FE000A96E34C0A8FFA69CA69EA684F250006ECF
:102FF000F29E0F01550EA76EAA0EA76EA682A6B26C
:10300000FED7A6940050F212140E0001EB6F65EC8F
:1030100003F0210EA96E35C0A8FFA69CA69EA6842B
:10302000F250006EF29E0F01550EA76EAA0EA76E0B
:10303000A682A6B2FED7A6940050F212140E00018A
:10304000EB6F65EC03F0220EA96E36C0A8FFA69CBC
:10305000A69EA684F250006EF29E0F01550EA76E3A
:10306000AA0EA76EA682A6B2FED7A6940050F212B0
:10307000140E0001EB6F65EC03F0230EA96E37C050
:10308000A8FFA69CA69EA684F250006EF29E0F0199
:10309000550EA76EAA0EA76EA682A6B2FED7A6945C
:1030A0000050F212140E0001EB6F65EC03F0D882B1
:1030B000AFC0E0F0AEC0DFF0ADC0DEF0ACC0DDF020
:1030C000A7C0E4F0A6C0E3F0A5C0E2F0A4C0E1F020
:1030D00034EC05F0ABC0E8F0AAC0E7F0A9C0E6F018
:1030E000A8C0E5F003C0ECF002C0EBF001C0EAF0CC
:1030F00000C0E9F086EC07F000C0D4F001C0D5F0C4
:1031000002C0D6F003C0D7F0D882ABC0E0F0AAC0AE
:10311000DFF0A9C0DEF0A8C0DDF0A3C0E4F0A2C0DB
:10312000E3F0A1C0E2F0A0C0E1F034EC05F0D7C0BC
:10313000E0F0D6C0DFF0D5C0DEF0D4C0DDF003C0D3
:10314000E4F002C0E3F001C0E2F000C0E1F087EC7F
:1031500004F0D882AFC0E0F0AEC0DFF0ADC0DEF06A
:10316000ACC0DDF003C0E4F002C0E3F001C0E2F067
:1031700000C0E1F034EC05F003C0C3F002C0C2F0BF
:1031800001C0C1F000C0C0F0DC6BDB6BDA6BD96B47
:10319000C3C0E0F0C2C0DFF0C1C0DEF0C0C0DDF0EF
:1031A00069EC06F001E21CE10A0E2A6E3C0EA96EE3
:1031B0002AC0A8FFA69CA69EA684F250006EF29E8E
:1031C0000F01550EA76EAA0EA76EA682A6B2FED755
:1031D000A6940050F212140E0001EB6F65EC03F0A0
:1031E000C3C0DCF0C2C0DBF0C1C0DAF0C0C0D9F0AF
:1031F000E06BDF6BDE6BDD6B69EC06F01CE3140E3D
:103200002A6E3C0EA96E2AC0A8FFA69CA69EA68484
:10321000F250006EF29E0F01550EA76EAA0EA76E19
:10322000A682A6B2FED7A6940050F212140E000198
:10323000EB6F65EC03F0C0C000F0C1C001F0C2C08C
:1032400002F0C3C003F0019EC3C0C3F0C2C0C2F00D
:1032500001C0C1F0C0C0C0F0C3C0D7F0C2C0D6F03A
:10326000C1C0D5F0C0C0D4F01FEC09F001C032F0ED
:10327000DF6B32C0DEF0D6EC03F0D882C3C0E0F0E2
:10328000C2C0DFF0C1C0DEF0C0C0DDF003C0E4F0BA
:1032900002C0E3F001C0E2F000C0E1F034EC05F060
:1032A00003C0CBF002C0CAF001C0C9F000C0C8F032
:1032B000CBC0E8F0CAC0E7F0C9C0E6F0C8C0E5F08E
:1032C000EC6BEB6B480EEA6F850EE96F86EC07F04E
:1032D00003C0D7F002C0D6F001C0D5F000C0D4F0D2
:1032E0001FEC09F001C033F0140EA96E32C0A8FF24
:1032F000A69CA69EA684F250006EF29E0F01550E6B
:10330000A76EAA0EA76EA682A6B2FED7A6940050FC
:10331000F212140E0001EB6F65EC03F0150EA96EAE
:1033200033C0A8FFA69CA69EA684F250006EF29E13
:103330000F01550EA76EAA0EA76EA682A6B2FED7E3
:10334000A6940050F212C80E0001EB6F65EC03F07A
:103350000C0EE56F48EC04F0010EE66F020EE76F0D
:1033600017EC04F0880EF66E030EF76E77EC04F09F
:10337000010EE66F030EE76F17EC04F09A0EF66E7F
:10338000030EF76E77EC04F0020ED46FFA0EEB6FBB
:1033900065EC03F0D42FFAD70C0EE56F48EC04F07F
:1033A000010E296E640E196E928A80BA7CD0010ECD
:1033B000196E386AC80EEB6F65EC03F0020E1D6ED5
:1033C0001F6E0C0EE56F48EC04F0010E296EF2CF73
:1033D000D4F0F29E1E0EA96EA69CA69EA680A850B2
:1033E000D4BFF28EDF6BDE6FD6EC03F003C0A3F028
:1033F00002C0A2F001C0A1F000C0A0F0F2CFD4F052
:10340000F29E200EA96EA69CA69EA680A850D4BFB0
:10341000F28E346EF2CFD4F0F29E210EA96EA69CED
:10342000A69EA680A850D4BFF28E356EDF6B35C045
:10343000DEF0D6EC03F003C0E0F002C0DFF001C024
:10344000DEF000C0DDF0E46BE36B200EE26F820E75
:10345000E16F87EC04F003C0CBF002C0CAF001C0FA
:10346000C9F000C0C8F0DF6B34C0DEF0D6EC03F06A
:10347000D89203C0E0F002C0DFF001C0DEF000C06F
:10348000DDF0CBC0E4F0CAC0E3F0C9C0E2F0C8C0D0
:10349000E1F034EC05F003C0A7F002C0A6F001C0D3
:1034A000A5F000C0A4F019500408D8A47CD1010EE6
:1034B000E66FE76F17EC04F0AC0EF66E030EF76ED6
:1034C00077EC04F0010EE66F020EE76F17EC04F0E4
:1034D000C20EF66E030EF76E77EC04F0010EE66F87
:1034E000030EE76F17EC04F0D80EF66E030EF76EBE
:1034F0000A0ED86FA4EC06F03CC0D4F01F0ED56FB6
:10350000C7EC06F03DC0D4F01F0ED56FC7EC06F037
:103510003EC0D4F01F0ED56FC7EC06F03FC0D4F00C
:103520001F0ED56FC7EC06F0200EE56F48EC04F0D7
:10353000200EE56F48EC04F0928480B411D017B6E9
:103540000ED00B0E1C5C036A3C0FE96E000E0320CC
:10355000EA6EEF2A17861E0EEB6F65EC03F001D0C2
:103560001796928680B611D017BA0ED00B0E1C5C3F
:10357000036A3C0FE96E000E0320EA6EEF06178A1D
:103580001E0EEB6F65EC03F001D0179A928880B89D
:103590000DD017B80AD017881C2A1E0EEB6F65ECE9
:1035A00003F00C0EE56F48EC04F001D01798928AF6
:1035B00080BA0DD017BC0AD0178C1C061E0EEB6FFC
:1035C00065EC03F00C0EE56F48EC04F001D0179C9D
:1035D0000B0E1C5C036A3C0FE96E000E0320EA6EC2
:1035E000EFBE01D00AD00B0E1C5C036A3C0FE96EE3
:1035F000000E0320EA6E090EEF6E0B0E1C5C036AD0
:103600003C0FE96E000E0320EA6EEFBE0CD0EF50C7
:10361000090809E20B0E1C5C036A3C0FE96E000E00
:103620000320EA6EEF6A1C500A0810E3010E196EBF
:10363000386A020E1D6E1F6E0B0E1C6E020ED46FCA
:10364000FA0EEB6F65EC03F0D42FFAD71CC0E6F04E
:10365000040EE76F17EC04F03BC0E5F048EC04F013
:103660001C500E08D8B08DD040503C5C4DE141500C
:103670003D5C4AE142503E5C47E143503F5C44E1DF
:10368000010EE66FE76F17EC04F0EE0EF66E030E18
:10369000F76E77EC04F0010EE66F020EE76F17ECA1
:1036A00004F0040EF66E040EF76E77EC04F0010ED3
:1036B000E66F030EE76F17EC04F01A0EF66E040EB9
:1036C000F76E77EC04F0010EE66F040EE76F17EC6F
:1036D00004F0300EF66E040EF76E77EC04F0020E76
:1036E000D46FFA0EEB6F65EC03F0D42FFAD73D0ED2
:1036F000196E0B0E1C6E0C0EE56F48EC04F03C6A64
:103700003D6A3E6A3F6A3DD0010EE66FE76F17ECF7
:1037100004F0460EF66E040EF76E77EC04F0010E20
:10372000E66F020EE76F17EC04F05C0EF66E040E07
:10373000F76E77EC04F0010EE66F030EE76F17ECFF
:1037400004F0720EF66E040EF76E77EC04F0010EC4
:10375000E66F040EE76F17EC04F0880EF66E040EA9
:10376000F76E77EC04F0020ED46FFA0EEB6F65EC97
:1037700003F0D42FFAD70B0E1C6E0C0EE56F48EC3D
:1037800004F01C500B080FE21C500D080CE3010E56
:103790001C5CD46FE66F040EE76F17EC04F03AC0C0
:1037A000E5F048EC04F019503D08D8A487D1010E8B
:1037B000E66FE76F17EC04F09E0EF66E040EF76EE0
:1037C00077EC04F0010EE66F020EE76F17EC04F0E1
:1037D000B40EF66E040EF76E77EC04F0010EE66F91
:1037E000030EE76F17EC04F0CA0EF66E040EF76EC8
:1037F0000A0ED86FA4EC06F03CC0D4F01F0ED56FB3
:10380000C7EC06F03DC0D4F01F0ED56FC7EC06F034
:103810003EC0D4F01F0ED56FC7EC06F03FC0D4F009
:103820001F0ED56FC7EC06F0200EE56F48EC04F0D4
:10383000200EE56F48EC04F0928480B411D017B6E6
:103840000ED00B0E1C5C036A3C0FE96E000E0320C9
:10385000EA6EEF2A17861E0EEB6F65EC03F001D0BF
:103860001796928680B611D017BA0ED00B0E1C5C3C
:10387000036A3C0FE96E000E0320EA6EEF06178A1A
:103880001E0EEB6F65EC03F001D0179A928880B89A
:103890000DD017B80AD017881C2A1E0EEB6F65ECE6
:1038A00003F00C0EE56F48EC04F001D01798928AF3
:1038B00080BA0DD017BC0AD0178C1C061E0EEB6FF9
:1038C00065EC03F00C0EE56F48EC04F001D0179C9A
:1038D0000B0E1C5C036A3C0FE96E000E0320EA6EBF
:1038E000EFBE01D00AD00B0E1C5C036A3C0FE96EE0
:1038F000000E0320EA6E090EEF6E0B0E1C5C036ACD
:103900003C0FE96E000E0320EA6EEFBE0CD0EF50C4
:10391000090809E20B0E1C5C036A3C0FE96E000EFD
:103920000320EA6EEF6A1C500A0804E3050E196EC4
:103930000B0E1C6E1CC0E6F0040EE76F17EC04F0D3
:103940003BC0E5F048EC04F01C500E08D8B0A4D001
:10395000010EE66FE76F17EC04F0E00EF66E040E52
:10396000F76E77EC04F0010EE66F020EE76F17ECCE
:1039700004F0F60EF66E040EF76E77EC04F0010E0E
:10398000E66F030EE76F17EC04F00C0EF66E050EF3
:10399000F76E77EC04F0010EE66F040EE76F17EC9C
:1039A00004F0220EF66E050EF76E77EC04F0A96AAD
:1039B0003CC0A8FFA69CA69EA684F250006EF29E74
:1039C0000F01550EA76EAA0EA76EA682A6B2FED74D
:1039D000A6940050F212140E0001EB6F65EC03F098
:1039E000010EA96E3DC0A8FFA69CA69EA684F2501B
:1039F000006EF29E0F01550EA76EAA0EA76EA6824C
:103A0000A6B2FED7A6940050F212140E0001EB6F7E
:103A100065EC03F0020EA96E3EC0A8FFA69CA69E10
:103A2000A684F250006EF29E0F01550EA76EAA0EEC
:103A3000A76EA682A6B2FED7A6940050F212140E6C
:103A40000001EB6F65EC03F0030EA96E3FC0A8FF09
:103A5000A69CA69EA684F250006EF29E0F01550E03
:103A6000A76EAA0EA76EA682A6B2FED7A694005095
:103A7000F212140E0001EB6F65EC03F0020ED46F2E
:103A8000FA0EEB6F65EC03F0D42FFAD7010E196E26
:103A9000386A020E1D6E1F6E1C500B080FE21C5080
:103AA0000D080CE3010E1C5CD46FE66F040EE76F8B
:103AB00017EC04F03AC0E5F048EC04F019500508A2
:103AC000D8A489D0010EE66FE76F17EC04F0380E2A
:103AD000F66E050EF76E77EC04F0010EE66F020E3F
:103AE000E76F17EC04F04E0EF66E050EF76E77ECEE
:103AF00004F0010EE66F030EE76F17EC04F0640E9E
:103B0000F66E050EF76E080ED86FA4EC06F028C00E
:103B1000D8F0010ED96F3BEC09F0200EE56F48ECB0
:103B200004F0200EE56F48EC04F0200EE56F48EC41
:103B300004F02850100802E2100E286E928480B41F
:103B400008D028500F0805E3282A320EEB6F65ECE9
:103B500003F0928680B607D0285205E02806320E80
:103B6000EB6F65EC03F0928880B820D0050EA96E4B
:103B700028C0A8FFA69CA69EA684F250006EF29EC6
:103B80000F01550EA76EAA0EA76EA682A6B2FED78B
:103B9000A6940050F212640E0001EB6F65EC03F086
:103BA0000C0EE56F48EC04F0640E196E928A80BA30
:103BB00012D0010E196E386A020ED46FFA0EEB6F36
:103BC00065EC03F0D42FFAD7020E1D6E1F6E0C0E9B
:103BD000E56F48EC04F019500608D8A45BD1010E3B
:103BE000E66FE76F17EC04F0740EF66E050EF76ED5
:103BF00077EC04F0010EE66F020EE76F17EC04F0AD
:103C00008A0EF66E050EF76E77EC04F0010EE66F85
:103C1000030EE76F17EC04F0A00EF66E050EF76EBC
:103C2000090ED86FA4EC06F0010EE96EC7C0DBF0F8
:103C3000C6C0DAF0C5C0D9F0C4C0D8F0DC6F5CEC07
:103C400008F0200EE56F48EC04F0200EE56F48EC1C
:103C500004F0200EE56F48EC04F0DC6BDB6B200E0B
:103C6000DA6F820ED96FC7C0E0F0C6C0DFF0C5C002
:103C7000DEF0C4C0DDF069EC06F006E3C76BC66B8E
:103C8000200EC56F820EC46F928480B430D0C7C03E
:103C9000DCF0C6C0DBF0C5C0DAF0C4C0D9F0E06B20
:103CA000DF6B200EDE6F820EDD6F69EC06F01FE326
:103CB000D892C7C0E0F0C6C0DFF0C5C0DEF0C4C017
:103CC000DDF0CD0EE46FCC0EE36F4C0EE26F7B0E99
:103CD000E16F34EC05F003C0C7F002C0C6F001C0CC
:103CE000C5F000C0C4F0320EEB6F65EC03F09286B5
:103CF00080B632D0CD0EDC6FCC0EDB6F4C0EDA6F9F
:103D00007B0ED96FC7C0E0F0C6C0DFF0C5C0DEF0E3
:103D1000C4C0DDF069EC06F01FE3D882C7C0E0F054
:103D2000C6C0DFF0C5C0DEF0C4C0DDF0CD0EE46F6C
:103D3000CC0EE36F4C0EE26F7B0EE16F34EC05F0BE
:103D400003C0C7F002C0C6F001C0C5F000C0C4F097
:103D5000320EEB6F65EC03F0928880B886D0C7C056
:103D6000D7F0C6C0D6F0C5C0D5F0C4C0D4F01FECA3
:103D700009F001C02EF0DF6B2EC0DEF0D6EC03F0B0
:103D8000D882C7C0E0F0C6C0DFF0C5C0DEF0C4C056
:103D9000DDF003C0E4F002C0E3F001C0E2F000C0D7
:103DA000E1F034EC05F003C0CBF002C0CAF001C072
:103DB000C9F000C0C8F0CBC0E8F0CAC0E7F0C9C085
:103DC000E6F0C8C0E5F0EC6BEB6B200EEA6F820EFC
:103DD000E96F86EC07F003C0D7F002C0D6F001C04F
:103DE000D5F000C0D4F01FEC09F001C02FF0060E92
:103DF000A96E2EC0A8FFA69CA69EA684F250006EB7
:103E0000F29E0F01550EA76EAA0EA76EA682A6B24D
:103E1000FED7A6940050F212140E0001EB6F65EC71
:103E200003F0070EA96E2FC0A8FFA69CA69EA6842D
:103E3000F250006EF29E0F01550EA76EAA0EA76EED
:103E4000A682A6B2FED7A6940050F212020E00017E
:103E5000D46FFA0EEB6F65EC03F0D42FFAD70C0E8B
:103E6000E56F48EC04F0640E196E928A80BA12D0A5
:103E7000010E196E386A020ED46FFA0EEB6F65EC04
:103E800003F0D42FFAD7020E1D6E1F6E0C0EE56FD5
:103E900048EC04F019500708D8A458D1010EE66F79
:103EA000E76F17EC04F0B20EF66E050EF76E77ECC6
:103EB00004F0010EE66F020EE76F17EC04F0C80E77
:103EC000F66E050EF76E77EC04F0010EE66F030E4A
:103ED000E76F17EC04F0DE0EF66E050EF76E060EB9
:103EE000D86FA4EC06F0010EE96EBBC0DBF0BAC0DF
:103EF000DAF0B9C0D9F0B8C0D8F0DC6F5CEC08F0EB
:103F0000E90EF66E050EF76E050ED86FA4EC06F0FE
:103F1000DC6BDB6B600EDA6F820ED96FBBC0E0F03A
:103F2000BAC0DFF0B9C0DEF0B8C0DDF069EC06F071
:103F300006E3BB6BBA6B600EB96F820EB86F9284EA
:103F400080B431D0BBC0DCF0BAC0DBF0B9C0DAF06D
:103F5000B8C0D9F0660EE06FDF6F5E0EDE6F820EC6
:103F6000DD6F69EC06F01FE3D892BBC0E0F0BAC089
:103F7000DFF0B9C0DEF0B8C0DDF0CD0EE46FCC0EDE
:103F8000E36F4C0EE26F7B0EE16F34EC05F003C083
:103F9000BBF002C0BAF001C0B9F000C0B8F0320EF8
:103FA000EB6F65EC03F0928680B632D0CD0EDC6FFD
:103FB000CC0EDB6F4C0EDA6F7B0ED96FBBC0E0F01E
:103FC000BAC0DFF0B9C0DEF0B8C0DDF069EC06F0D1
:103FD0001FE3D882BBC0E0F0BAC0DFF0B9C0DEF0AA
:103FE000B8C0DDF0CD0EE46FCC0EE36F4C0EE26F87
:103FF0007B0EE16F34EC05F003C0BBF002C0BAF0F9
:1040000001C0B9F000C0B8F0320EEB6F65EC03F000
:10401000928880B886D0BBC0D7F0BAC0D6F0B9C0FD
:10402000D5F0B8C0D4F01FEC09F001C030F0DF6B60
:1040300030C0DEF0D6EC03F0D882BBC0E0F0BAC0EE
:10404000DFF0B9C0DEF0B8C0DDF003C0E4F002C0BC
:10405000E3F001C0E2F000C0E1F034EC05F003C091
:10406000CBF002C0CAF001C0C9F000C0C8F0CBC09C
:10407000E8F0CAC0E7F0C9C0E6F0C8C0E5F0EC6BF4
:10408000EB6B200EEA6F820EE96F86EC07F003C03F
:10409000D7F002C0D6F001C0D5F000C0D4F01FECBC
:1040A00009F001C031F0080EA96E30C0A8FFA69C2F
:1040B000A69EA684F250006EF29E0F01550EA76ECA
:1040C000AA0EA76EA682A6B2FED7A6940050F21240
:1040D000140E0001EB6F65EC03F0090EA96E31C000
:1040E000A8FFA69CA69EA684F250006EF29E0F0129
:1040F000550EA76EAA0EA76EA682A6B2FED7A694EC
:104100000050F212020E0001D46FFA0EEB6F65EC54
:1041100003F0D42FFAD70C0EE56F48EC04F0640ED0
:10412000196E928A80BA12D0010E196E386A020E88
:10413000D46FFA0EEB6F65EC03F0D42FFAD7020EB2
:104140001D6E1F6E0C0EE56F48EC04F01950080848
:10415000D8A447D1010EE66FE76F17EC04F0F00E1C
:10416000F66E050EF76E090ED86FA4EC06F0010E80
:10417000E96EB7C0DBF0B6C0DAF0B5C0D9F0B4C0B4
:10418000D8F0DC6F5CEC08F0200EE56F48EC04F032
:10419000010EE66F020EE76F17EC04F0620EE56F9A
:1041A00048EC04F03A0EE56F48EC04F0890EE96E35
:1041B000C3C0DBF0C2C0DAF0C1C0D9F0C0C0D8F0D3
:1041C000020EDC6F5CEC08F0200EE56F48EC04F0AA
:1041D000580EE56F48EC04F03D0EE56F48EC04F036
:1041E000010EE96EA3C0DBF0A2C0DAF0A1C0D9F0E5
:1041F000A0C0D8F0DC6B5CEC08F00F0EF66E060E7B
:10420000F76E040ED86FA4EC06F0010EE96EABC099
:10421000DBF0AAC0DAF0A9C0D9F0A8C0D8F0DC6BF6
:104220005CEC08F0010EE66F030EE76F17EC04F08C
:10423000590EE56F48EC04F0300EE56F48EC04F0E1
:104240003D0EE56F48EC04F0010EE96EA7C0DBF00F
:10425000A6C0DAF0A5C0D9F0A4C0D8F0DC6F5CEC41
:1042600008F0220EF66E060EF76E040ED86FA4EC60
:1042700006F0010EE96EAFC0DBF0AEC0DAF0ADC003
:10428000D9F0ACC0D8F0DC6F5CEC08F0200EE56F24
:1042900048EC04F02AC0D8F0010ED96F3BEC09F0CD
:1042A000010EE66F040EE76F17EC04F0D96BF1EC2A
:1042B00003F000C0D4F001C0D5F002C0D6F003C0B6
:1042C000D7F0320EF66E060EF76E090ED86FA4EC1C
:1042D00006F02DC0D8F0010ED96F3BEC09F03F0E6F
:1042E000F66E060EF76E050ED86FA4EC06F0010E02
:1042F000E96ED7C0DBF0D6C0DAF0D5C0D9F0D4C0B3
:10430000D8F0DC6B5CEC08F0200EE56F48EC04F0B4
:10431000DF6B2DC0DEF0D6EC03F0DC6BDB6B200E28
:10432000DA6F820ED96F03C0E0F002C0DFF001C087
:10433000DEF000C0DDF069EC06F002E30A0E2D6E3F
:10434000928480B408D02D50090805E32D2A320E3E
:10435000EB6F65EC03F0928680B607D02D5205E036
:104360002D06320EEB6F65EC03F0928880B824D0F6
:10437000460EA96E2DC0A8FFA69CA69EA684F2504C
:10438000006EF29E0F01550EA76EAA0EA76EA682B2
:10439000A6B2FED7A6940050F212020E0001D46F0E
:1043A000FA0EEB6F65EC03F0D42FFAD70C0EE56F25
:1043B00048EC04F0640E196E928A80BA12D0010E95
:1043C000196E386A020ED46FFA0EEB6F65EC03F0CB
:1043D000D42FFAD7020E1D6E1F6E0C0EE56F48EC3F
:1043E00004F019506408D8A445D118A4F5D0010EE2
:1043F000E66F020EE76F17EC04F0700EE56F48EC05
:1044000004F0480EE56F48EC04F03A0EE56F48EC16
:1044100004F0010EE96EB7C0DBF0B6C0DAF0B5C04B
:10442000D9F0B4C0D8F0DC6F5CEC08F0010EE66F98
:10443000030EE76F17EC04F04C0EF66E060EF76EE7
:10444000060ED86FA4EC06F024C0D8F0030ED96F86
:104450003BEC09F03A0EE56F48EC04F023C0D8F0CD
:10446000010ED96F3BEC09F05B0EF66E060EF76E8F
:10447000060ED86FA4EC06F017A210D0010EE66F5E
:10448000040EE76F17EC04F0620EF66E060EF76E80
:1044900077EC04F08C82959218905FD0010EE66F55
:1044A000040EE76F17EC04F06C0EF66E060EF76E56
:1044B00077EC04F08C92959218B04FD0320EA96E22
:1044C00022C0A8FFA69CA69EA684F250006EF29E73
:1044D0000F01550EA76EAA0EA76EA682A6B2FED732
:1044E000A6940050F212140E0001EB6F65EC03F07D
:1044F000330EA96E23C0A8FFA69CA69EA684F250E8
:10450000006EF29E0F01550EA76EAA0EA76EA68230
:10451000A6B2FED7A6940050F212140E0001EB6F63
:1045200065EC03F0340EA96E24C0A8FFA69CA69EDD
:10453000A684F250006EF29E0F01550EA76EAA0ED1
:10454000A76EA682A6B2FED7A6940050F212140E51
:104550000001EB6F65EC03F0188017A00FD00C0E74
:10456000E66F040EE76F17EC04F0760EF66E060E9B
:10457000F76E77EC04F08B8494940ED00C0EE66FFB
:10458000040EE76F17EC04F0800EF66E060EF76E61
:1045900077EC04F08B94949417A40FD00C0EE66F74
:1045A000020EE76F17EC04F08A0EF66E060EF76E39
:1045B00077EC04F08C8495940ED00C0EE66F020E0E
:1045C000E76F17EC04F0940EF66E060EF76E77ECBC
:1045D00004F08C9495941894928880B809D017B6FA
:1045E00006D0177417861E0EEB6F65EC03F001D032
:1045F0001796928680B609D017B806D0177217881A
:104600001E0EEB6F65EC03F001D01798968084B016
:104610000FD017928C929592010EE66FE76F17EC10
:1046200004F09E0EF66E060EF76E77EC04F011D0D5
:10463000010EE66FE76F17EC04F0B40EF66E060E8F
:10464000F76E77EC04F0968284A203D017948C94D2
:104650009594928480B40ED00C0EE56F48EC04F073
:104660001E0EEB6F65EC03F0010E196E386A020E38
:104670001D6E1F6E2B50090803E2ABEC03F02B6A92
:104680002C500A0801E22C6A17AE11D028C0D4F0D1
:1046900071EF09F003C0B7F002C0B6F001C0B5F089
:1046A00000C0B4F0195202E0C5EF0AF0179EFBEF0C
:0446B00010F0030003
:020000040030CA
:0E00000020C21E1E000781000FC00FE00F403F
:00000001FF
;PIC18F4550
;CRC=11E5  CREATED="11-feb.-20 16:45"
