:040000007DEF0DF093
:08000800046ED8CF05F0E0CF33
:1000100006F00001E9CF0CF0EACF07F0E1CF08F0DD
:10002000E2CF09F0D9CF0AF0DACF0BF0F3CF12F01C
:10003000F4CF13F0FACF14F000C00EF001C00FF0AF
:1000400002C010F003C011F09DA02AEF00F09EB096
:10005000C2EF00F00EC000F00FC001F010C002F0BF
:1000600011C003F00CC0E9FF07C0EAFF078E08C00B
:10007000E1FF09C0E2FF0AC0D9FF0BC0DAFF12C0DE
:10008000F3FF13C0F4FF14C0FAFF045006C0E0FFF2
:1000900005C0D8FF1000F2CF0DF0F29EF76AB00F46
:1000A000F66E000EF7220900F5500DBEF28E12001A
:1000B000280C0106202156616C6F7220416C6D6125
:1000C00063656E61646F20200000202020202020C6
:1000D0002020202020202020202020202020000060
:1000E00020202020436F7272656374616D656E74A9
:1000F00065212020000020202020202020202020FA
:1001000020202020202020202020000043616C2E71
:1001100020756E2050756E746F20202020202000E6
:1001200043616C2E20646F732050756E746F732062
:10013000202020004D65646961204D6F76696C2038
:1001400020202020202020005469656D706F2052EF
:10015000656E6F76616369F36E202000436172679C
:100160006120496E696369616C2020202020200095
:100170004D616E74656E696D69656E746F202020C7
:1001800020202000150ECF6EA00ECE6E392AD8B4D6
:100190003A2A3A5203E13950C70827E23A6A396AE3
:1001A000178C292A2A2A188218A003D03B2AD8B4EF
:1001B0003C2A18AC03D03D2AD8B43E2A18A403D058
:1001C000412AD8B4422A18A603D0432AD8B4442AD4
:1001D00017A20BD0212A21503C0802E1216A222AD1
:1001E00022503C0802E1226A232A9E902AEF00F066
:1001F00020202020205343525542424552202020A7
:1002000020202020000020202020202048554D457F
:10021000444F2020202020202020000020202020CB
:100220004A5020494E474C4F42414C20202020202C
:10023000000020205245463A4F505343523132304D
:100240002D303120202000002D2D2D4D454E5520E4
:100250005052494E434950414C2D2D2D00004361D1
:100260006C6962726163696F6E20756E2050756E85
:10027000746F000020496E67726573652076616C4B
:100280006F72202070482020000020202020202590
:10029000322E316620704820200020202043616CDF
:1002A0006962726163696F6E202020002020202027
:1002B00020457869746F73612020202020004361FD
:1002C0006C6962726163696F6E20646F7320507530
:1002D0006E740000496E67726573652076616C6F9D
:1002E0007220207048202575000020202020202525
:1002F000322E316620704820200020202043616C7F
:100300006962726163696F6E2020200020202020C6
:1003100020457869746F7361202020202000202000
:1003200020204D656469612020204D6F76696C2026
:100330002020000020202020496E67726573652010
:1003400076616C6F72202020000020202020202069
:100350002020253032752020200052656E6F766196
:1003600063696F6E2020204C69717569646F0000AD
:1003700020202020496E67726573652076616C6F5E
:100380007220202000002020205469656D706F3A93
:100390002530337520686F726173200020436172CD
:1003A000676120496E696369616C204261736520F1
:1003B0000000496E67726573652076616C6F72200C
:1003C000656E206D6C200000202020426173653A2C
:1003D0002530344C75206D6C202000004D544F2E7C
:1003E000202070483A25322E31662000623A2532AC
:1003F0002E326620583D25322E30662058313D255C
:10040000322E3066000059303D25322E316620599B
:10041000313D25322E316620253032750000542EB4
:100420002050756C736F3D25303275204144433A3E
:1004300025322E306620000054696D653A25303330
:10044000753A253032750000424F4D42413A4F4EC9
:100450002000424F4D42413A4F46460042415345EB
:100460003A4F4E200000424153453A4F4646000065
:10047000414755413A4F4E200000414755413A4FC0
:1004800046460000444553413A4F4E200000444543
:1004900053413A4F46460000214E4956454C2044B0
:1004A0004520414755412042414A4F2100004A50D2
:1004B0002053435255424245522054523A2530333C
:1004C00075206800EA6AE80EE96EEF500EE00F0E44
:1004D000016E006A002EFED7012EFBD78F0E006E34
:1004E000002EFED70000EF2EF2D7000C8C929592D2
:1004F0008C9495948B9494948C9895988C969596CE
:1005000055EF03F0E939F00B006E0F0E8114001067
:10051000816E080E006E002EFED78186DB0E006E07
:10052000002EFED700D08196000C8192010EE86F5C
:10053000C9DFE6A18192E6B18182080E006E002E2D
:10054000FED78194080E006E002EFED78196E73903
:10055000E86F0F0EE817E8C0E9F0D4DFE7510F0BA2
:10056000E86FE96FCFDF000C000E936E81928194EB
:1005700081960F0EE86FA6DF010ED16FD1510308EF
:1005800008E3030EE96FBEDF050EE86F9BDFD12B9A
:10059000F5D7020EE96FB6DFD16BD15103080EE338
:1005A000036AD151F2CFD2F0F29E75DDD2BFF28E46
:1005B000D26FE66BE76FB9DFD12BEFD7000C010EDE
:1005C000E45DFC0F0FE2040FFAEF02F0800EE56F1E
:1005D00009D0C00EE56F06D0940EE56F03D0D40E9F
:1005E000E56F00D0010EE35DE527E66BE5C0E7F0BF
:1005F0009CDF000CF2CF0DF0F29EE824F76AF7368C
:10060000190FF66E060EF7220A00F550FA6E080072
:10061000F5500DBEF28EF96ECC05D205D805DE057B
:10062000E251F10802E1EE0EE26FE251D10802E17F
:10063000FF0EE26FE2510C0A05E0060A0DE0020A25
:1006400012E016D0E66B010EE76F6FDF010E166E3B
:10065000020EE86F37DF12D0162A010EE36F16C0C4
:10066000E4F0ADDF0BD0E66B100EE76F5EDF06D077
:10067000010EE66FE2C0E7F058DF00D0000C040E78
:10068000D16FFA0EE86F1EDFD12FFBD7850ECD6E2E
:100690009D80C150C00B0D09C16EC090C082C09436
:1006A000C09EC280C00EF21221D75EDF0C0EE26F38
:1006B000B7DF60EF0EF08E0E006EDCC001F0DBC025
:1006C00002F0036A015209E102C001F0026A080E59
:1006D000005E015202E1006A08D0D89001BE04D049
:1006E000023601360006F9D7019E000CF2CFD1F098
:1006F000F29E050EA96EA69CA69EA680A850D1BF0C
:10070000F28E266E140EE86FDDDEF2CFD1F0F29E8F
:10071000060EA96EA69CA69EA680A850D1BFF28EFA
:100720002C6E140EE86FCEDE140EE86FCBDEF2CF27
:10073000D1F0F29E080EA96EA69CA69EA680A85097
:10074000D1BFF28E2E6E140EE86FBCDEF2CFD1F068
:10075000F29E090EA96EA69CA69EA680A850D1BFA7
:10076000F28E2D6E140EE86FADDE2DC040F02EC05F
:100770003FF0F2CFD1F0F29E140EA96EA69CA69E79
:10078000A680A850D1BFF28E2F6E140EE86F9ADEAD
:10079000F2CFD1F0F29E150EA96EA69CA69EA68061
:1007A000A850D1BFF28E306E140EE86F8BDEF2CF00
:1007B000D1F0F29E1E0EA96EA69CA69EA680A85001
:1007C000D1BFF28EDC6BDB6F76DF03C0A0F002C01E
:1007D0009FF001C09EF000C09DF0140EE86F72DE25
:1007E000F2CFD1F0F29E1F0EA96EA69CA69EA68007
:1007F000A850D1BFF28EDC6BDB6F5DDF03C0A8F0C9
:1008000002C0A7F001C0A6F000C0A5F0140EE86F6A
:1008100059DEF2CFD1F0F29E200EA96EA69CA69EC4
:10082000A680A850D1BFF28E316E140EE86F4ADE5A
:10083000F2CFD1F0F29E210EA96EA69CA69EA680B4
:10084000A850D1BFF28E326E140EE86F3BDEF2CFAD
:10085000D1F0F29E220EA96EA69CA69EA680A8505C
:10086000D1BFF28E336E140EE86F2CDEF2CFD1F0D2
:10087000F29E230EA96EA69CA69EA680A850D1BF6C
:10088000F28E346E140EE86F1DDEF2CFD1F0F29EC0
:10089000320EA96EA69CA69EA680A850D1BFF28E4D
:1008A000216E140EE86F0EDEF2CFD1F0F29E330E01
:1008B000A96EA69CA69EA680A850D1BFF28E226EDD
:1008C000140EE86FFFDDF2CFD1F0F29E340EA96E68
:1008D000A69CA69EA680A850D1BFF28E236E140EB1
:1008E000E86FF0DDF2CFD1F0F29E3C0EA96EA69C2F
:1008F000A69EA680A850D1BFF28E286E140EE86F77
:10090000E1DDF2CFD1F0F29E460EA96EA69CA69E26
:10091000A680A850D1BFF28E2B6E140EE86FD2DDE8
:1009200062EF0EF0DA51D8B4A5D0E66FDE51D8B43C
:10093000A1D0E65F05E37F0EE627D8B09BD006D0B6
:10094000810EE65FD8A096D0D8B494D0E6C000F06F
:10095000016A026A036AE56BDBC0E4F0E48FDCC085
:10096000E3F0DDC0E2F0190EE66FE151E25F0DE267
:10097000010EE35F0AE2E45F08E2E55F06E2E52BD1
:10098000E42BE32BE151E22728D0E051E35F12E2B0
:10099000010EE45F0FE2E55F0DE2E52BE42BE05191
:1009A000E327E151E22719E3E32B17E1E42B15E1FB
:1009B000E52B13D0DF518009E45F0EE2010EE55F05
:1009C0000BE2E52BDF518009E427E051E327E9E35F
:1009D000E42BE7E1E52BE5D70380E62F01D00BD030
:1009E000D890E237E337E437E537D890033602365C
:1009F0000136E737BAD7E7A106D0D89001320232E4
:100A00000332E73302D0000635E0E7BF1ED0D890AE
:100A1000E237E337E437E537E151E25F07E2010E01
:100A2000E35F04E2E45F02E2E55F1AE3E051E35FC3
:100A300005E2010EE45F02E2E55F12E3DF518009A7
:100A4000E45F03E2010EE55F0BE3032A09E1022AFA
:100A500007E1012A05E1002A0DE0013202320332EA
:100A6000DBC0E6F0DF51E61BE6AF02D0018E06D018
:100A7000019E04D0006A016A026A036A000C800EBB
:100A8000D8B2DF1BE46BE56BDBC0E3F0DF51E31BA7
:100A9000DA51D8B4DCD0E26F006EDE51D8B4E0D0C9
:100AA000E25FD8B481D03DE3DFC0E8F0E88FE0C07A
:100AB000E7F0E1C0E6F0E56BD890E833E733E633E2
:100AC000E533E22FF8D7E3AF03D0E481DDD0E49142
:100AD000E291E489EA6ADD0EE96EE9D0E499E3BFC8
:100AE0000AD0E2A113D0E833E733E633E533002A36
:100AF000D8B4C5D00BD0E8BF0CD0D890E537E637D6
:100B0000E737E8370006D8B4BAD0F5D7E48D6BD014
:100B1000E49DDBC0E3F0DBAF02D0E88FA9D0E89F13
:100B2000A7D0DEC0E2F0DEC000F0DA51E25FDBC049
:100B3000E8F0E88FDCC0E7F0DDC0E6F0E56BD890C8
:100B4000E833E733E633E533E22FF8D7E3AF03D0FA
:100B5000E4839AD0E493E291E48BEA6AE10EE96ED1
:100B6000A6D0E49BE3BF0AD0E2A113D0E833E73379
:100B7000E633E533002AD8B482D00BD0E8BF0CD0DE
:100B8000D890E537E637E737E8370006D8B477D0AE
:100B9000F5D7E48F28D0E49FDFC0E3F0DFAF02D0C9
:100BA000E88F66D0E89F64D0DFC0E8F0E88FE0C04F
:100BB000E7F0E1C0E6F0E3AF04D0E89FE48564D05D
:100BC000E495E56BE291EA6ADD0EE96E70D0E3BF71
:100BD0001CD0DBC0E3F0E2A106D0E833E733E63314
:100BE000E533002A4CE0E5AF0BD0E62B09E1E72B1B
:100BF00007E1E82B05E1E833E733E633002A3FE07D
:100C0000E4BD86D7E4BFC7D71CD0800EE81BE8AF91
:100C100004D03AD0DFC0E3F00AD0DBC0E3F0E85301
:100C200006E1E75304E1E65302E1006A21D0E8BFA0
:100C300008D0D890E537E637E737E837002EF7D702
:100C40001ED0E3AF02D0E88F13D0E89F11D0DEC0F2
:100C500000F0DFC0E8F0E0C0E7F0E1C0E6F008D067
:100C6000DAC000F0DBC0E8F0DCC0E7F0DDC0E6F0A1
:100C7000E8C001F0E7C002F0E6C003F034D0006A3B
:100C8000016A026A036A2FD0E56BE61FE71FE81FBF
:100C9000E51FE52B05E1E62B03E1E72B01E1E82B5E
:100CA000E4B115D7E4B356D7E4B58AD7B3D7EF503C
:100CB000E62705E3E72B03E1E82BD8B4E281ED5208
:100CC000EF50E72703E3E82BD8B4E281ED52EF5071
:100CD000EFBE01D0800AE827D8B0E281E4B9FED6A1
:100CE000E4BB3FD774D7000CDBC0E2F0DF51E21B5E
:100CF000E2AF05D0D894D890DBBFD8802FD0DBC02E
:100D0000E2F0DEC0E3F0DA51E35F06E0E2AF26D0C6
:100D1000D850010AD86E22D0DFC0E3F0DB51E35F88
:100D200006E0E2AF1BD0D850010AD86E17D0E0C061
:100D3000E3F0DC51E35F06E0E2AF10D0D850010AE7
:100D4000D86E0CD0E1C0E3F0DD51E35F06E0E2AF26
:100D500005D0D850010AD86E01D0D890000CDC6BB9
:100D600032C0DBF0A8DC03C0DDF002C0DCF001C063
:100D7000DBF000C0DAF0E16BE06B200EDF6F820E7B
:100D8000DE6FD0DD03C0C8F002C0C7F001C0C6F0FE
:100D900000C0C5F0DC6B31C0DBF08DDCD89203C045
:100DA000DDF002C0DCF001C0DBF000C0DAF0C8C04A
:100DB000E1F0C7C0E0F0C6C0DFF0C5C0DEF05FDE26
:100DC00003C0A4F002C0A3F001C0A2F000C0A1F0D3
:100DD000DC6B34C0DBF06FDC03C0DDF002C0DCF0A4
:100DE00001C0DBF000C0DAF0E16BE06B200EDF6FDA
:100DF000820EDE6F97DD03C0C8F002C0C7F001C0ED
:100E0000C6F000C0C5F0DC6B33C0DBF054DCD89218
:100E100003C0DDF002C0DCF001C0DBF000C0DAF09E
:100E2000C8C0E1F0C7C0E0F0C6C0DFF0C5C0DEF06A
:100E300026DE03C0ACF002C0ABF001C0AAF000C0D7
:100E4000A9F0DC6B30C0DBF036DC03C0DDF002C0A3
:100E5000DCF001C0DBF000C0DAF0E16BE06B480EC3
:100E6000DF6F850EDE6F5EDD03C0C8F002C0C7F025
:100E700001C0C6F000C0C5F0DC6B2FC0DBF01BDC8E
:100E8000D89203C0DDF002C0DCF001C0DBF000C08E
:100E9000DAF0C8C0E1F0C7C0E0F0C6C0DFF0C5C0FE
:100EA000DEF0EDDD03C0C0F002C0BFF001C0BEF057
:100EB00000C0BDF026500A081CE20A0E266E050E80
:100EC000A96E0A0EA86EA69CA69EA684F250006E7D
:100ED000F29E0F01550EA76EAA0EA76EA682A6B2AD
:100EE000FED7A6940050F2121E0E0001E86F62ECCD
:100EF00002F02C5064081CE2640E2C6E060EA96EE3
:100F0000640EA86EA69CA69EA684F250006EF29E69
:100F10000F01550EA76EAA0EA76EA682A6B2FED727
:100F2000A6940050F2121E0E0001E86F62EC02F06F
:100F3000405012083DE2FF0A03E13F50880838E2C2
:100F4000010E406EF40E3F6E080EA96EF40EA86EF0
:100F5000A69CA69EA684F250006EF29E0F01550E2E
:100F6000A76EAA0EA76EA682A6B2FED7A6940050C0
:100F7000F2121E0E0001E86F62EC02F0090EA96E7B
:100F8000010EA86EA69CA69EA684F250006EF29E4C
:100F90000F01550EA76EAA0EA76EA682A6B2FED7A7
:100FA000A6940050F2121E0E0001E86F62EC02F0EF
:100FB0002350960801E2236A22503B0801E2226A8C
:100FC00021503B0801E2216ADD6BDC6B200EDB6FF8
:100FD000820EDA6FC0C0E1F0BFC0E0F0BEC0DFF04B
:100FE000BDC0DEF081DE08E30A0EC06FD70EBF6F12
:100FF000230EBE6F7D0EBD6FDD6BDC6B7A0EDB6F7B
:10100000860EDA6FA0C0E1F09FC0E0F09EC0DFF076
:101010009DC0DEF069DE06E3A06B9F6B700E9E6FD5
:10102000840E9D6FDD6BDC6B7A0EDB6F860EDA6FE4
:10103000A8C0E1F0A7C0E0F0A6C0DFF0A5C0DEF0D8
:1010400053DE06E3A86BA76B4E0EA66F850EA56F49
:10105000DD6BDC6B200EDB6F820EDA6FA4C0E1F07B
:10106000A3C0E0F0A2C0DFF0A1C0DEF03DDE05E3EA
:10107000A46BA36BA26B810EA16FDD6BDC6B600EAA
:10108000DB6F820EDA6FACC0E1F0ABC0E0F0AAC05B
:10109000DFF0A9C0DEF028DE06E3AC6BAB6B600EC0
:1010A000AA6F810EA96F2850140802E2140E286E50
:1010B00064EF0EF00900F5520DE0F6CFD4F0F7CF53
:1010C000D5F0F5CFE2F010EC03F0D4C0F6FFD5C0B8
:1010D000F7FFF0D7000CD22D0BD0020EE36FD3C078
:1010E000E4F0DFEC02F00C0EF66E010EF76EE2DFBC
:1010F000D25102080BE1020EE36FD3C0E4F0DFEC43
:1011000002F0200EF66E010EF76ED4DFD251030806
:101110000BE1020EE36FD3C0E4F0DFEC02F0340E1B
:10112000F66E010EF76EC6DFD25104080BE1020E17
:10113000E36FD3C0E4F0DFEC02F0480EF66E010E70
:10114000F76EB8DFD25105080BE1020EE36FD3C092
:10115000E4F0DFEC02F05C0EF66E010EF76EAADF33
:10116000D25106080BE1020EE36FD3C0E4F0DFECCE
:1011700002F0700EF66E010EF76E9CDF000C090097
:10118000F6CFD6F0F7CFD7F0F5CFE2F010EC03F0C2
:10119000D6C0F6FFD7C0F7FFD52FF1D7000CE2512C
:1011A000D8B471D0006EE651D8B46DD0002604E3F7
:1011B000810E002668E204D07F0E005E64E363E0E7
:1011C000E3C0EAF0E751EA1BE38FE78FE551E9035B
:1011D000F4CFECF0E451E803F4CF03F0F3CFEBF0FD
:1011E000E903F350EC27F450EB23000E0322E55102
:1011F000E803F350EC27F450EB23000E026A0322BD
:101200000222E351E903F350EB27F4500322000ECE
:101210000222E351E803F3500326F4500222000EA9
:10122000016A0122E551E703F350EB27F450032252
:10123000000E02220122E451E703F3500326F4508A
:101240000222000E0122E351E703F3500226F4507C
:101250000122002A01BE05D0EB37033602360136E3
:101260000006000EEBAF0AD0032A02220122015031
:1012700005E1025003E1035001E1002AEABF018EBB
:10128000EAAF019E04D0006A016A026A036A000C98
:10129000E251B608E26F036AE3C0E6F0E38FD8904C
:1012A000E333E433E5330332023201320032E22F1A
:1012B000F6D7E6AF0BD0001E011E021E031E002A49
:1012C000D8B4012AD8B4022AD8B4032ACCEF09F042
:1012D000006A016A026A036AEA6BEB6BEC6BED6B06
:1012E000E951E811E711E6112CE0200EEE6FD890DD
:1012F000E237E337E437E537EA37EB37EC37ED37FA
:10130000E951ED5D08E1E851EC5D05E1E751EB5D88
:1013100002E1E651EA5D0FE3E651EA5FE751D8A04A
:10132000E73DEB5FE851D8A0E83DEC5FE951D8A07C
:10133000E93DED5FD8800036013602360336EE2FE8
:10134000D6D7EA6AEA0EE96E000CE950DA6FD95195
:10135000DC6F19E0D8C0E5F0D7C0E4F0D6C0E3F008
:10136000D5C0E2F0E96BE86B200EE76F820EE66F06
:1013700016DF03C0D8F002C0D7F001C0D6F000C01D
:10138000D5F0DC2FE7D7D8C0E5F0D7C0E4F0D6C061
:10139000E3F0D5C0E2F07CD703C0D8F002C0D7F0AC
:1013A00001C0D6F000C0D5F0D8AF0DD0DA07DA8B87
:1013B000D51FD61FD71FD81FD52BD8B4D62BD8B43E
:1013C000D72BD8B4D82B3B0EE16F9A0EE06FCA0E24
:1013D000DF6FDE6B0A0EDC6FD951D8B4DA2BD8C0C0
:1013E000E5F0D7C0E4F0D6C0E3F0D5C0E2F0E1C04C
:1013F000E9F0E0C0E8F0DFC0E7F0DEC0E6F068DF6B
:101400000150EFCFD5F0ECCFD6F0ECCFD7F0ECCF4A
:10141000D8F000520FE1D929DC5D0CE0DA510CE084
:101420000F0BDC5D01E03BE2DABF39D0DABD04D05E
:10143000200E30D0200EDA17DAAB0DD0DA9BD9515E
:10144000D8A4DA070050DA6F2D0EE26F10EC03F02B
:10145000DA51006EDA6BD951DC5D0BE10050DA6FC6
:101460002E0EE26F10EC03F0DA51006E200EDA1748
:10147000000E300EDAAB0ED0DA9BD951D8A4DA07C1
:101480000050DA6F2D0EE26F10EC03F0DA51006EAF
:10149000DA6B300E002600C0E2F010EC03F0E1C081
:1014A000E5F0E0C0E4F0DFC0E3F0DEC0E2F0E96BBD
:1014B000E86BE76B0A0EE66F0BDF03C0E1F002C0DA
:1014C000E0F001C0DFF000C0DEF0DC2F88D7000CB8
:1014D0008E0E006ED151005ED2C002F0D3C001F07A
:1014E000028E005209E0D890025202E1015204E05B
:1014F00002320132002EF7D7D2AF05D0011E021EF4
:10150000012AD8B4022A000CD851016AD75D03E23F
:10151000D7C000F00CD0006A080ED96FD73700365C
:10152000D851005CD8B0006E0136D92FF7D7000C27
:101530000150D5C0D7F0640ED86FE6DF00C0D5F0FB
:101540000150300E07E1D6A30DD0D6B70BD0D6B9D7
:10155000200E03D0D697D699D681012601C0E2F09D
:1015600010EC03F0D5C0D7F00A0ED86FCDDF00C065
:10157000D5F00150300E06E1D6B709D0D6A107D07C
:10158000D6B9200E012601C0E2F010EC03F0300EB7
:10159000D527D5C0E2F010EC03F0000CD635006E74
:1015A0000036FC0E001600C001F0C250C30B001044
:1015B000C26E0A0EE86F62EC02F0C282C2B2FED7BF
:1015C000C450DC6BDB6F5BEC03F003C0DAF002C0ED
:1015D000D9F001C0D8F000C0D7F0D7C000F0D8C013
:1015E00001F0D9C002F0DAC003F0000C0C0EE26F7B
:1015F00010EC03F0010EE36F020EE46FDFEC02F07B
:10160000B40EF66E000EF76E55DD010EE36F040E9C
:10161000E46FDFEC02F0CA0EF66E000EF76E4ADDE4
:10162000010EE36F030EE46FDFEC02F0E00EF66EE6
:10163000000EF76E3FDD010EE36FE46FDFEC02F0AA
:10164000F60EF66E000EF76E35DD080ED16FFA0E4F
:10165000E86F62EC02F0D12FFAD70C0EE26F10ECBB
:1016600003F0000CEACFD9F0E9CFD8F0D239F00975
:10167000D46FD427E20FD56F320FD76FD2510F0B33
:10168000D527D527D727E90FD66FD627D627D13923
:101690000F0BD627D727D637D737D71FD737D151F4
:1016A0000F0BD727D437070ED36F0A0ED607D727CD
:1016B000FDE3D507D627FDE3D407D527FDE3D30700
:1016C000D427FDE3EA6AD30EE96E070ED815D89D3C
:1016D000E926D70EE95CD8B4D88DEF50006E08E14A
:1016E000D8BD06D0D8B914D0D8B702D0200E03D0B8
:1016F000D887D899300E0026EACFD2F0E9CFD1F0C2
:1017000000C0E2F010EC03F0D2C0EAFFD1C0E9FF64
:10171000EE50D8ADDED7ABEF17F083B20AD0640E2F
:10172000E86F62EC02F0B4EC02F0640EE86F62EC79
:1017300002F08C8295921782179E000C83A20AD029
:10174000640EE86F62EC02F0B4EC02F0640EE86F35
:1017500062EC02F08C929592179217BE4FD0320E27
:10176000A96E21C0A8FFA69CA69EA684F250006E7A
:10177000F29E0F01550EA76EAA0EA76EA682A6B204
:10178000FED7A6940050F212140E0001E86F62EC2E
:1017900002F0330EA96E22C0A8FFA69CA69EA684C6
:1017A000F250006EF29E0F01550EA76EAA0EA76EA4
:1017B000A682A6B2FED7A6940050F212140E000123
:1017C000E86F62EC02F0340EA96E23C0A8FFA69C5D
:1017D000A69EA684F250006EF29E0F01550EA76ED3
:1017E000AA0EA76EA682A6B2FED7A6940050F21249
:1017F000140E0001E86F62EC02F0178E000CD56B3E
:10180000D46BD36BD26BD66BC9DE03C098F002C029
:1018100097F001C096F000C095F0D882A8C0DDF026
:10182000A7C0DCF0A6C0DBF0A5C0DAF0A0C0E1F0F4
:101830009FC0E0F09EC0DFF09DC0DEF03FEC05F001
:1018400000C0D6F001C0D7F002C0D8F003C0D9F074
:10185000DD6BDC6BDB6BDA6B03C0E1F002C0E0F048
:1018600001C0DFF000C0DEF074EC06F048E3D8827F
:10187000ACC0DDF0ABC0DCF0AAC0DBF0A9C0DAF090
:10188000A4C0E1F0A3C0E0F0A2C0DFF0A1C0DEF090
:101890003FEC05F000C0D6F001C0D7F002C0D8F090
:1018A00003C0D9F0D882A8C0DDF0A7C0DCF0A6C084
:1018B000DBF0A5C0DAF0A0C0E1F09FC0E0F09EC070
:1018C000DFF09DC0DEF03FEC05F0D9C0DDF0D8C000
:1018D000DCF0D7C0DBF0D6C0DAF003C0E1F002C024
:1018E000E0F001C0DFF000C0DEF092EC04F003C0D5
:1018F000BCF002C0BBF001C0BAF000C0B9F0285083
:101900000A0834E1BCC0E5F0BBC0E4F0BAC0E3F0C3
:10191000B9C0E2F098C0E9F097C0E8F096C0E7F0EF
:1019200095C0E6F03CDC00C0D6F001C0D7F002C0A4
:10193000D8F003C0D9F0D89203C0DDF002C0DCF0CB
:1019400001C0DBF000C0DAF0C0C0E1F0BFC0E0F0E1
:10195000BEC0DFF0BDC0DEF03FEC05F003C09CF080
:1019600002C09BF001C09AF000C099F02850140802
:1019700034E1BCC0E5F0BBC0E4F0BAC0E3F0B9C0EC
:10198000E2F098C0E9F097C0E8F096C0E7F095C0A3
:10199000E6F005DC00C0D6F001C0D7F002C0D8F0F8
:1019A00003C0D9F0D88203C0DDF002C0DCF001C072
:1019B000DBF000C0DAF0C0C0E1F0BFC0E0F0BEC0B4
:1019C000DFF0BDC0DEF03FEC05F003C09CF002C0CC
:1019D0009BF001C09AF000C099F09CC0DDF09BC064
:1019E000DCF09AC0DBF099C0DAF0E16BE06BDF6B02
:1019F000DE6B74EC06F004E39C6B9B6B9A6B996B4B
:101A0000010ED15D245C02E001E3246A2450040D40
:101A1000F350036A450FE96E000E0320EA6E99C089
:101A2000EFFF9AC0ECFF9BC0ECFF9CC0ECFF242AA8
:101A3000256A010ED15D255C01E036E22550040DDA
:101A4000F350036A450FE96E000E0320EA6EEFCFF4
:101A500000F0ECCF01F0ECCF02F0ECCF03F0EACFD6
:101A6000D7F0E9CFD6F0D892D5C0DDF0D4C0DCF005
:101A7000D3C0DBF0D2C0DAF003C0E1F002C0E0F086
:101A800001C0DFF000C0DEF03FEC05F0D7C0EAFF98
:101A9000D6C0E9FF03C0D5F002C0D4F001C0D3F036
:101AA00000C0D2F0252AC5D7DC6BD1C0DBF05BECDF
:101AB00003F0D5C0DDF0D4C0DCF0D3C0DBF0D2C081
:101AC000DAF003C0E1F002C0E0F001C0DFF000C0D6
:101AD000DEF092EC04F003C0D5F002C0D4F001C0F7
:101AE000D3F000C0D2F0D2C000F0D3C001F0D4C017
:101AF00002F0D5C003F0ABEF1BF0F86AD09E078E62
:101B0000EA6AE96A17901792179417961798179A26
:101B1000179C179E18901892189418961898189A4F
:101B2000189C196A070E1A6E020E1B6E1C6E030EAD
:101B30001D6E020E1E6E1F6E040E206E216A226A3A
:101B4000236A246A256A060E266E010E276E0A0E87
:101B5000286E296A2A6A030E2B6E0A0E2C6E2D6AD5
:101B60002E6A2F6A306A316A326A336A346A356A99
:101B70003C6A3B6A3E6A3D6A406A640E3F6E426A56
:101B8000416A446A436A986B976B966B956B9C6B42
:101B90009B6B9A6B996BA06B9F6B9E6B9D6BA46B01
:101BA000A36BA26BA16BA86BA76BA66BA56BAC6BB1
:101BB000AB6BAA6BA96BB06BAF6BAE6B810EAD6FED
:101BC000B46BB36BB26BB16BB86BB76B600EB66FC7
:101BD000810EB56FBC6BBB6BBA6BB96BC06BBF6B67
:101BE000BE6BBD6BC46BC36BC26BC16BC86BC76B89
:101BF000C66BC56BCC6BCB6BCA6BC96BD06BCF6B39
:101C0000CE6BCD6BC150C00B0F09C16E070EB46E09
:101C10003E0E366E200E376E5E0E386E456A466A90
:101C2000476A486A496A4A6A4B6A4C6A4D6A4E6A10
:101C30004F6A506A516A526A536A546A556A566AC0
:101C4000576A586A596A5A6A5B6A5C6A5D6A5E6A70
:101C50005F6A606B616B626B636B646B656B666B19
:101C6000676B686B696B6A6B6B6B6C6B6D6B6E6BC8
:101C70006F6B706B716B726B736B746B756B766B78
:101C8000776B786B796B7A6B7B6B7C6B7D6B7E6B28
:101C90007F6B806B816B826B836B846B856B866BD8
:101CA000876B886B896B8A6B8B6B8C6B8D6B8E6B88
:101CB0008F6B906B916B926B936B946B3FEF03F018
:101CC00076EF03F0AFEF06F0010EE36FE46FDFECA9
:101CD00002F0F00EF66E010EF76E5AEC08F0010EEF
:101CE000E36F020EE46FDFEC02F0060EF66E020EFA
:101CF000F76E5AEC08F0010EE36F030EE46FDFECB1
:101D000002F01C0EF66E020EF76E5AEC08F0010E91
:101D1000E36F040EE46FDFEC02F0320EF66E020E9B
:101D2000F76E5AEC08F0060ED16FFA0EE86F62EC0F
:101D300002F0D12FFAD70C0EE26F10EC03F0928470
:101D400080B457D0040ED16FFA0EE86F62EC02F047
:101D5000D12FFAD7928480B44CD0320EA96EA86AE3
:101D6000A69CA69EA684F250006EF29E0F01550E10
:101D7000A76EAA0EA76EA682A6B2FED7A6940050A2
:101D8000F2120A0E0001E86F62EC02F0330EA96E47
:101D9000A86AA69CA69EA684F250006EF29E0F0131
:101DA000550EA76EAA0EA76EA682A6B2FED7A6945F
:101DB0000050F2120A0E0001E86F62EC02F0340EDD
:101DC000A96EA86AA69CA69EA684F250006EF29EFA
:101DD0000F01550EA76EAA0EA76EA682A6B2FED759
:101DE000A6940050F2120A0E0001E86F62EC02F0B5
:101DF000FF00640E196E192CF1D0010EE36FE46F31
:101E0000DFEC02F0480EF66E020EF76E5AEC08F0A8
:101E100035BE01D001D0356A928480B40DD017B69A
:101E20000AD01E061C06010E1C241D6E17861E0EEF
:101E3000E86F62EC02F001D01796928680B60DD062
:101E400017BA0AD01E2A1C2A010E1C5C1D6E178AA6
:101E50001E0EE86F62EC02F001D0179A1E50205C53
:101E600008E2352A1EC020F0020E205C1F6E040E10
:101E70001C6E1F501E5C08E235061EC01FF0020ECD
:101E80001F24206E020E1C6E1E501A5C09E21BC03D
:101E90001EF0020E1C6E356A1EC01FF01F24206E3D
:101EA0001B501E5C0BE21AC01EF0040E1C6E1A5C66
:101EB000356E1EC020F0020E205C1F6E010E352410
:101EC000D16FD26F020ED36F6BEC08F0020E352487
:101ED000D16FD26F030ED36F6BEC08F0030E352475
:101EE000D16FD26F040ED36F6BEC08F0010EE36F6D
:101EF0001CC0E4F0DFEC02F036C0E2F010EC03F0BE
:101F00001C50020814E1010EE36F040EE46FDFECD5
:101F100002F037C0E2F010EC03F0010EE36F030EA5
:101F2000E46FDFEC02F037C0E2F010EC03F01C507D
:101F3000040814E1010EE36F020EE46FDFEC02F01F
:101F400037C0E2F010EC03F0010EE36F030EE46F14
:101F5000DFEC02F037C0E2F010EC03F01C50030895
:101F600014E1010EE36F040EE46FDFEC02F037C002
:101F7000E2F010EC03F0010EE36F020EE46FDFEC11
:101F800002F037C0E2F010EC03F0928880B814D071
:101F900017B811D017881EC019F0030E1C6E020E60
:101FA000D16F960EE86F62EC02F0D12FFAD70C0ECB
:101FB000E26F10EC03F001D01798928A80BA0ED02D
:101FC000640E196E0C0EE26F10EC03F0020ED16F6E
:101FD000FA0EE86F62EC02F0D12FFAD7195002081E
:101FE000D8A404D2010EE36FE46FDFEC02F05E0EC2
:101FF000F66E020EF76E5AEC08F0010EE36F020E59
:10200000E46FDFEC02F0740EF66E020EF76E5AEC1F
:1020100008F0010EE36F030EE46FDFEC02F08A0EAE
:10202000F66E020EF76E050ED56FBFEC08F0010ECE
:10203000E96EB0C0D8F0AFC0D7F0AEC0D6F0ADC03A
:10204000D5F0D96FA5EC09F0940EF66E020EF76E7E
:10205000050ED56FBFEC08F0B0C0DDF0AFC0DCF00E
:10206000AEC0DBF0ADC0DAF0E16BE06BDF6B7E0E93
:10207000DE6F74EC06F005E3B06BAF6BAE6B7E0EFB
:10208000AD6FDD6BDC6B600EDB6F820EDA6FB0C0A4
:10209000E1F0AFC0E0F0AEC0DFF0ADC0DEF074EC58
:1020A00006F006E3B06BAF6B600EAE6F820EAD6FE5
:1020B000928480B430D0B0C0DDF0AFC0DCF0AEC0F0
:1020C000DBF0ADC0DAF0E16BE06B600EDF6F820E2B
:1020D000DE6F74EC06F01FE3D892B0C0DDF0AFC045
:1020E000DCF0AEC0DBF0ADC0DAF0CD0EE16FCC0EAF
:1020F000E06F4C0EDF6F7B0EDE6F3FEC05F003C030
:10210000B0F002C0AFF001C0AEF000C0ADF0320ED2
:10211000E86F62EC02F0928680B62FD0DD6BDC6B4C
:10212000DB6B7E0EDA6FB0C0E1F0AFC0E0F0AEC0A6
:10213000DFF0ADC0DEF074EC06F01FE3D882B0C073
:10214000DDF0AFC0DCF0AEC0DBF0ADC0DAF0CD0E3C
:10215000E16FCC0EE06F4C0EDF6F7B0EDE6F3FEC5D
:1021600005F003C0B0F002C0AFF001C0AEF000C097
:10217000ADF0320EE86F62EC02F0928880B821D1A7
:10218000D882B0C0DDF0AFC0DCF0AEC0DBF0ADC0D7
:10219000DAF0B4C0E1F0B3C0E0F0B2C0DFF0B1C03B
:1021A000DEF03FEC05F003C0C0F002C0BFF001C09C
:1021B000BEF000C0BDF0DD6BDC6BDB6BDA6BC0C06A
:1021C000E1F0BFC0E0F0BEC0DFF0BDC0DEF074ECF7
:1021D00006F001E218E10A0E286E3C0EA96E28C036
:1021E000A8FFA69CA69EA684F250006EF29E0F0148
:1021F000550EA76EAA0EA76EA682A6B2FED7A6940B
:102200000050F2120001C0C0DDF0BFC0DCF0BEC063
:10221000DBF0BDC0DAF0E16BE06BDF6BDE6B74EC22
:1022200006F018E3140E286E3C0EA96E28C0A8FF15
:10223000A69CA69EA684F250006EF29E0F01550E3B
:10224000A76EAA0EA76EA682A6B2FED7A6940050CD
:10225000F2120001BDC000F0BEC001F0BFC002F02C
:10226000C0C003F0019EC0C0C0F0BFC0BFF001C03D
:10227000BEF0BDC0BDF0C0C0D4F0BFC0D3F0BEC082
:10228000D2F0BDC0D1F068EC0AF001C02FF0DC6BD9
:102290002FC0DBF05BEC03F0D882C0C0DDF0BFC024
:1022A000DCF0BEC0DBF0BDC0DAF003C0E1F002C07C
:1022B000E0F001C0DFF000C0DEF03FEC05F003C04D
:1022C000C8F002C0C7F001C0C6F000C0C5F0C8C069
:1022D000E5F0C7C0E4F0C6C0E3F0C5C0E2F0E96BCA
:1022E000E86B480EE76F850EE66FCFEC08F003C091
:1022F000D4F002C0D3F001C0D2F000C0D1F068EC3D
:102300000AF001C030F0140EA96E2FC0A8FFA69CE1
:10231000A69EA684F250006EF29E0F01550EA76E87
:10232000AA0EA76EA682A6B2FED7A6940050F212FD
:10233000140E0001E86F62EC02F0150EA96E30C0B9
:10234000A8FFA69CA69EA684F250006EF29E0F01E6
:10235000550EA76EAA0EA76EA682A6B2FED7A694A9
:102360000050F212C80E0001E86F62EC02F00C0E91
:10237000E26F10EC03F0010EE36F020EE46FDFEC8E
:1023800002F09A0EF66E020EF76E5AEC08F0010E8D
:10239000E36F030EE46FDFEC02F0AC0EF66E020E9C
:1023A000F76E5AEC08F0020ED16FFA0EE86F62EC8D
:1023B00002F0D12FFAD70C0EE26F10EC03F0640E8E
:1023C000196E928A80BA12D0010E196E356A040E07
:1023D000D16FFA0EE86F62EC02F0D12FFAD7020E3D
:1023E0001C6E1E6E0C0EE26F10EC03F01950030809
:1023F000D8A44DEF16F0010EE36FE46FDFEC02F0AE
:10240000BE0EF66E020EF76E5AEC08F0010EE36F88
:10241000020EE46FDFEC02F0D40EF66E020EF76EE1
:10242000120ED56FBFEC08F027C0D5F01B0ED66F8B
:1024300098EC0AF0010EE36F030EE46FDFEC02F09C
:10244000EA0EF66E020EF76E050ED56FBFEC08F0C1
:10245000010EE96EB0C0D8F0AFC0D7F0AEC0D6F074
:10246000ADC0D5F0D96FA5EC09F0F40EF66E020EF2
:10247000F76E050ED56FBFEC08F0B0C0DDF0AFC051
:10248000DCF0AEC0DBF0ADC0DAF0E16BE06BDF6B2F
:102490007E0EDE6F74EC06F005E3B06BAF6BAE6BD7
:1024A0007E0EAD6FDD6BDC6B600EDB6F820EDA6F64
:1024B000B0C0E1F0AFC0E0F0AEC0DFF0ADC0DEF024
:1024C00074EC06F006E3B06BAF6B600EAE6F820E7D
:1024D000AD6F928480B430D0B0C0DDF0AFC0DCF01E
:1024E000AEC0DBF0ADC0DAF0E16BE06B600EDF6F29
:1024F000820EDE6F74EC06F01FE3D892B0C0DDF000
:10250000AFC0DCF0AEC0DBF0ADC0DAF0CD0EE16FF5
:10251000CC0EE06F4C0EDF6F7B0EDE6F3FEC05F0F4
:1025200003C0B0F002C0AFF001C0AEF000C0ADF02B
:10253000320EE86F62EC02F0928680B62FD0DD6B2F
:10254000DC6BDB6B7E0EDA6FB0C0E1F0AFC0E0F0A9
:10255000AEC0DFF0ADC0DEF074EC06F01FE3D88251
:10256000B0C0DDF0AFC0DCF0AEC0DBF0ADC0DAF083
:10257000CD0EE16FCC0EE06F4C0EDF6F7B0EDE6F89
:102580003FEC05F003C0B0F002C0AFF001C0AEF008
:1025900000C0ADF0320EE86F62EC02F0928880B8B5
:1025A000FDD2272C23D0D66BCEEC0AF003C0A0F0CE
:1025B00002C09FF001C09EF000C09DF0B0C0A4F02A
:1025C000AFC0A3F0AEC0A2F0ADC0A1F0272A040EA8
:1025D000D16FFA0EE86F62EC02F0D12FFAD7B06B30
:1025E000AF6B600EAE6F810EAD6FD8D22750020870
:1025F000D8A4D4D2D66BCEEC0AF003C0A8F002C0A7
:10260000A7F001C0A6F000C0A5F0B0C0ACF0AFC00C
:10261000ABF0AEC0AAF0ADC0A9F0A4C0D4F0A3C086
:10262000D3F0A2C0D2F0A1C0D1F068EC0AF001C092
:1026300031F0DC6B31C0DBF05BEC03F0D882A4C07E
:10264000DDF0A3C0DCF0A2C0DBF0A1C0DAF003C073
:10265000E1F002C0E0F001C0DFF000C0DEF03FECCE
:1026600005F003C0C8F002C0C7F001C0C6F000C04A
:10267000C5F0C8C0E5F0C7C0E4F0C6C0E3F0C5C00F
:10268000E2F0E96BE86B200EE76F820EE66FCFECAD
:1026900008F003C0D4F002C0D3F001C0D2F000C0F3
:1026A000D1F068EC0AF001C032F0ACC0D4F0ABC09D
:1026B000D3F0AAC0D2F0A9C0D1F068EC0AF001C0F2
:1026C00033F0DC6B33C0DBF05BEC03F0D882ACC0E2
:1026D000DDF0ABC0DCF0AAC0DBF0A9C0DAF003C0CB
:1026E000E1F002C0E0F001C0DFF000C0DEF03FEC3E
:1026F00005F003C0C8F002C0C7F001C0C6F000C0BA
:10270000C5F0C8C0E5F0C7C0E4F0C6C0E3F0C5C07E
:10271000E2F0E96BE86B200EE76F820EE66FCFEC1C
:1027200008F003C0D4F002C0D3F001C0D2F000C062
:10273000D1F068EC0AF001C034F0A0C0D4F09FC022
:10274000D3F09EC0D2F09DC0D1F068EC0AF001C079
:10275000D1F01E0EA96ED1C0A8FFA69CA69EA6848D
:10276000F250006EF29E0F01550EA76EAA0EA76ED4
:10277000A682A6B2FED7A6940050F212140E000153
:10278000E86F62EC02F0A8C0D4F0A7C0D3F0A6C0F6
:10279000D2F0A5C0D1F068EC0AF001C0D1F01F0E54
:1027A000A96ED1C0A8FFA69CA69EA684F250006E7A
:1027B000F29E0F01550EA76EAA0EA76EA682A6B2B4
:1027C000FED7A6940050F212140E0001E86F62ECDE
:1027D00002F0200EA96E31C0A8FFA69CA69EA6847A
:1027E000F250006EF29E0F01550EA76EAA0EA76E54
:1027F000A682A6B2FED7A6940050F212140E0001D3
:10280000E86F62EC02F0210EA96E32C0A8FFA69C10
:10281000A69EA684F250006EF29E0F01550EA76E82
:10282000AA0EA76EA682A6B2FED7A6940050F212F8
:10283000140E0001E86F62EC02F0220EA96E33C0A4
:10284000A8FFA69CA69EA684F250006EF29E0F01E1
:10285000550EA76EAA0EA76EA682A6B2FED7A694A4
:102860000050F212140E0001E86F62EC02F0230E29
:10287000A96E34C0A8FFA69CA69EA684F250006E46
:10288000F29E0F01550EA76EAA0EA76EA682A6B2E3
:10289000FED7A6940050F212140E0001E86F62EC0D
:1028A00002F0D882ACC0DDF0ABC0DCF0AAC0DBF037
:1028B000A9C0DAF0A4C0E1F0A3C0E0F0A2C0DFF04C
:1028C000A1C0DEF03FEC05F0A8C0E5F0A7C0E4F041
:1028D000A6C0E3F0A5C0E2F003C0E9F002C0E8F052
:1028E00001C0E7F000C0E6F0CFEC08F000C0D1F086
:1028F00001C0D2F002C0D3F003C0D4F0D882A8C087
:10290000DDF0A7C0DCF0A6C0DBF0A5C0DAF0A0C007
:10291000E1F09FC0E0F09EC0DFF09DC0DEF03FEC34
:1029200005F0D4C0DDF0D3C0DCF0D2C0DBF0D1C004
:10293000DAF003C0E1F002C0E0F001C0DFF000C057
:10294000DEF092EC04F0D882ACC0DDF0ABC0DCF07D
:10295000AAC0DBF0A9C0DAF003C0E1F002C0E0F0E9
:1029600001C0DFF000C0DEF03FEC05F003C0C0F0B6
:1029700002C0BFF001C0BEF000C0BDF0DD6BDC6B7B
:10298000DB6BDA6BC0C0E1F0BFC0E0F0BEC0DFF0CF
:10299000BDC0DEF074EC06F001E21CE10A0E286E08
:1029A0003C0EA96E28C0A8FFA69CA69EA684F25045
:1029B000006EF29E0F01550EA76EAA0EA76EA6829C
:1029C000A6B2FED7A6940050F212140E0001E86FD2
:1029D00062EC02F0C0C0DDF0BFC0DCF0BEC0DBF0D6
:1029E000BDC0DAF0E16BE06BDF6BDE6B74EC06F020
:1029F0001CE3140E286E3C0EA96E28C0A8FFA69CEE
:102A0000A69EA684F250006EF29E0F01550EA76E90
:102A1000AA0EA76EA682A6B2FED7A6940050F21206
:102A2000140E0001E86F62EC02F0BDC000F0BEC001
:102A300001F0BFC002F0C0C003F0019EC0C0C0F0F2
:102A4000BFC0BFF001C0BEF0BDC0BDF0C0C0D4F07B
:102A5000BFC0D3F0BEC0D2F0BDC0D1F068EC0AF068
:102A600001C02FF0DC6B2FC0DBF05BEC03F0D882F1
:102A7000C0C0DDF0BFC0DCF0BEC0DBF0BDC0DAF02E
:102A800003C0E1F002C0E0F001C0DFF000C0DEF002
:102A90003FEC05F003C0C8F002C0C7F001C0C6F0AB
:102AA00000C0C5F0C8C0E5F0C7C0E4F0C6C0E3F0A0
:102AB000C5C0E2F0E96BE86B480EE76F850EE66F84
:102AC000CFEC08F003C0D4F002C0D3F001C0D2F0C4
:102AD00000C0D1F068EC0AF001C030F0140EA96E0D
:102AE0002FC0A8FFA69CA69EA684F250006EF29E60
:102AF0000F01550EA76EAA0EA76EA682A6B2FED72C
:102B0000A6940050F212140E0001E86F62EC02F07D
:102B1000150EA96E30C0A8FFA69CA69EA684F250F2
:102B2000006EF29E0F01550EA76EAA0EA76EA6822A
:102B3000A6B2FED7A6940050F212C80E0001E86FAC
:102B400062EC02F00C0EE26F10EC03F0010EE36F8A
:102B5000020EE46FDFEC02F0FA0EF66E020EF76E74
:102B60005AEC08F0010EE36F030EE46FDFEC02F0A5
:102B70000C0EF66E030EF76E5AEC08F0020ED16FD3
:102B8000FA0EE86F62EC02F0D12FFAD70C0EE26F6A
:102B900010EC03F0010E276E640E196E928A80BA53
:102BA0007CD0010E196E356AC80EE86F62EC02F037
:102BB000020E1C6E1E6E0C0EE26F10EC03F0010E86
:102BC000276EF2CFD1F0F29E1E0EA96EA69CA69E95
:102BD000A680A850D1BFF28EDC6BDB6F5BEC03F0FC
:102BE00003C0A0F002C09FF001C09EF000C09DF0A5
:102BF000F2CFD1F0F29E200EA96EA69CA69EA680D2
:102C0000A850D1BFF28E316EF2CFD1F0F29E210EDC
:102C1000A96EA69CA69EA680A850D1BFF28E326E49
:102C2000DC6B32C0DBF05BEC03F003C0DDF002C014
:102C3000DCF001C0DBF000C0DAF0E16BE06B200EED
:102C4000DF6F820EDE6F92EC04F003C0C8F002C0AA
:102C5000C7F001C0C6F000C0C5F0DC6B31C0DBF0CE
:102C60005BEC03F0D89203C0DDF002C0DCF001C0E1
:102C7000DBF000C0DAF0C8C0E1F0C7C0E0F0C6C0C9
:102C8000DFF0C5C0DEF03FEC05F003C0A4F002C0E9
:102C9000A3F001C0A2F000C0A1F019500408D8A40C
:102CA00093D0010EE36FE46FDFEC02F01E0EF66EC0
:102CB000030EF76E5AEC08F0010EE36F020EE46F9C
:102CC000DFEC02F0340EF66E030EF76E5AEC08F0ED
:102CD000010EE36F030EE46FDFEC02F04A0EF66EB6
:102CE000030EF76E080ED56FBFEC08F026C0D5F0C6
:102CF000010ED66F98EC0AF0200EE26F10EC03F094
:102D0000200EE26F10EC03F0200EE26F10EC03F0E7
:102D10002650100802E2100E266E928480B408D06D
:102D200026500F0805E3262A320EE86F62EC02F007
:102D3000928680B607D0265205E02606320EE86F4E
:102D400062EC02F0928880A803D0928A80BA3CD0CC
:102D5000020ED16FFA0EE86F62EC02F0D12FFAD7B3
:102D6000928880A803D0928A80BA2ED0050EA96ED0
:102D700026C0A8FFA69CA69EA684F250006EF29ED6
:102D80000F01550EA76EAA0EA76EA682A6B2FED799
:102D9000A6940050F212640E0001E86F62EC02F09B
:102DA000F6EC0AF0010E196E356A020ED16FFA0EBA
:102DB000E86F62EC02F0D12FFAD7020E1C6E1E6E85
:102DC0000C0EE26F10EC03F019500508D8A492D055
:102DD000010EE36FE46FDFEC02F05A0EF66E030EA5
:102DE000F76E5AEC08F0010EE36F020EE46FDFECB1
:102DF00002F0700EF66E030EF76E5AEC08F0010E3C
:102E0000E36F030EE46FDFEC02F0860EF66E030E46
:102E1000F76E0A0ED56FBFEC08F02CC0D5F0030E8C
:102E2000D66F98EC0AF0940EF66E030EF76E070E4E
:102E3000D56FBFEC08F02C50640802E2640E2C6ED3
:102E40002C5202E1010E2C6E928480B405D02C2A03
:102E5000320EE86F62EC02F0928680B605D02C0646
:102E6000320EE86F62EC02F0928880A803D0928A5A
:102E700080BA40D0040ED16FFA0EE86F62EC02F017
:102E8000D12FFAD7928880A803D0928A80BA32D004
:102E9000060EA96E2CC0A8FFA69CA69EA684F25082
:102EA000006EF29E0F01550EA76EAA0EA76EA682A7
:102EB000A6B2FED7A6940050F212020E0001D16F06
:102EC000FA0EE86F62EC02F0D12FFAD7010E196EFC
:102ED000356A020ED16FFA0EE86F62EC02F0D12F64
:102EE000FAD7020E1C6E1E6E0C0EE26F10EC03F091
:102EF000F6EC0AF019500608D8A4C3D0010EE36F0F
:102F0000E46FDFEC02F09C0EF66E030EF76E5AECE7
:102F100008F0010EE36F020EE46FDFEC02F0B20E78
:102F2000F66E030EF76E5AEC08F0010EE36F030E17
:102F3000E46FDFEC02F0C80EF66E030EF76E080EBB
:102F4000D56FBFEC08F0090EE96E40C0D2F03FC06B
:102F5000D1F032EF0BF0D50EF66E030EF76E050EC4
:102F6000D56FBFEC08F04050120809E2FF0A03E1F8
:102F70003F50880804E2130E406E880E3F6E4052A8
:102F800006E13F50630803E3406A640E3F6E92849B
:102F900080B408D00A0E3F26000E4022320EE86FA1
:102FA00062EC02F0928680B608D00A0E3F5E000EF8
:102FB000405A320EE86F62EC02F0928880A803D08B
:102FC000928A80BA5ED0020ED16FFA0EE86F62EC80
:102FD00002F0D12FFAD7928880A803D0928A80BAC3
:102FE00050D03FC0D1F0080EA96ED1C0A8FFA69C5A
:102FF000A69EA684F250006EF29E0F01550EA76E9B
:10300000AA0EA76EA682A6B2FED7A6940050F21210
:10301000640E0001E86F62EC02F040C0D1F0090ECE
:10302000A96ED1C0A8FFA69CA69EA684F250006EF1
:10303000F29E0F01550EA76EAA0EA76EA682A6B22B
:10304000FED7A6940050F212020E0001D16FFA0EC4
:10305000E86F62EC02F0D12FFAD7010E196E356AD3
:10306000020ED16FFA0EE86F62EC02F0D12FFAD7A0
:10307000020E1C6E1E6E0C0EE26F10EC03F0F6ECEE
:103080000AF019500708D8A404D1010EE36FE46FC9
:10309000DFEC02F0DC0EF66E030EF76E090ED56F54
:1030A000BFEC08F0010EE96EB4C0D8F0B3C0D7F0A1
:1030B000B2C0D6F0B1C0D5F0D96FA5EC09F0200EA2
:1030C000E26F10EC03F0010EE36F020EE46FDFEC31
:1030D00002F0620EE26F10EC03F03A0EE26F10ECB9
:1030E00003F0890EE96EC0C0D8F0BFC0D7F0BEC0F3
:1030F000D6F0BDC0D5F0020ED96FA5EC09F0200EB8
:10310000E26F10EC03F0580EE26F10EC03F03D0E8E
:10311000E26F10EC03F0010EE96EA0C0D8F09FC082
:10312000D7F09EC0D6F09DC0D5F0D96BA5EC09F0C4
:10313000FB0EF66E030EF76E040ED56FBFEC08F0B3
:10314000010EE96EA8C0D8F0A7C0D7F0A6C0D6F08F
:10315000A5C0D5F0D96BA5EC09F0010EE36F030E05
:10316000E46FDFEC02F0590EE26F10EC03F0300E6A
:10317000E26F10EC03F03D0EE26F10EC03F0010E75
:10318000E96EA4C0D8F0A3C0D7F0A2C0D6F0A1C009
:10319000D5F0D96FA5EC09F00E0EF66E040EF76EA1
:1031A000040ED56FBFEC08F0010EE96EACC0D8F08C
:1031B000ABC0D7F0AAC0D6F0A9C0D5F0D96FA5ECA6
:1031C00009F0200EE26F10EC03F028C0D5F0010EDC
:1031D000D66F98EC0AF0010EE36F040EE46FDFEC9B
:1031E00002F0D66BCEEC0AF000C0D1F001C0D2F0F4
:1031F00002C0D3F003C0D4F01E0EF66E040EF76EBC
:10320000090ED56FBFEC08F02BC0D5F0010ED66FBC
:1032100098EC0AF02B0EF66E040EF76E050ED56FC5
:10322000BFEC08F0010EE96ED4C0D8F0D3C0D7F0DF
:10323000D2C0D6F0D1C0D5F0D96BA5EC09F0200EE4
:10324000E26F10EC03F0928880B80ED0020ED16FBE
:10325000FA0EE86F62EC02F0D12FFAD70C0EE26F93
:1032600010EC03F0640E196E928A80BA12D0010E2F
:10327000196E356A020ED16FFA0EE86F62EC02F039
:10328000D12FFAD7020E1C6E1E6E0C0EE26F10ECE0
:1032900003F019506408D8A449D218A2BAD0010E7C
:1032A000E36F020EE46FDFEC02F0700EE26F10ECE1
:1032B00003F0480EE26F10EC03F03A0EE26F10ECF0
:1032C00003F0010EE96EB4C0D8F0B3C0D7F0B2C0BD
:1032D000D6F0B1C0D5F0D96FA5EC09F0010EE36FBF
:1032E000030EE46FDFEC02F0380EF66E040EF76E9C
:1032F000050ED56FBFEC08F023C0D5F0030ED66FD6
:1033000098EC0AF03A0EE26F10EC03F022C0D5F010
:10331000010ED66F98EC0AF017A20FD0010EE36FE2
:10332000040EE46FDFEC02F0480EF66E040EF76E4A
:103330005AEC08F08DEC0BF00ED0010EE36F040E8A
:10334000E46FDFEC02F0520EF66E040EF76E5AECEC
:1033500008F09EEC0BF017A00FD00D0EE36F040EDB
:10336000E46FDFEC02F05C0EF66E040EF76E5AECC2
:1033700008F08B8494940ED00D0EE36F040EE46F6E
:10338000DFEC02F0660EF66E040EF76E5AEC08F0F3
:103390008B94949417A40FD00D0EE36F020EE46F7C
:1033A000DFEC02F0700EF66E040EF76E5AEC08F0C9
:1033B0008C8495940ED00D0EE36F020EE46FDFEC5B
:1033C00002F07A0EF66E040EF76E5AEC08F08C944A
:1033D000959418A80FD00D0EE36F030EE46FDFEC89
:1033E00002F0840EF66E040EF76E5AEC08F08C882C
:1033F00095980ED00D0EE36F030EE46FDFEC02F034
:103400008E0EF66E040EF76E5AEC08F08C989598B6
:103410001892968484A4F3D018AA05D0189A17920B
:103420001790189817942C50235CD8A0C0D01884FB
:10343000425007080DE303E14150070809E31888EB
:103440008C8895989EEC0BF08C9495941794AED044
:103450008C989598189840C0DCF03FC0DBF05BEC8E
:1034600003F09A0EE56F990EE46F190EE36F7E0E6E
:10347000E26F03C0E9F002C0E8F001C0E7F000C06D
:10348000E6F0CFEC08F000C0D1F001C0D2F002C0ED
:10349000D3F003C0D4F044C0DCF043C0DBF05BECFD
:1034A00003F0D4C0DDF0D3C0DCF0D2C0DBF0D1C07B
:1034B000DAF003C0E1F002C0E0F001C0DFF000C0CC
:1034C000DEF074EC06F001E205E117908B94949421
:1034D000189604D017808B8494941886968084A0C4
:1034E00007D017929EEC0BF08C84959417845ED0D5
:1034F000968284B25BD017948C94959418B656D06B
:103500001894426A416A446A436A236A226A216AB9
:10351000320EA96E21C0A8FFA69CA69EA684F250DA
:10352000006EF29E0F01550EA76EAA0EA76EA68220
:10353000A6B2FED7A6940050F212140E0001E86F56
:1035400062EC02F0330EA96E22C0A8FFA69CA69ED4
:10355000A684F250006EF29E0F01550EA76EAA0EC1
:10356000A76EA682A6B2FED7A6940050F212140E41
:103570000001E86F62EC02F0340EA96E23C0A8FFD0
:10358000A69CA69EA684F250006EF29E0F01550ED8
:10359000A76EAA0EA76EA682A6B2FED7A69400506A
:1035A000F212140E0001E86F62EC02F027D092884C
:1035B00080B809D017B606D0177417861E0EE86FAC
:1035C00062EC02F001D01796928680B609D017B847
:1035D00006D0177217881E0EE86F62EC02F001D059
:1035E0001798928A80BA09D017BA06D01770178A2E
:1035F0001E0EE86F62EC02F001D0179A12D01894F8
:1036000018964250070806E303E14150070802E319
:10361000426A416A189817908C9895988B94949464
:10362000188A968084A018D017929EEC0BF0010E99
:10363000E36FE46FDFEC02F0980EF66E040EF76EA7
:103640005AEC08F0968484B403D08C849594178443
:1036500018903C6A3B6A3DD0010EE36FE46FDFECEB
:1036600002F0AE0EF66E040EF76E0F0ED56FBFECC5
:1036700008F02CC0D5F0030ED66F98EC0AF0200E9F
:10368000E26F10EC03F0680EE26F10EC03F08C9622
:1036900095963C5203E13B5003081AE21890968439
:1036A00084B403D08DEC0BF01782968284B20CD0D8
:1036B0003E5203E13D50030805E2189C17948C9498
:1036C000959401D0188C03D0189C3E6A3D6A01D0B5
:1036D0001880928480B42AD0640EE86F62EC02F005
:1036E000928480B423D0080ED16FFA0EE86F62EC9A
:1036F00002F0D12FFAD7928480B410D00C0EE26F72
:1037000010EC03F01E0EE86F62EC02F0010E196E71
:10371000356A020E1C6E1E6E178608D0968484A42D
:1037200005D01878640EE86F62EC02F029501D088D
:1037300003E2B4EC02F0296A2A500A0801E22A6A7C
:1037400017AC12D0968084A002D095968C7626C0B5
:10375000D1F0FFEF0BF003C0B4F002C0B3F001C032
:0E376000B2F000C0B1F0179CFBEF0EF00300BA
:020000040030CA
:0E00000020C21E1E000781000FC00FE00F403F
:00000001FF
;PIC18F4550
;CRC=FB09  CREATED="17-jul.-19 11:32"
