:0400000042EF0BF0D0
:08000800046ED8CF05F0E0CF33
:1000100006F00001E9CF0CF0EACF07F0E1CF08F0DD
:10002000E2CF09F0D9CF0AF0DACF0BF0F3CF12F01C
:10003000F4CF13F0FACF14F000C00EF001C00FF0AF
:1000400002C010F003C011F09DA02AEF00F09EB096
:100050005AEF00F00EC000F00FC001F010C002F027
:1000600011C003F00CC0E9FF07C0EAFF078E08C00B
:10007000E1FF09C0E2FF0AC0D9FF0BC0DAFF12C0DE
:10008000F3FF13C0F4FF14C0FAFF045006C0E0FFF2
:1000900005C0D8FF1000F2CF0DF0F29EF76AB00F46
:1000A000F66E000EF7220900F5500DBEF28E12001A
:1000B000280C0106150ECF6EA00ECE6E432AD8B4C2
:1000C000442A445203E14350C70812E2446A436A97
:1000D000178C2A2A2B2A17A20BD0212A21503C0840
:1000E00002E1216A222A22503C0802E1226A232AE4
:1000F0009E902AEF00F043616C2E20756E205075A3
:100100006E746F2020202020200043616C2E20641C
:100110006F732050756E746F732020202000436130
:100120006D62696F20436F6E7472617365F1612057
:1001300020004D65646961204D6F76696C20202038
:1001400020202020200042616E6461204D75657280
:1001500074612020202020202000536574706F6976
:100160006E742020202020202020202020004D619F
:100170006E74656E696D69656E746F202020202035
:100180002000202020202053435255424245522037
:10019000202020202020000020202020202020209F
:1001A000202020202020202020202020000020208F
:1001B00020204A5020494E474C4F42414C2020209D
:1001C000202000002020205245463A204A50534328
:1001D000522D3135202020200000202020202049D1
:1001E0006E6772657365202020202020202000008B
:1001F00020202020436F6E7472617365F1612020AE
:1002000020202020000020202020434C4156453D46
:1002100025692569256925692020000020202020E6
:1002200020202020202020202020202020202000EE
:100230002020202020436F6E7472617365F161206D
:1002400020202000202020202020436F7272656330
:100250007461202020202000202020202020202029
:1002600020202020202020202020200020202020AE
:1002700020436F6E7472617365F16120202020004D
:100280002020202020496E636F72726563746120A4
:10029000202020002020202020202020202020207E
:1002A00020202020202020002D2D2D4D454E552092
:1002B0005052494E434950414C2D2D2D0000436171
:1002C0006C6962726163696F6E20756E2050756E25
:1002D000746F000020496E67726573652076616CEB
:1002E0006F72202070482020000020202020202530
:1002F000322E316620704820200020202043616C7F
:100300006962726163696F6E2020200020202020C6
:1003100020457869746F736120202020200043619C
:100320006C6962726163696F6E20646F73205075CF
:100330006E740000496E67726573652076616C6F3C
:1003400072202070482025750000202020202025C4
:10035000322E316620704820200020202043616C1E
:100360006962726163696F6E202020002020202066
:1003700020457869746F73612020202020002020A0
:1003800020202020496E6772657365202020202080
:100390002020000020436F6E7472617365F161204C
:1003A00041637475616C2020000020202020434CA4
:1003B0004156453D256925692569256920200000AC
:1003C000202020202020202020202020202020202D
:1003D0002020202000002020202020436F6E7472F7
:1003E000617365F161202020202000002020202062
:1003F0002020436F727265637461202020202020CA
:10040000000020202020202020202020202020202C
:10041000202020202020000020202020202020201C
:10042000202020202020202020202020000020200C
:10043000202020436F6E7472617365F1612020206B
:10044000202000002020202020496E636F727265FA
:100450006374612020202020000020202020202004
:1004600020202020202020202020202020200000CC
:100470002020202020496E6772657365202020208F
:100480002020202000002020436F6E74726173656D
:10049000F161204E7565766120200000202020202B
:1004A000434C4156453D256925692569256920202C
:1004B000000020202020202020202020202020207C
:1004C00020202020202000002020202020436F6EAC
:1004D0007472617365F161202020202000002020CB
:1004E000202020416C6D6163656E61646120202075
:1004F000202000002020202020202020202020203C
:1005000020202020202020200000202020204D65B9
:100510006469612020204D6F76696C2020202000C6
:1005200020202020496E67726573652076616C6FAC
:100530007220202020002020202020202020253074
:100540003275202020002020202042616E6461202E
:100550004D7565727461202020202000202020200D
:10056000496E67726573652076616C6F722020201A
:1005700020002020202020202B2F2D25322E3166F8
:100580002020200020202020536574506F696E7455
:100590002020704820202020200020202020496E8C
:1005A00067726573652076616C6F72202020200071
:1005B0002020202020202B2F2D25322E3166202098
:1005C00020004D544F2E202070483A25322E31669F
:1005D0002000623A25322E326620583D25322E30D8
:1005E000662058313D25322E3066000059303D25B9
:1005F000322E31662059313D25322E31662025308C
:1006000032750000542E2050756C736F3D253032CA
:1006100075204144433A25322E30662000002020C8
:10062000204A502053435255424245522020000058
:1006300054696D653A20253033753A25303275207E
:1006400028483A4D2900424F4D42413A4F4E200032
:10065000424F4D42413A4F464600424153453A4F80
:100660004E200000424153453A4F46460000EA6A98
:10067000E30EE96EEF500EE00F0E016E006A002EE1
:10068000FED7012EFBD78F0E006E002EFED7000086
:10069000EF2EF2D7000CE939F00B006E0F0E81142B
:1006A0000010816E080E006E002EFED78186DB0ED4
:1006B000006E002EFED700D08196000CF00E936ED7
:1006C0008184080E006E002EFED78186080E006E13
:1006D000002EFED781380F0BE96F8196080E006E51
:1006E000002EFED78186630E006E002EFED700D04E
:1006F00081380F0BE86F8196000E936EE939006E1A
:10070000F00E00160050E811016E89EF03F081929F
:10071000D5D701C0E8F001BEFBD7E6A18192E6B1D2
:100720008182080E006E002EFED78194080E006EA6
:10073000002EFED78196E739E86F0F0EE817E8C064
:10074000E9F0A9DFE7510F0BE86FE96FA4DF000CB8
:10075000000E936E8192819481960F0EE36F87DF76
:10076000010ED16FD151030808E3030EE96F93DF47
:10077000050EE36F7CDFD12BF5D7020EE96F8BDF1F
:10078000D16BD15103080EE3036AD151F2CFD2F0FD
:10079000F29E81DCD2BFF28ED26FE66BE76FB7DFDD
:1007A000D12BEFD7000C8E0E006EDCC001F0DBC049
:1007B00002F0036A015209E102C001F0026A080E68
:1007C000005E015202E1006A08D0D89001BE04D058
:1007D000023601360006F9D7019E000CD635006EB0
:1007E0000036FC0E001600C001F0C250C30B001012
:1007F000C26E0A0EE36F3BDFC282C2B2FED7C450A4
:10080000DC6BDB6FD0DF03C0DAF002C0D9F001C0CF
:10081000D8F000C0D7F0D7C000F0D8C001F0D9C0E0
:1008200002F0DAC003F0000C010EE45DFC0F0FE2F1
:10083000040F2FEF04F0800EE56F09D0C00EE56FB6
:1008400006D0940EE56F03D0D40EE56F00D0010EF4
:10085000E35DE527E66BE5C0E7F059DF000CF2CF7A
:100860000DF0F29EE824F76AF736830FF66E080E55
:10087000F7220A00F550FA6E0800F5500DBEF28E10
:10088000F96E36083C0842084808E251F10802E1D6
:10089000EE0EE26FE251D10802E1FF0EE26FE2518B
:1008A0000C0A05E0060A0DE0020A12E016D0E66B1B
:1008B000010EE76F2CDF010E166E020EE36FD7DE1E
:1008C00012D0162A010EE36F16C0E4F0ADDF0BD094
:1008D000E66B100EE76F1BDF06D0010EE66FE2C07D
:1008E000E7F015DF00D0000C0900F5520CE0F6CF60
:1008F000D4F0F7CFD5F0F5CFE2F0C7DFD4C0F6FFE4
:10090000D5C0F7FFF1D7000CDA51D8B4A5D0E66F07
:10091000DE51D8B4A1D0E65F05E37F0EE627D8B05C
:100920009BD006D0810EE65FD8A096D0D8B494D0E4
:10093000E6C000F0016A026A036AE56BDBC0E4F01E
:10094000E48FDCC0E3F0DDC0E2F0190EE66FE151A8
:10095000E25F0DE2010EE35F0AE2E45F08E2E55FB9
:1009600006E2E52BE42BE32BE151E22728D0E0510E
:10097000E35F12E2010EE45F0FE2E55F0DE2E52BBB
:10098000E42BE051E327E151E22719E3E32B17E1E0
:10099000E42B15E1E52B13D0DF518009E45F0EE273
:1009A000010EE55F0BE2E52BDF518009E427E05102
:1009B000E327E9E3E42BE7E1E52BE5D70380E62F26
:1009C00001D00BD0D890E237E337E437E537D89041
:1009D000033602360136E737BAD7E7A106D0D890FA
:1009E000013202320332E73302D0000635E0E7BFBE
:1009F0001ED0D890E237E337E437E537E151E25FC4
:100A000007E2010EE35F04E2E45F02E2E55F1AE35E
:100A1000E051E35F05E2010EE45F02E2E55F12E30D
:100A2000DF518009E45F03E2010EE55F0BE3032A77
:100A300009E1022A07E1012A05E1002A0DE001325D
:100A400002320332DBC0E6F0DF51E61BE6AF02D034
:100A5000018E06D0019E04D0006A016A026A036A10
:100A6000000C800ED8B2DF1BE46BE56BDBC0E3F05B
:100A7000DF51E31BDA51D8B4DCD0E26F006EDE51F7
:100A8000D8B4E0D0E25FD8B481D03DE3DFC0E8F075
:100A9000E88FE0C0E7F0E1C0E6F0E56BD890E8331E
:100AA000E733E633E533E22FF8D7E3AF03D0E48151
:100AB000DDD0E491E291E489EA6ADD0EE96EE9D0E5
:100AC000E499E3BF0AD0E2A113D0E833E733E63379
:100AD000E533002AD8B4C5D00BD0E8BF0CD0D890ED
:100AE000E537E637E737E8370006D8B4BAD0F5D7A8
:100AF000E48D6BD0E49DDBC0E3F0DBAF02D0E88F88
:100B0000A9D0E89FA7D0DEC0E2F0DEC000F0DA5145
:100B1000E25FDBC0E8F0E88FDCC0E7F0DDC0E6F0C4
:100B2000E56BD890E833E733E633E533E22FF8D7C7
:100B3000E3AF03D0E4839AD0E493E291E48BEA6AD2
:100B4000E10EE96EA6D0E49BE3BF0AD0E2A113D088
:100B5000E833E733E633E533002AD8B482D00BD04C
:100B6000E8BF0CD0D890E537E637E737E83700061E
:100B7000D8B477D0F5D7E48F28D0E49FDFC0E3F076
:100B8000DFAF02D0E88F66D0E89F64D0DFC0E8F026
:100B9000E88FE0C0E7F0E1C0E6F0E3AF04D0E89F03
:100BA000E48564D0E495E56BE291EA6ADD0EE96ED6
:100BB00070D0E3BF1CD0DBC0E3F0E2A106D0E83385
:100BC000E733E633E533002A4CE0E5AF0BD0E62B04
:100BD00009E1E72B07E1E82B05E1E833E733E633EA
:100BE000002A3FE0E4BD86D7E4BFC7D71CD0800E03
:100BF000E81BE8AF04D03AD0DFC0E3F00AD0DBC096
:100C0000E3F0E85306E1E75304E1E65302E1006A4A
:100C100021D0E8BF08D0D890E537E637E737E83786
:100C2000002EF7D71ED0E3AF02D0E88F13D0E89F95
:100C300011D0DEC000F0DFC0E8F0E0C0E7F0E1C0B6
:100C4000E6F008D0DAC000F0DBC0E8F0DCC0E7F086
:100C5000DDC0E6F0E8C001F0E7C002F0E6C003F056
:100C600034D0006A016A026A036A2FD0E56BE61F7E
:100C7000E71FE81FE51FE52B05E1E62B03E1E72B66
:100C800001E1E82BE4B115D7E4B356D7E4B58AD730
:100C9000B3D7EF50E62705E3E72B03E1E82BD8B401
:100CA000E281ED52EF50E72703E3E82BD8B4E2816D
:100CB000ED52EF50EFBE01D0800AE827D8B0E281B4
:100CC000E4B9FED6E4BB3FD774D7000C0900F6CFD9
:100CD000D6F0F7CFD7F0F5CFE2F0D7DDD6C0F6FFEC
:100CE000D7C0F7FFD52FF2D7000CD851016AD75DD6
:100CF00003E2D7C000F00CD0006A080ED96FD737D6
:100D00000036D851005CD8B0006E0136D92FF7D725
:100D1000000C200ED2A9300ED36FD1C000F0D1AF9D
:100D200007D0001E002A00C0D1F02D0ED36FD28F45
:100D30000150D1C0D7F0640ED86FD7DF00C0D1F01A
:100D4000300E0124D46FD1C0D7F00A0ED86FCDDF9A
:100D5000300E0024D66F300E0124D56FD3C000F0C2
:100D6000D2A702D0D2AFD295D2B90BD0D2AF22D077
:100D7000D2B520D000C0D4F0D2B31CD000C0D5F082
:100D800019D0300ED45D16E100C0D4F0200ED36F20
:100D9000D2A704D0D295D283D2AFD293300ED55DF4
:100DA00009E100C0D5F0200ED46FD2A7F7D7D293B7
:100DB000D2AFD291D2A503D0D3C0E2F066DDD2A3E8
:100DC00003D0D4C0E2F061DDD2A103D0D5C0E2F0FF
:100DD0005CDDD6C0E2F059DD000CD22D0AD0020E47
:100DE000E36FD3C0E4F020DDF60EF66E000EF76E72
:100DF0007BDDD25102080AE1020EE36FD3C0E4F0BA
:100E000013DD0A0EF66E010EF76E6EDDD251030889
:100E10000AE1020EE36FD3C0E4F006DD1E0EF66EAB
:100E2000010EF76E61DDD25104080AE1020EE36F94
:100E3000D3C0E4F0F9DC320EF66E010EF76E54DD2D
:100E4000D25105080AE1020EE36FD3C0E4F0ECDCF6
:100E5000460EF66E010EF76E47DDD25106080AE126
:100E6000020EE36FD3C0E4F0DFDC5A0EF66E010E23
:100E7000F76E3ADDD25107080AE1020EE36FD3C0E4
:100E8000E4F0D2DC6E0EF66E010EF76E2DDD000C76
:100E9000E251D8B471D0006EE651D8B46DD00026BE
:100EA00004E3810E002668E204D07F0E005E64E356
:100EB00063E0E3C0EAF0E751EA1BE38FE78FE55117
:100EC000E903F4CFECF0E451E803F4CF03F0F3CFFF
:100ED000EBF0E903F350EC27F450EB23000E032270
:100EE000E551E803F350EC27F450EB23000E026ABF
:100EF00003220222E351E903F350EB27F4500322CB
:100F0000000E0222E351E803F3500326F4500222BC
:100F1000000E016A0122E551E703F350EB27F4507C
:100F20000322000E02220122E451E703F3500326BC
:100F3000F4500222000E0122E351E703F35002268F
:100F4000F4500122002A01BE05D0EB3703360236E9
:100F500001360006000EEBAF0AD0032A022201225E
:100F6000015005E1025003E1035001E1002AEABF0C
:100F7000018EEAAF019E04D0006A016A026A036A28
:100F8000000CE251B608E26F036AE3C0E6F0E38FBB
:100F9000D890E333E433E5330332023201320032D6
:100FA000E22FF6D7E6AF0BD0001E011E021E031E75
:100FB000002AD8B4012AD8B4022AD8B4032A45EFAB
:100FC00008F0006A016A026A036AEA6BEB6BEC6B79
:100FD000ED6BE951E811E711E6112CE0200EEE6F00
:100FE000D890E237E337E437E537EA37EB37EC37C9
:100FF000ED37E951ED5D08E1E851EC5D05E1E751C0
:10100000EB5D02E1E651EA5D0FE3E651EA5FE7518D
:10101000D8A0E73DEB5FE851D8A0E83DEC5FE9518F
:10102000D8A0E93DED5FD8800036013602360336A0
:10103000EE2FD6D7EA6AEA0EE96E000CE950DA6FB5
:10104000D951DC6F19E0D8C0E5F0D7C0E4F0D6C0C4
:10105000E3F0D5C0E2F0E96BE86B200EE76F820E9B
:10106000E66F16DF03C0D8F002C0D7F001C0D6F09B
:1010700000C0D5F0DC2FE7D7D8C0E5F0D7C0E4F04A
:10108000D6C0E3F0D5C0E2F07CD703C0D8F002C0F0
:10109000D7F001C0D6F000C0D5F0D8AF0DD0DA0738
:1010A000DA8BD51FD61FD71FD81FD52BD8B4D62B78
:1010B000D8B4D72BD8B4D82B3B0EE16F9A0EE06F83
:1010C000CA0EDF6FDE6B0A0EDC6FD951D8B4DA2B93
:1010D000D8C0E5F0D7C0E4F0D6C0E3F0D5C0E2F068
:1010E000E1C0E9F0E0C0E8F0DFC0E7F0DEC0E6F024
:1010F00068DF0150EFCFD5F0ECCFD6F0ECCFD7F0D2
:10110000ECCFD8F000520FE1D929DC5D0CE0DA51C8
:101110000CE00F0BDC5D01E03BE2DABF39D0DABD59
:1011200004D0200E30D0200EDA17DAAB0DD0DA9BC7
:10113000D951D8A4DA070050DA6F2D0EE26F45ECD2
:1011400004F0DA51006EDA6BD951DC5D0BE100502E
:10115000DA6F2E0EE26F45EC04F0DA51006E200ECD
:10116000DA17000E300EDAAB0ED0DA9BD951D8A4C4
:10117000DA070050DA6F2D0EE26F45EC04F0DA5119
:10118000006EDA6B300E002600C0E2F045EC04F091
:10119000E1C0E5F0E0C0E4F0DFC0E3F0DEC0E2F083
:1011A000E96BE86BE76B0A0EE66F0BDF03C0E1F05B
:1011B00002C0E0F001C0DFF000C0DEF0DC2F88D715
:1011C000000CD7C0DEF0DB51DE1BDEAF05D0D894BB
:1011D000D890D7BFD8802FD0D7C0DEF0DAC0DFF0EC
:1011E000D651DF5F06E0DEAF26D0D850010AD86EB8
:1011F00022D0DBC0DFF0D751DF5F06E0DEAF1BD0CF
:10120000D850010AD86E17D0DCC0DFF0D851DF5FAC
:1012100006E0DEAF10D0D850010AD86E0CD0DDC089
:10122000DFF0D951DF5F06E0DEAF05D0D850010A0C
:10123000D86E01D0D890000C8E0E006ED151005E99
:10124000D2C002F0D3C001F0028E005209E0D89063
:10125000025202E1015204E002320132002EF7D7BD
:10126000D2AF05D0011E021E012AD8B4022A000CFA
:101270000150D5C0D7F0640ED86F37DD00C0D5F06F
:101280000150300E07E1D6A30DD0D6B70BD0D6B99A
:10129000200E03D0D697D699D681012601C0E2F060
:1012A00045EC04F0D5C0D7F00A0ED86F1EDD00C0A3
:1012B000D5F00150300E06E1D6B709D0D6A107D03F
:1012C000D6B9200E012601C0E2F045EC04F0300E44
:1012D000D527D5C0E2F045EC04F0000CD56BD46BFB
:1012E000D36BD26BD66BEEEC03F003C098F002C068
:1012F00097F001C096F000C095F0D882ACC0DDF048
:10130000ABC0DCF0AAC0DBF0A9C0DAF0A4C0E1F009
:10131000A3C0E0F0A2C0DFF0A1C0DEF031EC05F028
:1013200000C0D6F001C0D7F002C0D8F003C0D9F099
:10133000D882A8C0DDF0A7C0DCF0A6C0DBF0A5C055
:10134000DAF0A0C0E1F09FC0E0F09EC0DFF09DC0E9
:10135000DEF031EC05F0D9C0DDF0D8C0DCF0D7C04C
:10136000DBF0D6C0DAF003C0E1F002C0E0F001C06B
:10137000DFF000C0DEF084EC04F003C0BCF002C07B
:10138000BBF001C0BAF000C0B9F029500A0834E13E
:10139000BCC0E5F0BBC0E4F0BAC0E3F0B9C0E2F015
:1013A00098C0E9F097C0E8F096C0E7F095C0E6F085
:1013B0006FDD00C0D6F001C0D7F002C0D8F003C086
:1013C000D9F0D89203C0DDF002C0DCF001C0DBF040
:1013D00000C0DAF0C0C0E1F0BFC0E0F0BEC0DFF096
:1013E000BDC0DEF031EC05F003C09CF002C09BF004
:1013F00001C09AF000C099F02950140834E1BCC033
:10140000E5F0BBC0E4F0BAC0E3F0B9C0E2F098C0C8
:10141000E9F097C0E8F096C0E7F095C0E6F038DD57
:1014200000C0D6F001C0D7F002C0D8F003C0D9F098
:10143000D88203C0DDF002C0DCF001C0DBF000C0E8
:10144000DAF0C0C0E1F0BFC0E0F0BEC0DFF0BDC068
:10145000DEF031EC05F003C09CF002C09BF001C04F
:101460009AF000C099F09CC0D9F09BC0D8F09AC007
:10147000D7F099C0D6F0DD6BDC6BDB6BDA6BA1DEED
:1014800004E39C6B9B6B9A6B996B010ED15D245CA2
:1014900002E001E3246A2450040DF350036A450F6F
:1014A000E96E000E0320EA6E99C0EFFF9AC0ECFFD0
:1014B0009BC0ECFF9CC0ECFF242A256A010ED15D85
:1014C000255C01E036E22550040DF350036A450F18
:1014D000E96E000E0320EA6EEFCF00F0ECCF01F0D2
:1014E000ECCF02F0ECCF03F0EACFD7F0E9CFD6F0A3
:1014F000D892D5C0DDF0D4C0DCF0D3C0DBF0D2C0D0
:10150000DAF003C0E1F002C0E0F001C0DFF000C09B
:10151000DEF031EC05F0D7C0EAFFD6C0E9FF03C02A
:10152000D5F002C0D4F001C0D3F000C0D2F0252A1B
:10153000C5D7DC6BD1C0DBF0D3EC03F0D5C0DDF058
:10154000D4C0DCF0D3C0DBF0D2C0DAF003C0E1F0ED
:1015500002C0E0F001C0DFF000C0DEF084EC04F077
:1015600003C0D5F002C0D4F001C0D3F000C0D2F067
:10157000D2C000F0D3C001F0D4C002F0D5C003F057
:10158000B2EF20F0D892B8C0DDF0B7C0DCF0B6C042
:10159000DBF0B5C0DAF0C4C0E1F0C3C0E0F0C2C017
:1015A000DFF0C1C0DEF031EC05F003C0CCF002C0CA
:1015B000CBF001C0CAF000C0C9F0D882B8C0DDF0DD
:1015C000B7C0DCF0B6C0DBF0B5C0DAF0C4C0E1F003
:1015D000C3C0E0F0C2C0DFF0C1C0DEF031EC05F006
:1015E00003C0D0F002C0CFF001C0CEF000C0CDF0FB
:1015F000D0C0D9F0CFC0D8F0CEC0D7F0CDC0D6F093
:10160000B4C0DDF0B3C0DCF0B2C0DBF0B1C0DAF0E2
:10161000D8DD16E3B4C0D9F0B3C0D8F0B2C0D7F06B
:10162000B1C0D6F0CCC0DDF0CBC0DCF0CAC0DBF07E
:10163000C9C0DAF0C6DD04E38B929492179020D0F3
:10164000B4C0D9F0B3C0D8F0B2C0D7F0B1C0D6F0B2
:10165000D0C0DDF0CFC0DCF0CEC0DBF0CDC0DAF022
:10166000B0DD0BE32C502B5C04E28B82949217804C
:1016700003D08B929492179003D08B9294921790F0
:10168000BEEF20F0F86AD09E078EEA6AE96A1790EA
:101690001792179417961798179A179C179E186AFF
:1016A000080E196E020E1A6E0B0E1B6E020E1C6EC9
:1016B000030E1D6E020E1E6E1F6E040E206E216A3A
:1016C000226A236A246A256A266A060E276E010E9C
:1016D000286E0A0E296E2A6A2B6A030E2C6E2D6A5A
:1016E0002E6A2F6A306A316A326A336A346A356A1E
:1016F000366A376A986B976B966B956B9C6B9B6B96
:101700009A6B996BA06B9F6B9E6B9D6BA46BA36B8D
:10171000A26BA16BA86BA76BA66BA56BAC6BAB6B3D
:10172000AA6BA96BB06BAF6BAE6BAD6BB46BB36BED
:10173000B26BB16BB86BB76B600EB66F810EB56FE5
:10174000BC6BBB6BBA6BB96BC06BBF6BBE6BBD6B5D
:10175000C46BC36BC26BC16BC86BC76BC66BC56B0D
:10176000CC6BCB6BCA6BC96BD06BCF6BCE6BCD6BBD
:10177000C150C00B0F09C16E070EB46E3E0E386E1D
:10178000200E396E5E0E3A6E3B6A3C6A3D6A3E6AD6
:101790003F6A406A416A426A456A466A476A486ADD
:1017A000496A4A6A4B6A4C6A4D6A4E6A4F6A506A85
:1017B000516A526A536A546A556A566A576A586A35
:1017C000596A5A6A5B6A5C6A5D6A5E6A5F6A606BE4
:1017D000616B626B636B646B656B666B676B686B8D
:1017E000696B6A6B6B6B6C6B6D6B6E6B6F6B706B3D
:1017F000716B726B736B746B756B766B776B786BED
:10180000796B7A6B7B6B7C6B7D6B7E6B7F6B806B9C
:10181000816B826B836B846B856B866B876B886B4C
:10182000896B8A6B8B6B8C6B8D6B8E6B8F6B906BFC
:10183000916B926B936B946B956A8C6AA8EC03F036
:10184000C00EF212850ECD6E9D80C150C00B0D09E9
:10185000C16EC090C082C094C09EC280D66BEEECB8
:1018600003F0010EE36FE46F14EC04F0820EF66EE9
:10187000010EF76E74EC04F0010EE36F020EE46FDC
:1018800014EC04F0980EF66E010EF76E74EC04F092
:10189000010EE36F030EE46F14EC04F0AE0EF66E6F
:1018A000010EF76E74EC04F0010EE36F040EE46FAA
:1018B00014EC04F0C40EF66E010EF76E74EC04F036
:1018C000080ED16FFA0EE36F37EC03F0D12FFAD781
:1018D0000C0EE26F45EC04F0928A80AA47D0040E09
:1018E000D16FFA0EE36F37EC03F0D12FFAD7928A5B
:1018F00080AA3CD0320EA96EA86AA69CA69EA68499
:10190000F250006EF29E0F01550EA76EAA0EA76E42
:10191000A682A6B2FED7A6940050F212330EA96E8C
:10192000A86AA69CA69EA684F250006EF29E550E52
:10193000A76EAA0EA76EA682A6B2FED7A6940050E6
:10194000F212340EA96EA86AA69CA69EA684F25036
:10195000006EF29E550EA76EAA0EA76EA682A6B2C4
:10196000FED7A6940050F212FF000001F2CFD1F092
:10197000F29EA96AA69CA69EA680A850D1BFF28E10
:101980003F6E140EE36F37EC03F0F2CFD1F0F29E0E
:10199000010EA96EA69CA69EA680A850D1BFF28E6D
:1019A000406E140EE36F37EC03F0F2CFD1F0F29EED
:1019B000020EA96EA69CA69EA680A850D1BFF28E4C
:1019C000416E140EE36F37EC03F0F2CFD1F0F29ECC
:1019D000030EA96EA69CA69EA680A850D1BFF28E2B
:1019E000426E140EE36F37EC03F0F2CFD1F0F29EAB
:1019F000050EA96EA69CA69EA680A850D1BFF28E09
:101A0000276EF2CFD1F0F29E060EA96EA69CA69E7E
:101A1000A680A850D1BFF28E2D6EF2CFD1F0F29EEB
:101A2000070EA96EA69CA69EA680A850D1BFF28ED6
:101A30002E6EF2CFD1F0F29E080EA96EA69CA69E45
:101A4000A680A850D1BFF28E2F6EF2CFD1F0F29EB9
:101A5000090EA96EA69CA69EA680A850D1BFF28EA4
:101A6000306EF2CFD1F0F29E140EA96EA69CA69E07
:101A7000A680A850D1BFF28E316EF2CFD1F0F29E87
:101A8000150EA96EA69CA69EA680A850D1BFF28E68
:101A9000326EF2CFD1F0F29E1E0EA96EA69CA69ECB
:101AA000A680A850D1BFF28EDC6BDB6FD3EC03F0C5
:101AB00003C0A0F002C09FF001C09EF000C09DF0E6
:101AC000F2CFD1F0F29E1F0EA96EA69CA69EA68014
:101AD000A850D1BFF28EDC6BDB6FD3EC03F003C0F8
:101AE000A8F002C0A7F001C0A6F000C0A5F0F2CF98
:101AF000D1F0F29E200EA96EA69CA69EA680A850AC
:101B0000D1BFF28E336EF2CFD1F0F29E210EA96ECC
:101B1000A69CA69EA680A850D1BFF28E346EF2CFAE
:101B2000D1F0F29E220EA96EA69CA69EA680A85079
:101B3000D1BFF28E356EF2CFD1F0F29E230EA96E98
:101B4000A69CA69EA680A850D1BFF28E366EF2CF7C
:101B5000D1F0F29E320EA96EA69CA69EA680A85039
:101B6000D1BFF28E216EF2CFD1F0F29E330EA96E6C
:101B7000A69CA69EA680A850D1BFF28E226EF2CF60
:101B8000D1F0F29E340EA96EA69CA69EA680A85007
:101B9000D1BFF28E236EF2CFD1F0F29E3C0EA96E31
:101BA000A69CA69EA680A850D1BFF28E296EF2CF29
:101BB000D1F0F29E460EA96EA69CA69EA680A850C5
:101BC000D1BFF28E2C6EDC6B34C0DBF0D3EC03F0B3
:101BD00003C0DDF002C0DCF001C0DBF000C0DAF0D1
:101BE000E16BE06B200EDF6F820EDE6F84EC04F0A1
:101BF00003C0C8F002C0C7F001C0C6F000C0C5F005
:101C0000DC6B33C0DBF0D3EC03F0D89203C0DDF023
:101C100002C0DCF001C0DBF000C0DAF0C8C0E1F0C7
:101C2000C7C0E0F0C6C0DFF0C5C0DEF031EC05F0A3
:101C300003C0A4F002C0A3F001C0A2F000C0A1F054
:101C4000DC6B36C0DBF0D3EC03F003C0DDF002C088
:101C5000DCF001C0DBF000C0DAF0E16BE06B200EDD
:101C6000DF6F820EDE6F84EC04F003C0C8F002C0A8
:101C7000C7F001C0C6F000C0C5F0DC6B35C0DBF0BA
:101C8000D3EC03F0D89203C0DDF002C0DCF001C059
:101C9000DBF000C0DAF0C8C0E1F0C7C0E0F0C6C0B9
:101CA000DFF0C5C0DEF031EC05F003C0ACF002C0DF
:101CB000ABF001C0AAF000C0A9F0DC6B32C0DBF0D1
:101CC000D3EC03F003C0DDF002C0DCF001C0DBF0B8
:101CD00000C0DAF0E16BE06B480EDF6F850EDE6F5F
:101CE00084EC04F003C0C8F002C0C7F001C0C6F025
:101CF00000C0C5F0DC6B31C0DBF0D3EC03F0D89250
:101D000003C0DDF002C0DCF001C0DBF000C0DAF09F
:101D1000C8C0E1F0C7C0E0F0C6C0DFF0C5C0DEF06B
:101D200031EC05F003C0C0F002C0BFF001C0BEF04E
:101D300000C0BDF0DC6B30C0DBF0D3EC03F003C0BF
:101D4000DDF002C0DCF001C0DBF000C0DAF0E16BD6
:101D5000E06B200EDF6F820EDE6F84EC04F003C0B8
:101D6000C8F002C0C7F001C0C6F000C0C5F0DC6B0F
:101D70002FC0DBF0D3EC03F0D89203C0DDF002C03B
:101D8000DCF001C0DBF000C0DAF0C8C0E1F0C7C091
:101D9000E0F0C6C0DFF0C5C0DEF031EC05F003C0F6
:101DA000B8F002C0B7F001C0B6F000C0B5F0DC6B0F
:101DB0002EC0DBF0D3EC03F003C0DDF002C0DCF09A
:101DC00001C0DBF000C0DAF0E16BE06B200EDF6FEA
:101DD000820EDE6F84EC04F003C0C8F002C0C7F0CE
:101DE00001C0C6F000C0C5F0DC6B2DC0DBF0D3EC49
:101DF00003F0D89203C0DDF002C0DCF001C0DBF0DC
:101E000000C0DAF0C8C0E1F0C7C0E0F0C6C0DFF043
:101E1000C5C0DEF031EC05F003C0C4F002C0C3F071
:101E200001C0C2F000C0C1F01852D8A4D4D1010E34
:101E3000E36FE46F14EC04F0DA0EF66E010EF76E49
:101E400074EC04F0010EE36F020EE46F14EC04F086
:101E5000F00EF66E010EF76E74EC04F0010EE36FF7
:101E6000030EE46F14EC04F0060EF66E020EF76E2D
:101E70000A0ED56F66EC06F03BC0D1F01F0ED26F94
:101E800089EC06F03CC0D1F01F0ED26F89EC06F051
:101E90003DC0D1F01F0ED26F89EC06F03EC0D1F0EC
:101EA0001F0ED26F89EC06F0200EE26F45EC04F0B5
:101EB000200EE26F45EC04F0928A80AA11D017B48C
:101EC0000ED00B0E1B5C036A3B0FE96E000E032065
:101ED000EA6EEF2A17841E0EE36F37EC03F001D091
:101EE0001794968084A011D017B80ED00B0E1B5CEF
:101EF000036A3B0FE96E000E0320EA6EEF061788B7
:101F00001E0EE36F37EC03F001D01798968284A27F
:101F10000DD017B60AD017861B2A1E0EE36F37ECBA
:101F200003F00C0EE26F45EC04F001D01796968496
:101F300084A40DD017BA0AD0178A1B061E0EE36FB1
:101F400037EC03F00C0EE26F45EC04F001D0179A69
:101F50000B0E1B5C036A3B0FE96E000E0320EA6E5A
:101F6000EFBE01D00AD00B0E1B5C036A3B0FE96E7B
:101F7000000E0320EA6E090EEF6E0B0E1B5C036A67
:101F80003B0FE96E000E0320EA6EEFBE0CD0EF505F
:101F9000090809E20B0E1B5C036A3B0FE96E000E99
:101FA0000320EA6EEF6A1B500A0802E30B0E1B6E59
:101FB0001BC0E3F0040EE46F14EC04F03AC0E2F04E
:101FC00045EC04F01B500E08D8B0F3D03B5003088A
:101FD0006DE13C5008086AE13D50090867E13E5058
:101FE000020864E1A96AA86AA69CA69EA684F2508B
:101FF000006EF29E0F01550EA76EAA0EA76EA68266
:10200000A6B2FED7A6940050F212140E0001E36FA0
:1020100037EC03F0010EA96EA86AA69CA69EA684C2
:10202000F250006EF29E0F01550EA76EAA0EA76E1B
:10203000A682A6B2FED7A6940050F212140E00019A
:10204000E36F37EC03F0020EA96EA86AA69CA69E69
:10205000A684F250006EF29E0F01550EA76EAA0ED6
:10206000A76EA682A6B2FED7A6940050F212140E56
:102070000001E36F37EC03F0030EA96EA86AA69C7B
:10208000A69EA684F250006EF29E0F01550EA76E1A
:10209000AA0EA76EA682A6B2FED7A6940050F21290
:1020A000140E0001E36F37EC03F0FF003F503B5C80
:1020B00049E140503C5C46E141503D5C43E14250C7
:1020C0003E5C40E1010EE36FE46F14EC04F01C0E83
:1020D000F66E020EF76E74EC04F0010EE36F020E62
:1020E000E46F14EC04F0300EF66E020EF76E74EC32
:1020F00004F0010EE36F030EE46F14EC04F0440EE1
:10210000F66E020EF76E74EC04F0010EE36F040E2F
:10211000E46F14EC04F0580EF66E020EF76E74ECD9
:1021200004F0040ED16FFA0EE36F37EC03F0D12FF9
:10213000FAD7640E186E0B0E1B6E0C0EE26F45EC98
:1021400004F037D0010EE36FE46F14EC04F0010EDD
:10215000E36F020EE46F14EC04F06C0EF66E020EE8
:10216000F76E74EC04F0010EE36F030EE46F14ECF1
:1021700004F0800EF66E020EF76E74EC04F0010EA1
:10218000E36F040EE46F14EC04F0940EF66E020E8E
:10219000F76E74EC04F0040ED16FFA0EE36F37ECB7
:1021A00003F0D12FFAD70B0E1B6E0C0EE26F45EC2D
:1021B00004F01B500B080FE21B500D080CE3010E3E
:1021C0001B5CD16FE36F040EE46F14EC04F039C0B4
:1021D000E2F045EC04F0182CF8D0010EE36FE46F48
:1021E00014EC04F0A80EF66E020EF76E74EC04F018
:1021F00037BE01D001D0376A928A80AA0DD017B4B9
:102200000AD01E061C06010E1C241D6E17841E0E0D
:10221000E36F37EC03F001D01794968084A00DD0C3
:1022200017B80AD01E2A1C2A010E1C5C1D6E1788C6
:102230001E0EE36F37EC03F001D017981E50205CA0
:1022400008E2372A1EC020F0020E205C1F6E040E2A
:102250001C6E1F501E5C08E237061EC01FF0020EE7
:102260001F24206E020E1C6E1E50195C09E21AC05B
:102270001EF0020E1C6E376A1EC01FF01F24206E57
:102280001A501E5C0BE219C01EF0040E1C6E195C85
:10229000376E1EC020F0020E205C1F6E010E372428
:1022A000D16FD26F020ED36FEDEC06F0020E372421
:1022B000D16FD26F030ED36FEDEC06F0030E37240F
:1022C000D16FD26F040ED36FEDEC06F0010EE36F09
:1022D0001CC0E4F014EC04F038C0E2F045EC04F06B
:1022E0001C50020814E1010EE36F040EE46F14ECBD
:1022F00004F039C0E2F045EC04F0010EE36F030E88
:10230000E46F14EC04F039C0E2F045EC04F01C502A
:10231000040814E1010EE36F020EE46F14EC04F004
:1023200039C0E2F045EC04F0010EE36F030EE46FF8
:1023300014EC04F039C0E2F045EC04F01C50030842
:1023400014E1010EE36F040EE46F14EC04F039C0E5
:10235000E2F045EC04F0010EE36F020EE46F14ECC2
:1023600004F039C0E2F045EC04F0968284A21BD060
:1023700017B618D017861EC018F0030E1C6E020E7A
:10238000D16F960EE36F37EC03F0D12FFAD70C0E16
:10239000E26F45EC04F01850060804E13B6A3C6A21
:1023A0003D6A3E6A01D01796968484A40ED0640ECE
:1023B000186E0C0EE26F45EC04F0020ED16FFA0EAF
:1023C000E36F37EC03F0D12FFAD718500208D8A4E6
:1023D000FED1010EE36FE46F14EC04F0BE0EF66E56
:1023E000020EF76E74EC04F0010EE36F020EE46F60
:1023F00014EC04F0D40EF66E020EF76E74EC04F0DA
:10240000010EE36F030EE46F14EC04F0EA0EF66EB7
:10241000020EF76E050ED56F66EC06F0010EE96E42
:10242000B0C0D8F0AFC0D7F0AEC0D6F0ADC0D5F0D8
:10243000D96F1EEC08F0F40EF66E020EF76E050E64
:10244000D56F66EC06F0B0C0D9F0AFC0D8F0AEC022
:10245000D7F0ADC0D6F0DD6BDC6BDB6B7E0EDA6FD8
:10246000E1EC08F005E3B06BAF6BAE6B7E0EAD6FC9
:10247000D96BD86B600ED76F820ED66FB0C0DDF00F
:10248000AFC0DCF0AEC0DBF0ADC0DAF0E1EC08F0DC
:1024900006E3B06BAF6B600EAE6F820EAD6F928ACB
:1024A00080AA30D0B0C0D9F0AFC0D8F0AEC0D7F05D
:1024B000ADC0D6F0DD6BDC6B600EDB6F820EDA6FC9
:1024C000E1EC08F01FE3D892B0C0DDF0AFC0DCF063
:1024D000AEC0DBF0ADC0DAF0CD0EE16FCC0EE06F38
:1024E0004C0EDF6F7B0EDE6F31EC05F003C0B0F0F9
:1024F00002C0AFF001C0AEF000C0ADF0C80EE36F97
:1025000037EC03F0968084A02FD0D96BD86BD76BB3
:102510007E0ED66FB0C0DDF0AFC0DCF0AEC0DBF039
:10252000ADC0DAF0E1EC08F01FE3D882B0C0DDF016
:10253000AFC0DCF0AEC0DBF0ADC0DAF0CD0EE16FC5
:10254000CC0EE06F4C0EDF6F7B0EDE6F31EC05F0D2
:1025500003C0B0F002C0AFF001C0AEF000C0ADF0FB
:10256000C80EE36F37EC03F0968284A21BD1D882A9
:10257000B0C0DDF0AFC0DCF0AEC0DBF0ADC0DAF073
:10258000B4C0E1F0B3C0E0F0B2C0DFF0B1C0DEF043
:1025900031EC05F003C0C0F002C0BFF001C0BEF0D6
:1025A00000C0BDF0D96BD86BD76BD66BC0C0DDF067
:1025B000BFC0DCF0BEC0DBF0BDC0DAF0E1EC08F07B
:1025C00001E218E10A0E296E3C0EA96E29C0A8FF8F
:1025D000A69CA69EA684F250006EF29E0F01550E98
:1025E000A76EAA0EA76EA682A6B2FED7A69400502A
:1025F000F2120001C0C0D9F0BFC0D8F0BEC0D7F001
:10260000BDC0D6F0DD6BDC6BDB6BDA6BE1EC08F0A8
:1026100018E3140E296E3C0EA96E29C0A8FFA69CD3
:10262000A69EA684F250006EF29E0F01550EA76E74
:10263000AA0EA76EA682A6B2FED7A6940050F212EA
:102640000001BDC000F0BEC001F0BFC002F0C0C0BC
:1026500003F0019EC0C0C0F0BFC0BFF001C0BEF01B
:10266000BDC0BDF0C0C0D4F0BFC0D3F0BEC0D2F07A
:10267000BDC0D1F01CEC09F001C031F0DC6B31C001
:10268000DBF0D3EC03F0D882C0C0DDF0BFC0DCF0DB
:10269000BEC0DBF0BDC0DAF003C0E1F002C0E0F084
:1026A00001C0DFF000C0DEF031EC05F003C0C8F07F
:1026B00002C0C7F001C0C6F000C0C5F0C8C0E5F058
:1026C000C7C0E4F0C6C0E3F0C5C0E2F0E96BE86B58
:1026D000480EE76F850EE66F48EC07F003C0D4F0B4
:1026E00002C0D3F001C0D2F000C0D1F01CEC09F060
:1026F00001C032F0140EA96E31C0A8FFA69CA69EA0
:10270000A684F250006EF29E0F01550EA76EAA0E1F
:10271000A76EA682A6B2FED7A6940050F212150E9E
:10272000A96E32C0A8FFA69CA69EA684F2CF00F098
:10273000F29E550EA76EAA0EA76EA682A6B2FED76F
:10274000A6940050F212C80E0001E36F37EC03F0BC
:102750000C0EE26F45EC04F0010EE36F020EE46F25
:1027600014EC04F0FA0EF66E020EF76E74EC04F040
:10277000010EE36F030EE46F14EC04F00C0EF66E22
:10278000030EF76E74EC04F0020ED16FFA0EE36FD5
:1027900037EC03F0D12FFAD70C0EE26F45EC04F0C2
:1027A000640E186E968484A412D0010E186E376AD7
:1027B000040ED16FFA0EE36F37EC03F0D12FFAD786
:1027C000020E1C6E1E6E0C0EE26F45EC04F01850EB
:1027D0000308D8A40EEF18F0010EE36FE46F14ECB9
:1027E00004F01E0EF66E030EF76E74EC04F0010E8C
:1027F000E36F020EE46F14EC04F0340EF66E030E79
:10280000F76E120ED56F66EC06F028C0D5F01B0EE1
:10281000D66F38EC09F0010EE36F030EE46F14EC91
:1028200004F04A0EF66E030EF76E050ED56F66ECD9
:1028300006F0010EE96EB0C0D8F0AFC0D7F0AEC060
:10284000D6F0ADC0D5F0D96F1EEC08F0540EF66E80
:10285000030EF76E050ED56F66EC06F0B0C0D9F02A
:10286000AFC0D8F0AEC0D7F0ADC0D6F0DD6BDC6B3A
:10287000DB6B7E0EDA6FE1EC08F005E3B06BAF6B5B
:10288000AE6B7E0EAD6FD96BD86B600ED76F820EBC
:10289000D66FB0C0DDF0AFC0DCF0AEC0DBF0ADC0D5
:1028A000DAF0E1EC08F006E3B06BAF6B600EAE6FF0
:1028B000820EAD6F928A80AA30D0B0C0D9F0AFC07E
:1028C000D8F0AEC0D7F0ADC0D6F0DD6BDC6B600EDB
:1028D000DB6F820EDA6FE1EC08F01FE3D892B0C034
:1028E000DDF0AFC0DCF0AEC0DBF0ADC0DAF0CD0E95
:1028F000E16FCC0EE06F4C0EDF6F7B0EDE6F31ECC4
:1029000005F003C0B0F002C0AFF001C0AEF000C0EF
:10291000ADF0C80EE36F37EC03F0968084A02FD0A3
:10292000D96BD86BD76B7E0ED66FB0C0DDF0AFC061
:10293000DCF0AEC0DBF0ADC0DAF0E1EC08F01FE394
:10294000D882B0C0DDF0AFC0DCF0AEC0DBF0ADC00F
:10295000DAF0CD0EE16FCC0EE06F4C0EDF6F7B0E28
:10296000DE6F31EC05F003C0B0F002C0AFF001C083
:10297000AEF000C0ADF0C80EE36F37EC03F0968206
:1029800084A2C9D2282C1DD0D66BEEEC03F003C074
:10299000A0F002C09FF001C09EF000C09DF0B0C04A
:1029A000A4F0AFC0A3F0AEC0A2F0ADC0A1F0282A41
:1029B000040ED16FFA0EE36F37EC03F0D12FFAD784
:1029C000AAD228500208D8A4A6D2D66BEEEC03F007
:1029D00003C0A8F002C0A7F001C0A6F000C0A5F097
:1029E000B0C0ACF0AFC0ABF0AEC0AAF0ADC0A9F0C3
:1029F000A4C0D4F0A3C0D3F0A2C0D2F0A1C0D1F043
:102A00001CEC09F001C033F0DC6B33C0DBF0D3EC1D
:102A100003F0D882A4C0DDF0A3C0DCF0A2C0DBF0DC
:102A2000A1C0DAF003C0E1F002C0E0F001C0DFF0C5
:102A300000C0DEF031EC05F003C0C8F002C0C7F002
:102A400001C0C6F000C0C5F0C8C0E5F0C7C0E4F0E2
:102A5000C6C0E3F0C5C0E2F0E96BE86B200EE76F9B
:102A6000820EE66F48EC07F003C0D4F002C0D3F04A
:102A700001C0D2F000C0D1F01CEC09F001C034F06C
:102A8000ACC0D4F0ABC0D3F0AAC0D2F0A9C0D1F092
:102A90001CEC09F001C035F0DC6B35C0DBF0D3EC89
:102AA00003F0D882ACC0DDF0ABC0DCF0AAC0DBF034
:102AB000A9C0DAF003C0E1F002C0E0F001C0DFF02D
:102AC00000C0DEF031EC05F003C0C8F002C0C7F072
:102AD00001C0C6F000C0C5F0C8C0E5F0C7C0E4F052
:102AE000C6C0E3F0C5C0E2F0E96BE86B200EE76F0B
:102AF000820EE66F48EC07F003C0D4F002C0D3F0BA
:102B000001C0D2F000C0D1F01CEC09F001C036F0D9
:102B1000A0C0D4F09FC0D3F09EC0D2F09DC0D1F031
:102B20001CEC09F001C0D1F01E0EA96ED1C0A8FFA7
:102B3000A69CA69EA684F250006EF29E0F01550E32
:102B4000A76EAA0EA76EA682A6B2FED7A6940050C4
:102B5000F212A8C0D4F0A7C0D3F0A6C0D2F0A5C08E
:102B6000D1F000011CEC09F001C0D1F01F0EA96EDC
:102B7000D1C0A8FFA69CA69EA684F250006EF29E2D
:102B80000F01550EA76EAA0EA76EA682A6B2FED79B
:102B9000A6940050F212200EA96E33C0A8FFA69C86
:102BA000A69EA684F2CF00F0F29E550EA76EAA0E46
:102BB000A76EA682A6B2FED7A6940050F212210EEE
:102BC000A96E34C0A8FFA69CA69EA684F2CF00F0F2
:102BD000F29E550EA76EAA0EA76EA682A6B2FED7CB
:102BE000A6940050F212220EA96E35C0A8FFA69C32
:102BF000A69EA684F2CF00F0F29E550EA76EAA0EF6
:102C0000A76EA682A6B2FED7A6940050F212230E9B
:102C1000A96E36C0A8FFA69CA69EA684F2CF00F09F
:102C2000F29E550EA76EAA0EA76EA682A6B2FED77A
:102C3000A6940050F212D882ACC0DDF0ABC0DCF03C
:102C4000AAC0DBF0A9C0DAF0A4C0E1F0A3C0E0F0B4
:102C5000A2C0DFF0A1C0DEF0000131EC05F0A8C099
:102C6000E5F0A7C0E4F0A6C0E3F0A5C0E2F003C021
:102C7000E9F002C0E8F001C0E7F000C0E6F048EC7F
:102C800007F000C0D1F001C0D2F002C0D3F003C001
:102C9000D4F0D882A8C0DDF0A7C0DCF0A6C0DBF07D
:102CA000A5C0DAF0A0C0E1F09FC0E0F09EC0DFF068
:102CB0009DC0DEF031EC05F0D4C0DDF0D3C0DCF017
:102CC000D2C0DBF0D1C0DAF003C0E1F002C0E0F026
:102CD00001C0DFF000C0DEF084EC04F0D882ACC0AC
:102CE000DDF0ABC0DCF0AAC0DBF0A9C0DAF003C0B5
:102CF000E1F002C0E0F001C0DFF000C0DEF031EC36
:102D000005F003C0C0F002C0BFF001C0BEF000C0BB
:102D1000BDF0D96BD86BD76BD66BC0C0DDF0BFC030
:102D2000DCF0BEC0DBF0BDC0DAF0E1EC08F001E29F
:102D300018E10A0E296E3C0EA96E29C0A8FFA69CB8
:102D4000A69EA684F250006EF29E0F01550EA76E4D
:102D5000AA0EA76EA682A6B2FED7A6940050F212C3
:102D60000001C0C0D9F0BFC0D8F0BEC0D7F0BDC010
:102D7000D6F0DD6BDC6BDB6BDA6BE1EC08F018E3B3
:102D8000140E296E3C0EA96E29C0A8FFA69CA69E13
:102D9000A684F250006EF29E0F01550EA76EAA0E89
:102DA000A76EA682A6B2FED7A6940050F21200012A
:102DB000BDC000F0BEC001F0BFC002F0C0C003F053
:102DC000019EC0C0C0F0BFC0BFF001C0BEF0BDC01A
:102DD000BDF0C0C0D4F0BFC0D3F0BEC0D2F0BDC003
:102DE000D1F01CEC09F001C031F0DC6B31C0DBF03C
:102DF000D3EC03F0D882C0C0DDF0BFC0DCF0BEC0B1
:102E0000DBF0BDC0DAF003C0E1F002C0E0F001C0C9
:102E1000DFF000C0DEF031EC05F003C0C8F002C006
:102E2000C7F001C0C6F000C0C5F0C8C0E5F0C7C01B
:102E3000E4F0C6C0E3F0C5C0E2F0E96BE86B480E11
:102E4000E76F850EE66F48EC07F003C0D4F002C0D0
:102E5000D3F001C0D2F000C0D1F01CEC09F001C0E9
:102E600032F0140EA96E31C0A8FFA69CA69EA684BF
:102E7000F250006EF29E0F01550EA76EAA0EA76EBD
:102E8000A682A6B2FED7A6940050F212150EA96E25
:102E900032C0A8FFA69CA69EA684F2CF00F0F29EA8
:102EA000550EA76EAA0EA76EA682A6B2FED7A6944E
:102EB0000050F212C80E0001E36F37EC03F00C0E65
:102EC000E26F45EC04F0010EE36F020EE46F14ECC8
:102ED00004F05A0EF66E030EF76E74EC04F0010E59
:102EE000E36F030EE46F14EC04F06C0EF66E030E49
:102EF000F76E74EC04F0020ED16FFA0EE36F37EC4C
:102F000003F0D12FFAD70C0EE26F45EC04F0010E5E
:102F1000286E640E186E968484A480D0010E186EFC
:102F2000376A040ED16FFA0EE36F37EC03F0D12F3E
:102F3000FAD7020E1C6E1E6E0C0EE26F45EC04F00A
:102F4000010E286EF2CFD1F0F29E1E0EA96EA69C45
:102F5000A69EA680A850D1BFF28EDC6BDB6FD3ECAF
:102F600003F003C0A0F002C09FF001C09EF000C0BB
:102F70009DF0F2CFD1F0F29E200EA96EA69CA69EE7
:102F8000A680A850D1BFF28E336EF2CFD1F0F29E60
:102F9000210EA96EA69CA69EA680A850D1BFF28E37
:102FA000346EDC6B34C0DBF0D3EC03F003C0DDF037
:102FB00002C0DCF001C0DBF000C0DAF0E16BE06BD6
:102FC000200EDF6F820EDE6F84EC04F003C0C8F0C9
:102FD00002C0C7F001C0C6F000C0C5F0DC6B33C052
:102FE000DBF0D3EC03F0D89203C0DDF002C0DCF0DC
:102FF00001C0DBF000C0DAF0C8C0E1F0C7C0E0F00B
:10300000C6C0DFF0C5C0DEF031EC05F003C0A4F0AF
:1030100002C0A3F001C0A2F000C0A1F01850040843
:10302000D8A47CD1010EE36FE46F14EC04F07E0EA3
:10303000F66E030EF76E74EC04F0010EE36F020EF1
:10304000E46F14EC04F0940EF66E030EF76E74EC5D
:1030500004F0010EE36F030EE46F14EC04F0AA0E0B
:10306000F66E030EF76E0A0ED56F66EC06F03BC0E7
:10307000D1F01F0ED26F89EC06F03CC0D1F01F0ECC
:10308000D26F89EC06F03DC0D1F01F0ED26F89ECF3
:1030900006F03EC0D1F01F0ED26F89EC06F0200E74
:1030A000E26F45EC04F0200EE26F45EC04F0928AEA
:1030B00080AA11D017B40ED00B0E1B5C036A3B0F15
:1030C000E96E000E0320EA6EEF2A17841E0EE36FEE
:1030D00037EC03F001D01794968084A011D017B874
:1030E0000ED00B0E1B5C036A3B0FE96E000E032033
:1030F000EA6EEF0617881E0EE36F37EC03F001D07F
:103100001798968284A20DD017B60AD017861B2A6C
:103110001E0EE36F37EC03F00C0EE26F45EC04F08B
:1031200001D01796968484A40DD017BA0AD0178AB6
:103130001B061E0EE36F37EC03F00C0EE26F45EC3E
:1031400004F001D0179A0B0E1B5C036A3B0FE96E6B
:10315000000E0320EA6EEFBE01D00AD00B0E1B5CFE
:10316000036A3B0FE96E000E0320EA6E090EEF6E54
:103170000B0E1B5C036A3B0FE96E000E0320EA6E28
:10318000EFBE0CD0EF50090809E20B0E1B5C036A7E
:103190003B0FE96E000E0320EA6EEF6A1B500A082F
:1031A00010E3010E186E376A020E1C6E1E6E0B0EB7
:1031B0001B6E020ED16FFA0EE36F37EC03F0D12FC6
:1031C000FAD71BC0E3F0040EE46F14EC04F03AC02D
:1031D000E2F045EC04F01B500E08D8B08DD03F5003
:1031E0003B5C4DE140503C5C4AE141503D5C47E175
:1031F00042503E5C44E1010EE36FE46F14EC04F0D6
:10320000C00EF66E030EF76E74EC04F0010EE36F61
:10321000020EE46F14EC04F0D60EF66E030EF76E99
:1032200074EC04F0010EE36F030EE46F14EC04F091
:10323000EC0EF66E030EF76E74EC04F0010EE36F05
:10324000040EE46F14EC04F0020EF66E040EF76E3A
:1032500074EC04F0020ED16FFA0EE36F37EC03F05A
:10326000D12FFAD73D0E186E0B0E1B6E0C0EE26FAF
:1032700045EC04F03B6A3C6A3D6A3E6A3DD0010E73
:10328000E36FE46F14EC04F0180EF66E040EF76EA4
:1032900074EC04F0010EE36F020EE46F14EC04F022
:1032A0002E0EF66E040EF76E74EC04F0010EE36F52
:1032B000030EE46F14EC04F0440EF66E040EF76E89
:1032C00074EC04F0010EE36F040EE46F14EC04F0F0
:1032D0005A0EF66E040EF76E74EC04F0020ED16F07
:1032E000FA0EE36F37EC03F0D12FFAD70B0E1B6EFB
:1032F0000C0EE26F45EC04F01B500B080FE21B5064
:103300000D080CE3010E1B5CD16FE36F040EE46F3C
:1033100014EC04F039C0E2F045EC04F018503D081C
:10332000D8A487D1010EE36FE46F14EC04F0700EA3
:10333000F66E040EF76E74EC04F0010EE36F020EED
:10334000E46F14EC04F0860EF66E040EF76E74EC67
:1033500004F0010EE36F030EE46F14EC04F09C0E16
:10336000F66E040EF76E0A0ED56F66EC06F03BC0E3
:10337000D1F01F0ED26F89EC06F03CC0D1F01F0EC9
:10338000D26F89EC06F03DC0D1F01F0ED26F89ECF0
:1033900006F03EC0D1F01F0ED26F89EC06F0200E71
:1033A000E26F45EC04F0200EE26F45EC04F0928AE7
:1033B00080AA11D017B40ED00B0E1B5C036A3B0F12
:1033C000E96E000E0320EA6EEF2A17841E0EE36FEB
:1033D00037EC03F001D01794968084A011D017B871
:1033E0000ED00B0E1B5C036A3B0FE96E000E032030
:1033F000EA6EEF0617881E0EE36F37EC03F001D07C
:103400001798968284A20DD017B60AD017861B2A69
:103410001E0EE36F37EC03F00C0EE26F45EC04F088
:1034200001D01796968484A40DD017BA0AD0178AB3
:103430001B061E0EE36F37EC03F00C0EE26F45EC3B
:1034400004F001D0179A0B0E1B5C036A3B0FE96E68
:10345000000E0320EA6EEFBE01D00AD00B0E1B5CFB
:10346000036A3B0FE96E000E0320EA6E090EEF6E51
:103470000B0E1B5C036A3B0FE96E000E0320EA6E25
:10348000EFBE0CD0EF50090809E20B0E1B5C036A7B
:103490003B0FE96E000E0320EA6EEF6A1B500A082C
:1034A00004E3050E186E0B0E1B6E1BC0E3F0040E3A
:1034B000E46F14EC04F03AC0E2F045EC04F01B5069
:1034C0000E08D8B0A4D0010EE36FE46F14EC04F042
:1034D000B20EF66E040EF76E74EC04F0010EE36F9C
:1034E000020EE46F14EC04F0C80EF66E040EF76ED4
:1034F00074EC04F0010EE36F030EE46F14EC04F0BF
:10350000DE0EF66E040EF76E74EC04F0010EE36F3F
:10351000040EE46F14EC04F0F40EF66E040EF76E75
:1035200074EC04F0A96A3BC0A8FFA69CA69EA684E2
:10353000F250006EF29E0F01550EA76EAA0EA76EF6
:10354000A682A6B2FED7A6940050F212140E000175
:10355000E36F37EC03F0010EA96E3CC0A8FFA69CF8
:10356000A69EA684F250006EF29E0F01550EA76E25
:10357000AA0EA76EA682A6B2FED7A6940050F2129B
:10358000140E0001E36F37EC03F0020EA96E3DC08C
:10359000A8FFA69CA69EA684F250006EF29E0F0184
:1035A000550EA76EAA0EA76EA682A6B2FED7A69447
:1035B0000050F212140E0001E36F37EC03F0030E1B
:1035C000A96E3EC0A8FFA69CA69EA684F250006EDF
:1035D000F29E0F01550EA76EAA0EA76EA682A6B286
:1035E000FED7A6940050F212140E0001E36F37ECE0
:1035F00003F0020ED16FFA0EE36F37EC03F0D12F18
:10360000FAD7010E186E376A020E1C6E1E6E1B5022
:103610000B080FE21B500D080CE3010E1B5CD16F71
:10362000E36F040EE46F14EC04F039C0E2F045ECF3
:1036300004F018500508D8A48DD0010EE36FE46F94
:1036400014EC04F00A0EF66E050EF76E74EC04F03E
:10365000010EE36F020EE46F14EC04F0200EF66E20
:10366000050EF76E74EC04F0010EE36F030EE46FC9
:1036700014EC04F0360EF66E050EF76E080ED56FDC
:1036800066EC06F027C0D5F0010ED66F38EC09F0D5
:10369000200EE26F45EC04F0200EE26F45EC04F0E2
:1036A000200EE26F45EC04F02750100802E2100EE5
:1036B000276E928A80AA08D027500F0805E3272A90
:1036C000C80EE36F37EC03F0968084A007D0275232
:1036D00005E02706C80EE36F37EC03F0968284A25C
:1036E00024D0050EA96E27C0A8FFA69CA69EA6847E
:1036F000F250006EF29E0F01550EA76EAA0EA76E35
:10370000A682A6B2FED7A6940050F212020E0001C5
:10371000D16FFA0EE36F37EC03F0D12FFAD70C0E0E
:10372000E26F45EC04F0640E186E968484A412D007
:10373000010E186E376A040ED16FFA0EE36F37EC84
:1037400003F0D12FFAD7020E1C6E1E6E0C0EE26F24
:1037500045EC04F018500608D8A455D1010EE36FCB
:10376000E46F14EC04F0460EF66E050EF76E74EC82
:1037700004F0010EE36F020EE46F14EC04F05C0E33
:10378000F66E050EF76E74EC04F0010EE36F030E97
:10379000E46F14EC04F0720EF66E050EF76E090E6F
:1037A000D56F66EC06F0010EE96EC4C0D8F0C3C058
:1037B000D7F0C2C0D6F0C1C0D5F0D96F1EEC08F06A
:1037C000200EE26F45EC04F0200EE26F45EC04F0B1
:1037D000200EE26F45EC04F0D96BD86B200ED76F4A
:1037E000820ED66FC4C0DDF0C3C0DCF0C2C0DBF017
:1037F000C1C0DAF0E1EC08F006E3C46BC36B200E45
:10380000C26F820EC16F928A80AA30D0C4C0D9F034
:10381000C3C0D8F0C2C0D7F0C1C0D6F0DD6BDC6B3E
:10382000200EDB6F820EDA6FE1EC08F01FE3D89216
:10383000C4C0DDF0C3C0DCF0C2C0DBF0C1C0DAF050
:10384000CD0EE16FCC0EE06F4C0EDF6F7B0EDE6FA6
:1038500031EC05F003C0C4F002C0C3F001C0C2F0F7
:1038600000C0C1F0C80EE36F37EC03F0968084A06F
:1038700032D0CD0ED96FCC0ED86F4C0ED76F7B0ED9
:10388000D66FC4C0DDF0C3C0DCF0C2C0DBF0C1C085
:10389000DAF0E1EC08F01FE3D882C4C0DDF0C3C069
:1038A000DCF0C2C0DBF0C1C0DAF0CD0EE16FCC0EAF
:1038B000E06F4C0EDF6F7B0EDE6F31EC05F003C066
:1038C000C4F002C0C3F001C0C2F000C0C1F0C80E15
:1038D000E36F37EC03F0968284A280D0C4C0D4F0AA
:1038E000C3C0D3F0C2C0D2F0C1C0D1F01CEC09F00B
:1038F00001C02DF0DC6B2DC0DBF0D3EC03F0D882DF
:10390000C4C0DDF0C3C0DCF0C2C0DBF0C1C0DAF07F
:1039100003C0E1F002C0E0F001C0DFF000C0DEF063
:1039200031EC05F003C0C8F002C0C7F001C0C6F01A
:1039300000C0C5F0C8C0E5F0C7C0E4F0C6C0E3F001
:10394000C5C0E2F0E96BE86B200EE76F820EE66F10
:1039500048EC07F003C0D4F002C0D3F001C0D2F0AD
:1039600000C0D1F01CEC09F001C02EF0060EA96ECB
:103970002DC0A8FFA69CA69EA684F250006EF29EC3
:103980000F01550EA76EAA0EA76EA682A6B2FED78D
:10399000A6940050F212070EA96E2EC0A8FFA69C96
:1039A000A69EA684F2CF00F0F29E550EA76EAA0E38
:1039B000A76EA682A6B2FED7A6940050F212020EFF
:1039C0000001D16FFA0EE36F37EC03F0D12FFAD775
:1039D0000C0EE26F45EC04F0640E186E968484A41D
:1039E00012D0010E186E376A040ED16FFA0EE36F13
:1039F00037EC03F0D12FFAD7020E1C6E1E6E0C0EA0
:103A0000E26F45EC04F018500708D8A456D1010E17
:103A1000E36FE46F14EC04F0840EF66E050EF76E9F
:103A200074EC04F0010EE36F020EE46F14EC04F08A
:103A30009A0EF66E050EF76E74EC04F0010EE36F4D
:103A4000030EE46F14EC04F0B00EF66E050EF76E84
:103A5000090ED56F66EC06F0010EE96EB8C0D8F01D
:103A6000B7C0D7F0B6C0D6F0B5C0D5F0D96F1EEC50
:103A700008F0200EE26F45EC04F0200EE26F45ECFA
:103A800004F0200EE26F45EC04F0D96BD86B600EA9
:103A9000D76F820ED66FB8C0DDF0B7C0DCF0B6C00D
:103AA000DBF0B5C0DAF0E1EC08F006E3B86BB76B19
:103AB000600EB66F820EB56F928A80AA31D0B8C000
:103AC000D9F0B7C0D8F0B6C0D7F0B5C0D6F0660E02
:103AD000DD6FDC6F5E0EDB6F820EDA6FE1EC08F0FB
:103AE0001FE3D892B8C0DDF0B7C0DCF0B6C0DBF0A1
:103AF000B5C0DAF0CD0EE16FCC0EE06F4C0EDF6F8B
:103B00007B0EDE6F31EC05F003C0B8F002C0B7F0F9
:103B100001C0B6F000C0B5F0C80EE36F37EC03F09B
:103B2000968084A032D0CD0ED96FCC0ED86F4C0EBB
:103B3000D76F7B0ED66FB8C0DDF0B7C0DCF0B6C073
:103B4000DBF0B5C0DAF0E1EC08F01FE3D882B8C0D2
:103B5000DDF0B7C0DCF0B6C0DBF0B5C0DAF0CD0EFA
:103B6000E16FCC0EE06F4C0EDF6F7B0EDE6F31EC41
:103B700005F003C0B8F002C0B7F001C0B6F000C055
:103B8000B5F0C80EE36F37EC03F0968284A280D0C4
:103B9000B8C0D4F0B7C0D3F0B6C0D2F0B5C0D1F041
:103BA0001CEC09F001C02FF0DC6B2FC0DBF0D3EC74
:103BB00003F0D882B8C0DDF0B7C0DCF0B6C0DBF0EF
:103BC000B5C0DAF003C0E1F002C0E0F001C0DFF000
:103BD00000C0DEF031EC05F003C0C8F002C0C7F051
:103BE00001C0C6F000C0C5F0C8C0E5F0C7C0E4F031
:103BF000C6C0E3F0C5C0E2F0E96BE86B200EE76FEA
:103C0000820EE66F48EC07F003C0D4F002C0D3F098
:103C100001C0D2F000C0D1F01CEC09F001C030F0BE
:103C2000080EA96E2FC0A8FFA69CA69EA684F250DF
:103C3000006EF29E0F01550EA76EAA0EA76EA68209
:103C4000A6B2FED7A6940050F212090EA96E30C09B
:103C5000A8FFA69CA69EA684F2CF00F0F29E550E69
:103C6000A76EAA0EA76EA682A6B2FED7A694005093
:103C7000F212020E0001D16FFA0EE36F37EC03F07F
:103C8000D12FFAD70C0EE26F45EC04F0640E186EDB
:103C9000968484A412D0010E186E376A040ED16F78
:103CA000FA0EE36F37EC03F0D12FFAD7020E1C6E39
:103CB0001E6E0C0EE26F45EC04F018500808D8A4F4
:103CC00047D1010EE36FE46F14EC04F0C20EF66E00
:103CD000050EF76E090ED56F66EC06F0010EE96E63
:103CE000B4C0D8F0B3C0D7F0B2C0D6F0B1C0D5F0F0
:103CF000D96F1EEC08F0200EE26F45EC04F0010EC7
:103D0000E36F020EE46F14EC04F0620EE26F45EC18
:103D100004F03A0EE26F45EC04F0890EE96EC0C083
:103D2000D8F0BFC0D7F0BEC0D6F0BDC0D5F0020EEF
:103D3000D96F1EEC08F0200EE26F45EC04F0580E2F
:103D4000E26F45EC04F03D0EE26F45EC04F0010E2D
:103D5000E96EA0C0D8F09FC0D7F09EC0D6F09DC03D
:103D6000D5F0D96B1EEC08F0E10EF66E050EF76E7D
:103D7000040ED56F66EC06F0010EE96EA8C0D8F00F
:103D8000A7C0D7F0A6C0D6F0A5C0D5F0D96B1EEC61
:103D900008F0010EE36F030EE46F14EC04F0590E0B
:103DA000E26F45EC04F0300EE26F45EC04F03D0E9E
:103DB000E26F45EC04F0010EE96EA4C0D8F0A3C098
:103DC000D7F0A2C0D6F0A1C0D5F0D96F1EEC08F094
:103DD000F40EF66E050EF76E040ED56F66EC06F067
:103DE000010EE96EACC0D8F0ABC0D7F0AAC0D6F0D7
:103DF000A9C0D5F0D96F1EEC08F0200EE26F45EC9B
:103E000004F029C0D5F0010ED66F38EC09F0010E90
:103E1000E36F040EE46F14EC04F0D66BEEEC03F0E9
:103E200000C0D1F001C0D2F002C0D3F003C0D4F082
:103E3000040EF66E060EF76E090ED56F66EC06F0F0
:103E40002CC0D5F0010ED66F38EC09F0110EF66ECD
:103E5000060EF76E050ED56F66EC06F0010EE96EE4
:103E6000D4C0D8F0D3C0D7F0D2C0D6F0D1C0D5F0EE
:103E7000D96B1EEC08F0200EE26F45EC04F0DC6B11
:103E80002CC0DBF0D3EC03F0D96BD86B600ED76F8E
:103E9000820ED66F03C0DDF002C0DCF001C0DBF0A3
:103EA00000C0DAF0E1EC08F002E30E0E2C6E928A0C
:103EB00080AA08D02C50090805E32C2AC80EE36F0D
:103EC00037EC03F0968084A007D02C5205E02C0636
:103ED000C80EE36F37EC03F0968284A224D0460E1E
:103EE000A96E2CC0A8FFA69CA69EA684F250006EC8
:103EF000F29E0F01550EA76EAA0EA76EA682A6B25D
:103F0000FED7A6940050F212020E0001D16FFA0EF5
:103F1000E36F37EC03F0D12FFAD70C0EE26F45ECCC
:103F200004F0640E186E968484A412D0010E186EEC
:103F3000376A040ED16FFA0EE36F37EC03F0D12F1E
:103F4000FAD7020E1C6E1E6E0C0EE26F45EC04F0EA
:103F500018506408D8A4F6D0010EE36FE46F14EC97
:103F600004F01E0EF66E060EF76E74EC04F0010EF1
:103F7000E36F020EE46F14EC04F0700EE26F45EC98
:103F800004F0480EE26F45EC04F03A0EE26F45ECA7
:103F900004F0010EE96EB4C0D8F0B3C0D7F0B2C0DF
:103FA000D6F0B1C0D5F0D96F1EEC08F0010EE36F6A
:103FB000030EE46F14EC04F0300EF66E060EF76E8E
:103FC000060ED56F66EC06F023C0D5F0030ED66F53
:103FD00038EC09F03A0EE26F45EC04F022C0D5F05F
:103FE000010ED66F38EC09F03F0EF66E060EF76E36
:103FF000060ED56F66EC06F017A210D0010EE36F27
:10400000040EE46F14EC04F0460EF66E060EF76E26
:1040100074EC04F08C829592179E4FD0010EE36FE2
:10402000040EE46F14EC04F0500EF66E060EF76EFC
:1040300074EC04F08C92959217BE3FD0320EA96EAC
:1040400021C0A8FFA69CA69EA684F250006EF29EF8
:104050000F01550EA76EAA0EA76EA682A6B2FED7B6
:10406000A6940050F212330EA96E22C0A8FFA69C9F
:10407000A69EA684F250006EF29E550EA76EAA0E62
:10408000A76EA682A6B2FED7A6940050F212340EF6
:10409000A96E23C0A8FFA69CA69EA684F250006E1F
:1040A000F29E550EA76EAA0EA76EA682A6B2FED7E6
:1040B000A6940050F212178E000117A00FD00C0E1C
:1040C000E36F040EE46F14EC04F05A0EF66E060E65
:1040D000F76E74EC04F08B8294920ED00C0EE36FAA
:1040E000040EE46F14EC04F0640EF66E060EF76E28
:1040F00074EC04F08B929492968084A00DD017B645
:104100000AD017721786020ED16F960EE36F37EC46
:1041100003F0D12FFAD701D01796968284A212D03D
:104120000C0EE26F45EC04F0020ED16F960EE36FB9
:1041300037EC03F0D12FFAD7010E186E376A020E52
:104140001C6E1E6E2A50090803E2A8EC03F02A6ACE
:104150002B500A0801E22B6A17AC11D027C0D1F00E
:104160006EEF09F003C0B4F002C0B3F001C0B2F0CA
:1041700000C0B1F0185202E0C2EF0AF0179C14EF31
:044180000FF0030039
:020000040030CA
:0E00000020CE1E1E000781000FC00FE00F4033
:00000001FF
;PIC18F4550
;CRC=F86D  CREATED="07-oct-15 11:00"
